{
  "_format": "hh-sol-artifact-1",
  "contractName": "Saper",
  "sourceName": "contracts/Saper.sol",
  "abi": [
    {
      "inputs": [
        {
          "internalType": "address",
          "name": "_saperCertificate",
          "type": "address"
        }
      ],
      "stateMutability": "nonpayable",
      "type": "constructor"
    },
    {
      "inputs": [
        {
          "internalType": "uint8",
          "name": "_i",
          "type": "uint8"
        },
        {
          "internalType": "uint8",
          "name": "_j",
          "type": "uint8"
        }
      ],
      "name": "bombActivate",
      "outputs": [
        {
          "internalType": "uint8",
          "name": "",
          "type": "uint8"
        }
      ],
      "stateMutability": "nonpayable",
      "type": "function"
    },
    {
      "inputs": [
        {
          "internalType": "uint8",
          "name": "_i",
          "type": "uint8"
        },
        {
          "internalType": "uint8",
          "name": "_j",
          "type": "uint8"
        }
      ],
      "name": "checkField",
      "outputs": [
        {
          "internalType": "uint8[100]",
          "name": "",
          "type": "uint8[100]"
        }
      ],
      "stateMutability": "view",
      "type": "function"
    },
    {
      "inputs": [
        {
          "internalType": "string",
          "name": "endStr",
          "type": "string"
        }
      ],
      "name": "endGame",
      "outputs": [
        {
          "internalType": "uint8",
          "name": "",
          "type": "uint8"
        }
      ],
      "stateMutability": "nonpayable",
      "type": "function"
    },
    {
      "inputs": [],
      "name": "getStatusGame",
      "outputs": [
        {
          "internalType": "uint8",
          "name": "",
          "type": "uint8"
        }
      ],
      "stateMutability": "view",
      "type": "function"
    },
    {
      "inputs": [],
      "name": "mine",
      "outputs": [
        {
          "internalType": "uint8",
          "name": "",
          "type": "uint8"
        }
      ],
      "stateMutability": "view",
      "type": "function"
    },
    {
      "inputs": [],
      "name": "saperCertificate",
      "outputs": [
        {
          "internalType": "contract ISaperCertificate",
          "name": "",
          "type": "address"
        }
      ],
      "stateMutability": "view",
      "type": "function"
    },
    {
      "inputs": [],
      "name": "startGame",
      "outputs": [
        {
          "internalType": "uint8",
          "name": "",
          "type": "uint8"
        }
      ],
      "stateMutability": "nonpayable",
      "type": "function"
    }
  ],
  "bytecode": "0x6080604052600c600260146101000a81548160ff021916908360ff1602179055503480156200002d57600080fd5b50604051620040c2380380620040c2833981810160405281019062000053919062000105565b80600260006101000a81548173ffffffffffffffffffffffffffffffffffffffff021916908373ffffffffffffffffffffffffffffffffffffffff1602179055505062000137565b600080fd5b600073ffffffffffffffffffffffffffffffffffffffff82169050919050565b6000620000cd82620000a0565b9050919050565b620000df81620000c0565b8114620000eb57600080fd5b50565b600081519050620000ff81620000d4565b92915050565b6000602082840312156200011e576200011d6200009b565b5b60006200012e84828501620000ee565b91505092915050565b613f7b80620001476000396000f3fe608060405234801561001057600080fd5b506004361061007d5760003560e01c806350ff5b921161005b57806350ff5b921461010057806399f4b2511461011e578063d65ab5f21461013c578063e9170c3b1461015a5761007d565b80630200d3811461008257806317fc1963146100b257806328e38cfb146100e2575b600080fd5b61009c60048036038101906100979190613382565b61018a565b6040516100a9919061346d565b60405180910390f35b6100cc60048036038101906100c79190613382565b610943565b6040516100d99190613498565b60405180910390f35b6100ea610b73565b6040516100f79190613532565b60405180910390f35b610108610b99565b6040516101159190613498565b60405180910390f35b610126610bed565b6040516101339190613498565b60405180910390f35b610144610c00565b6040516101519190613498565b60405180910390f35b610174600480360381019061016f9190613693565b612a32565b6040516101819190613498565b60405180910390f35b61019261311d565b60008360ff16101580156101aa575060098360ff1611155b80156101ba575060008260ff1610155b80156101ca575060098260ff1611155b610209576040517f08c379a00000000000000000000000000000000000000000000000000000000081526004016102009061375f565b60405180910390fd5b61021161311d565b60c86000803373ffffffffffffffffffffffffffffffffffffffff1673ffffffffffffffffffffffffffffffffffffffff1681526020019081526020016000208560ff16600a81106102665761026561377f565b5b018460ff16600a811061027c5761027b61377f565b5b602091828204019190069054906101000a900460ff1660ff16036102ef5760005b60648160ff1610156102e55760c8828260ff16606481106102c1576102c061377f565b5b602002019060ff16908160ff168152505080806102dd906137dd565b91505061029d565b508091505061093d565b6102f7613140565b60006001905060008060003373ffffffffffffffffffffffffffffffffffffffff1673ffffffffffffffffffffffffffffffffffffffff168152602001908152602001600020600a80602002604051908101604052809291906000905b828210156103d057838201600a806020026040519081016040528092919082600a80156103bc576020028201916000905b82829054906101000a900460ff1660ff16815260200190600101906020826000010492830192600103820291508084116103855790505b505050505081526020019060010190610354565b5050505090506103de613163565b60005b600c8160ff1610156105045760c9828260ff16600c81106104055761040461377f565b5b60200201516000600c811061041d5761041c61377f565b5b602002019060ff16908160ff168152505060c9828260ff16600c81106104465761044561377f565b5b6020020151600b600c811061045e5761045d61377f565b5b602002019060ff16908160ff168152505060c9826000600c81106104855761048461377f565b5b60200201518260ff16600c811061049f5761049e61377f565b5b602002019060ff16908160ff168152505060c982600b600c81106104c6576104c561377f565b5b60200201518260ff16600c81106104e0576104df61377f565b5b602002019060ff16908160ff168152505080806104fc906137dd565b9150506103e1565b50600187600c60018b6105179190613806565b610521919061383b565b61052b9190613806565b6105359190613806565b846000605081106105495761054861377f565b5b602002019060ff16908160ff16815250506000805b60008560ff16111561093257610572613140565b6000805b8760ff168160ff16101561092457600c898260ff166050811061059c5761059b61377f565b5b60200201516105ab91906138a7565b9450600c898260ff16605081106105c5576105c461377f565b5b60200201516105d491906138d8565b935060c9868660ff16600c81106105ee576105ed61377f565b5b60200201518560ff16600c81106106085761060761377f565b5b602002015160ff1603156109115760c9868660ff16600c811061062e5761062d61377f565b5b60200201518560ff16600c81106106485761064761377f565b5b602002019060ff16908160ff16815250506000876001876106699190613909565b60ff16600a811061067d5761067c61377f565b5b602002015160018661068f9190613909565b60ff16600a81106106a3576106a261377f565b5b602002015160ff160361086c5783600c6001876106c09190613909565b6106ca919061383b565b6106d49190613806565b838360ff16605081106106ea576106e961377f565b5b602002019060ff16908160ff168152505083600c60018761070b9190613806565b610715919061383b565b61071f9190613806565b8360018461072d9190613806565b60ff16605081106107415761074061377f565b5b602002019060ff16908160ff1681525050600184600c87610762919061383b565b61076c9190613806565b6107769190613909565b836002846107849190613806565b60ff16605081106107985761079761377f565b5b602002019060ff16908160ff1681525050600184600c876107b9919061383b565b6107c39190613806565b6107cd9190613806565b836003846107db9190613806565b60ff16605081106107ef576107ee61377f565b5b602002019060ff16908160ff168152505060048261080d9190613806565b915060648a600186600a60018a6108249190613909565b61082e919061383b565b6108389190613806565b6108429190613909565b60ff16606481106108565761085561377f565b5b602002019060ff16908160ff1681525050610910565b8660018661087a9190613909565b60ff16600a811061088e5761088d61377f565b5b60200201516001856108a09190613909565b60ff16600a81106108b4576108b361377f565b5b60200201518a600186600a60018a6108cc9190613909565b6108d6919061383b565b6108e09190613806565b6108ea9190613909565b60ff16606481106108fe576108fd61377f565b5b602002019060ff16908160ff16815250505b5b808061091c906137dd565b915050610576565b50819750809650505061055e565b869750505050505050505b92915050565b6000808360ff161015801561095c575060098360ff1611155b801561096c575060008260ff1610155b801561097c575060098260ff1611155b6109bb576040517f08c379a00000000000000000000000000000000000000000000000000000000081526004016109b29061375f565b60405180910390fd5b60018060003373ffffffffffffffffffffffffffffffffffffffff1673ffffffffffffffffffffffffffffffffffffffff16815260200190815260200160002060009054906101000a900460ff1660ff1614610a4c576040517f08c379a0000000000000000000000000000000000000000000000000000000008152600401610a4390613a22565b60405180910390fd5b60c86000803373ffffffffffffffffffffffffffffffffffffffff1673ffffffffffffffffffffffffffffffffffffffff1681526020019081526020016000208460ff16600a8110610aa157610aa061377f565b5b018360ff16600a8110610ab757610ab661377f565b5b602091828204019190069054906101000a900460ff1660ff1614610b10576040517f08c379a0000000000000000000000000000000000000000000000000000000008152600401610b0790613ab4565b60405180910390fd5b6000600160003373ffffffffffffffffffffffffffffffffffffffff1673ffffffffffffffffffffffffffffffffffffffff16815260200190815260200160002060006101000a81548160ff021916908360ff16021790555060c8905092915050565b600260009054906101000a900473ffffffffffffffffffffffffffffffffffffffff1681565b6000600160003373ffffffffffffffffffffffffffffffffffffffff1673ffffffffffffffffffffffffffffffffffffffff16815260200190815260200160002060009054906101000a900460ff16905090565b600260149054906101000a900460ff1681565b60006002600160003373ffffffffffffffffffffffffffffffffffffffff1673ffffffffffffffffffffffffffffffffffffffff16815260200190815260200160002060009054906101000a900460ff1660ff1603610c94576040517f08c379a0000000000000000000000000000000000000000000000000000000008152600401610c8b90613b6c565b60405180910390fd5b60018060003373ffffffffffffffffffffffffffffffffffffffff1673ffffffffffffffffffffffffffffffffffffffff16815260200190815260200160002060006101000a81548160ff021916908360ff160217905550610cf4613191565b60005b600260149054906101000a900460ff1660ff168160ff1610156129db576000610d1e612c71565b90506000600a82610d2f91906138a7565b90506000600a83610d4091906138d8565b905060c8858360ff16600a8110610d5a57610d5961377f565b5b60200201518260ff16600a8110610d7457610d7361377f565b5b602002015160ff1603610d89575050506129c8565b60c8858360ff16600a8110610da157610da061377f565b5b60200201518260ff16600a8110610dbb57610dba61377f565b5b602002019060ff16908160ff168152505060008260ff16148015610de2575060008160ff16145b15610ff35760c885600184610df79190613806565b60ff16600a8110610e0b57610e0a61377f565b5b60200201518260ff16600a8110610e2557610e2461377f565b5b602002015160ff1614610e8b5784600183610e409190613806565b60ff16600a8110610e5457610e5361377f565b5b60200201518160ff16600a8110610e6e57610e6d61377f565b5b602002018051809190610e80906137dd565b60ff1660ff16815250505b60c8858360ff16600a8110610ea357610ea261377f565b5b6020020151600183610eb59190613806565b60ff16600a8110610ec957610ec861377f565b5b602002015160ff1614610f2f57848260ff16600a8110610eec57610eeb61377f565b5b6020020151600182610efe9190613806565b60ff16600a8110610f1257610f1161377f565b5b602002018051809190610f24906137dd565b60ff1660ff16815250505b60c885600184610f3f9190613806565b60ff16600a8110610f5357610f5261377f565b5b6020020151600183610f659190613806565b60ff16600a8110610f7957610f7861377f565b5b602002015160ff1614610feb5784600183610f949190613806565b60ff16600a8110610fa857610fa761377f565b5b6020020151600182610fba9190613806565b60ff16600a8110610fce57610fcd61377f565b5b602002018051809190610fe0906137dd565b60ff1660ff16815250505b5050506129c8565b60098260ff16148015611009575060008160ff16145b1561121a5760c88560018461101e9190613909565b60ff16600a81106110325761103161377f565b5b60200201518260ff16600a811061104c5761104b61377f565b5b602002015160ff16146110b257846001836110679190613909565b60ff16600a811061107b5761107a61377f565b5b60200201518160ff16600a81106110955761109461377f565b5b6020020180518091906110a7906137dd565b60ff1660ff16815250505b60c8858360ff16600a81106110ca576110c961377f565b5b60200201516001836110dc9190613806565b60ff16600a81106110f0576110ef61377f565b5b602002015160ff161461115657848260ff16600a81106111135761111261377f565b5b60200201516001826111259190613806565b60ff16600a81106111395761113861377f565b5b60200201805180919061114b906137dd565b60ff1660ff16815250505b60c8856001846111669190613909565b60ff16600a811061117a5761117961377f565b5b602002015160018361118c9190613806565b60ff16600a81106111a05761119f61377f565b5b602002015160ff161461121257846001836111bb9190613909565b60ff16600a81106111cf576111ce61377f565b5b60200201516001826111e19190613806565b60ff16600a81106111f5576111f461377f565b5b602002018051809190611207906137dd565b60ff1660ff16815250505b5050506129c8565b60008260ff16148015611230575060098160ff16145b156114415760c8856001846112459190613806565b60ff16600a81106112595761125861377f565b5b60200201518260ff16600a81106112735761127261377f565b5b602002015160ff16146112d9578460018361128e9190613806565b60ff16600a81106112a2576112a161377f565b5b60200201518160ff16600a81106112bc576112bb61377f565b5b6020020180518091906112ce906137dd565b60ff1660ff16815250505b60c8858360ff16600a81106112f1576112f061377f565b5b60200201516001836113039190613909565b60ff16600a81106113175761131661377f565b5b602002015160ff161461137d57848260ff16600a811061133a5761133961377f565b5b602002015160018261134c9190613909565b60ff16600a81106113605761135f61377f565b5b602002018051809190611372906137dd565b60ff1660ff16815250505b60c88560018461138d9190613806565b60ff16600a81106113a1576113a061377f565b5b60200201516001836113b39190613909565b60ff16600a81106113c7576113c661377f565b5b602002015160ff161461143957846001836113e29190613806565b60ff16600a81106113f6576113f561377f565b5b60200201516001826114089190613909565b60ff16600a811061141c5761141b61377f565b5b60200201805180919061142e906137dd565b60ff1660ff16815250505b5050506129c8565b60098260ff16148015611457575060098160ff16145b156116685760c88560018461146c9190613909565b60ff16600a81106114805761147f61377f565b5b60200201518260ff16600a811061149a5761149961377f565b5b602002015160ff161461150057846001836114b59190613909565b60ff16600a81106114c9576114c861377f565b5b60200201518160ff16600a81106114e3576114e261377f565b5b6020020180518091906114f5906137dd565b60ff1660ff16815250505b60c8858360ff16600a81106115185761151761377f565b5b602002015160018361152a9190613909565b60ff16600a811061153e5761153d61377f565b5b602002015160ff16146115a457848260ff16600a81106115615761156061377f565b5b60200201516001826115739190613909565b60ff16600a81106115875761158661377f565b5b602002018051809190611599906137dd565b60ff1660ff16815250505b60c8856001846115b49190613909565b60ff16600a81106115c8576115c761377f565b5b60200201516001836115da9190613909565b60ff16600a81106115ee576115ed61377f565b5b602002015160ff161461166057846001836116099190613909565b60ff16600a811061161d5761161c61377f565b5b602002015160018261162f9190613909565b60ff16600a81106116435761164261377f565b5b602002018051809190611655906137dd565b60ff1660ff16815250505b5050506129c8565b60008160ff16036119df5760c8858360ff16600a811061168b5761168a61377f565b5b602002015160018361169d9190613806565b60ff16600a81106116b1576116b061377f565b5b602002015160ff161461171757848260ff16600a81106116d4576116d361377f565b5b60200201516001826116e69190613806565b60ff16600a81106116fa576116f961377f565b5b60200201805180919061170c906137dd565b60ff1660ff16815250505b60c8856001846117279190613909565b60ff16600a811061173b5761173a61377f565b5b60200201518260ff16600a81106117555761175461377f565b5b602002015160ff16146117bb57846001836117709190613909565b60ff16600a81106117845761178361377f565b5b60200201518160ff16600a811061179e5761179d61377f565b5b6020020180518091906117b0906137dd565b60ff1660ff16815250505b60c8856001846117cb9190613806565b60ff16600a81106117df576117de61377f565b5b60200201518260ff16600a81106117f9576117f861377f565b5b602002015160ff161461185f57846001836118149190613806565b60ff16600a81106118285761182761377f565b5b60200201518160ff16600a81106118425761184161377f565b5b602002018051809190611854906137dd565b60ff1660ff16815250505b60c88560018461186f9190613909565b60ff16600a81106118835761188261377f565b5b60200201516001836118959190613806565b60ff16600a81106118a9576118a861377f565b5b602002015160ff161461191b57846001836118c49190613909565b60ff16600a81106118d8576118d761377f565b5b60200201516001826118ea9190613806565b60ff16600a81106118fe576118fd61377f565b5b602002018051809190611910906137dd565b60ff1660ff16815250505b60c88560018461192b9190613806565b60ff16600a811061193f5761193e61377f565b5b60200201516001836119519190613806565b60ff16600a81106119655761196461377f565b5b602002015160ff16146119d757846001836119809190613806565b60ff16600a81106119945761199361377f565b5b60200201516001826119a69190613806565b60ff16600a81106119ba576119b961377f565b5b6020020180518091906119cc906137dd565b60ff1660ff16815250505b5050506129c8565b60098260ff1603611d565760c8856001846119fa9190613909565b60ff16600a8110611a0e57611a0d61377f565b5b60200201518260ff16600a8110611a2857611a2761377f565b5b602002015160ff1614611a8e5784600183611a439190613909565b60ff16600a8110611a5757611a5661377f565b5b60200201518160ff16600a8110611a7157611a7061377f565b5b602002018051809190611a83906137dd565b60ff1660ff16815250505b60c8858360ff16600a8110611aa657611aa561377f565b5b6020020151600183611ab89190613909565b60ff16600a8110611acc57611acb61377f565b5b602002015160ff1614611b3257848260ff16600a8110611aef57611aee61377f565b5b6020020151600182611b019190613909565b60ff16600a8110611b1557611b1461377f565b5b602002018051809190611b27906137dd565b60ff1660ff16815250505b60c8858360ff16600a8110611b4a57611b4961377f565b5b6020020151600183611b5c9190613806565b60ff16600a8110611b7057611b6f61377f565b5b602002015160ff1614611bd657848260ff16600a8110611b9357611b9261377f565b5b6020020151600182611ba59190613806565b60ff16600a8110611bb957611bb861377f565b5b602002018051809190611bcb906137dd565b60ff1660ff16815250505b60c885600184611be69190613909565b60ff16600a8110611bfa57611bf961377f565b5b6020020151600183611c0c9190613909565b60ff16600a8110611c2057611c1f61377f565b5b602002015160ff1614611c925784600183611c3b9190613909565b60ff16600a8110611c4f57611c4e61377f565b5b6020020151600182611c619190613909565b60ff16600a8110611c7557611c7461377f565b5b602002018051809190611c87906137dd565b60ff1660ff16815250505b60c885600184611ca29190613909565b60ff16600a8110611cb657611cb561377f565b5b6020020151600183611cc89190613806565b60ff16600a8110611cdc57611cdb61377f565b5b602002015160ff1614611d4e5784600183611cf79190613909565b60ff16600a8110611d0b57611d0a61377f565b5b6020020151600182611d1d9190613806565b60ff16600a8110611d3157611d3061377f565b5b602002018051809190611d43906137dd565b60ff1660ff16815250505b5050506129c8565b60098160ff16036120cd5760c8858360ff16600a8110611d7957611d7861377f565b5b6020020151600183611d8b9190613909565b60ff16600a8110611d9f57611d9e61377f565b5b602002015160ff1614611e0557848260ff16600a8110611dc257611dc161377f565b5b6020020151600182611dd49190613909565b60ff16600a8110611de857611de761377f565b5b602002018051809190611dfa906137dd565b60ff1660ff16815250505b60c885600184611e159190613909565b60ff16600a8110611e2957611e2861377f565b5b60200201518260ff16600a8110611e4357611e4261377f565b5b602002015160ff1614611ea95784600183611e5e9190613909565b60ff16600a8110611e7257611e7161377f565b5b60200201518160ff16600a8110611e8c57611e8b61377f565b5b602002018051809190611e9e906137dd565b60ff1660ff16815250505b60c885600184611eb99190613806565b60ff16600a8110611ecd57611ecc61377f565b5b60200201518260ff16600a8110611ee757611ee661377f565b5b602002015160ff1614611f4d5784600183611f029190613806565b60ff16600a8110611f1657611f1561377f565b5b60200201518160ff16600a8110611f3057611f2f61377f565b5b602002018051809190611f42906137dd565b60ff1660ff16815250505b60c885600184611f5d9190613909565b60ff16600a8110611f7157611f7061377f565b5b6020020151600183611f839190613909565b60ff16600a8110611f9757611f9661377f565b5b602002015160ff16146120095784600183611fb29190613909565b60ff16600a8110611fc657611fc561377f565b5b6020020151600182611fd89190613909565b60ff16600a8110611fec57611feb61377f565b5b602002018051809190611ffe906137dd565b60ff1660ff16815250505b60c8856001846120199190613806565b60ff16600a811061202d5761202c61377f565b5b602002015160018361203f9190613909565b60ff16600a81106120535761205261377f565b5b602002015160ff16146120c5578460018361206e9190613806565b60ff16600a81106120825761208161377f565b5b60200201516001826120949190613909565b60ff16600a81106120a8576120a761377f565b5b6020020180518091906120ba906137dd565b60ff1660ff16815250505b5050506129c8565b60008260ff16036124445760c8856001846120e89190613806565b60ff16600a81106120fc576120fb61377f565b5b60200201518260ff16600a81106121165761211561377f565b5b602002015160ff161461217c57846001836121319190613806565b60ff16600a81106121455761214461377f565b5b60200201518160ff16600a811061215f5761215e61377f565b5b602002018051809190612171906137dd565b60ff1660ff16815250505b60c8858360ff16600a81106121945761219361377f565b5b60200201516001836121a69190613909565b60ff16600a81106121ba576121b961377f565b5b602002015160ff161461222057848260ff16600a81106121dd576121dc61377f565b5b60200201516001826121ef9190613909565b60ff16600a81106122035761220261377f565b5b602002018051809190612215906137dd565b60ff1660ff16815250505b60c8858360ff16600a81106122385761223761377f565b5b602002015160018361224a9190613806565b60ff16600a811061225e5761225d61377f565b5b602002015160ff16146122c457848260ff16600a81106122815761228061377f565b5b60200201516001826122939190613806565b60ff16600a81106122a7576122a661377f565b5b6020020180518091906122b9906137dd565b60ff1660ff16815250505b60c8856001846122d49190613806565b60ff16600a81106122e8576122e761377f565b5b60200201516001836122fa9190613909565b60ff16600a811061230e5761230d61377f565b5b602002015160ff161461238057846001836123299190613806565b60ff16600a811061233d5761233c61377f565b5b602002015160018261234f9190613909565b60ff16600a81106123635761236261377f565b5b602002018051809190612375906137dd565b60ff1660ff16815250505b60c8856001846123909190613806565b60ff16600a81106123a4576123a361377f565b5b60200201516001836123b69190613806565b60ff16600a81106123ca576123c961377f565b5b602002015160ff161461243c57846001836123e59190613806565b60ff16600a81106123f9576123f861377f565b5b602002015160018261240b9190613806565b60ff16600a811061241f5761241e61377f565b5b602002018051809190612431906137dd565b60ff1660ff16815250505b5050506129c8565b60c8856001846124549190613806565b60ff16600a81106124685761246761377f565b5b60200201518260ff16600a81106124825761248161377f565b5b602002015160ff16146124e8578460018361249d9190613806565b60ff16600a81106124b1576124b061377f565b5b60200201518160ff16600a81106124cb576124ca61377f565b5b6020020180518091906124dd906137dd565b60ff1660ff16815250505b60c8856001846124f89190613806565b60ff16600a811061250c5761250b61377f565b5b602002015160018361251e9190613806565b60ff16600a81106125325761253161377f565b5b602002015160ff16146125a4578460018361254d9190613806565b60ff16600a81106125615761256061377f565b5b60200201516001826125739190613806565b60ff16600a81106125875761258661377f565b5b602002018051809190612599906137dd565b60ff1660ff16815250505b60c8856001846125b49190613806565b60ff16600a81106125c8576125c761377f565b5b60200201516001836125da9190613909565b60ff16600a81106125ee576125ed61377f565b5b602002015160ff161461266057846001836126099190613806565b60ff16600a811061261d5761261c61377f565b5b602002015160018261262f9190613909565b60ff16600a81106126435761264261377f565b5b602002018051809190612655906137dd565b60ff1660ff16815250505b60c8856001846126709190613909565b60ff16600a81106126845761268361377f565b5b60200201518260ff16600a811061269e5761269d61377f565b5b602002015160ff161461270457846001836126b99190613909565b60ff16600a81106126cd576126cc61377f565b5b60200201518160ff16600a81106126e7576126e661377f565b5b6020020180518091906126f9906137dd565b60ff1660ff16815250505b60c8856001846127149190613909565b60ff16600a81106127285761272761377f565b5b602002015160018361273a9190613806565b60ff16600a811061274e5761274d61377f565b5b602002015160ff16146127c057846001836127699190613909565b60ff16600a811061277d5761277c61377f565b5b602002015160018261278f9190613806565b60ff16600a81106127a3576127a261377f565b5b6020020180518091906127b5906137dd565b60ff1660ff16815250505b60c8856001846127d09190613909565b60ff16600a81106127e4576127e361377f565b5b60200201516001836127f69190613909565b60ff16600a811061280a5761280961377f565b5b602002015160ff161461287c57846001836128259190613909565b60ff16600a81106128395761283861377f565b5b602002015160018261284b9190613909565b60ff16600a811061285f5761285e61377f565b5b602002018051809190612871906137dd565b60ff1660ff16815250505b60c8858360ff16600a81106128945761289361377f565b5b60200201516001836128a69190613909565b60ff16600a81106128ba576128b961377f565b5b602002015160ff161461292057848260ff16600a81106128dd576128dc61377f565b5b60200201516001826128ef9190613909565b60ff16600a81106129035761290261377f565b5b602002018051809190612915906137dd565b60ff1660ff16815250505b60c8858360ff16600a81106129385761293761377f565b5b602002015160018361294a9190613806565b60ff16600a811061295e5761295d61377f565b5b602002015160ff16146129c457848260ff16600a81106129815761298061377f565b5b60200201516001826129939190613806565b60ff16600a81106129a7576129a661377f565b5b6020020180518091906129b9906137dd565b60ff1660ff16815250505b5050505b80806129d3906137dd565b915050610cf7565b50806000803373ffffffffffffffffffffffffffffffffffffffff1673ffffffffffffffffffffffffffffffffffffffff16815260200190815260200160002090600a612a299291906131bf565b5060c891505090565b600060018060003373ffffffffffffffffffffffffffffffffffffffff1673ffffffffffffffffffffffffffffffffffffffff16815260200190815260200160002060009054906101000a900460ff1660ff1614612ac5576040517f08c379a0000000000000000000000000000000000000000000000000000000008152600401612abc90613c70565b60405180910390fd5b612acd612ccf565b604051602001612add9190613d01565b6040516020818303038152906040528051906020012082604051602001612b049190613d01565b6040516020818303038152906040528051906020012014612b81576000600160003373ffffffffffffffffffffffffffffffffffffffff1673ffffffffffffffffffffffffffffffffffffffff16815260200190815260200160002060006101000a81548160ff021916908360ff16021790555060cc9050612c6c565b600260009054906101000a900473ffffffffffffffffffffffffffffffffffffffff1673ffffffffffffffffffffffffffffffffffffffff166340d097c3336040518263ffffffff1660e01b8152600401612bdc9190613d39565b600060405180830381600087803b158015612bf657600080fd5b505af1158015612c0a573d6000803e3d6000fd5b505050506002600160003373ffffffffffffffffffffffffffffffffffffffff1673ffffffffffffffffffffffffffffffffffffffff16815260200190815260200160002060006101000a81548160ff021916908360ff16021790555060c890505b919050565b600080606433600354604051602001612c8b929190613dc7565b6040516020818303038152906040528051906020012060001c612cae9190613df3565b905060036000815480929190612cc390613e24565b91905055508091505090565b60608060008060003373ffffffffffffffffffffffffffffffffffffffff1673ffffffffffffffffffffffffffffffffffffffff168152602001908152602001600020600a80602002604051908101604052809291906000905b82821015612da557838201600a806020026040519081016040528092919082600a8015612d91576020028201916000905b82829054906101000a900460ff1660ff1681526020019060010190602082600001049283019260010382029150808411612d5a5790505b505050505081526020019060010190612d29565b50505050905060006001905060005b600a8160ff161015612ef25760005b600a8160ff161015612ede5760c8848360ff16600a8110612de757612de661377f565b5b60200201518260ff16600a8110612e0157612e0061377f565b5b602002015160ff1603612ecb578215612e6157612e3781600a84612e25919061383b565b612e2f9190613806565b60ff16612efc565b604051602001612e479190613d01565b604051602081830303815290604052945060009250612eca565b84604051602001612e729190613eff565b604051602081830303815290604052945084612ea782600a85612e95919061383b565b612e9f9190613806565b60ff16612efc565b604051602001612eb8929190613f21565b60405160208183030381529060405294505b5b8080612ed6906137dd565b915050612dc3565b508080612eea906137dd565b915050612db4565b5082935050505090565b606060006001612f0b84612fca565b01905060008167ffffffffffffffff811115612f2a57612f29613568565b5b6040519080825280601f01601f191660200182016040528015612f5c5781602001600182028036833780820191505090505b509050600082602001820190505b600115612fbf578080600190039150507f3031323334353637383961626364656600000000000000000000000000000000600a86061a8153600a8581612fb357612fb2613878565b5b04945060008503612f6a575b819350505050919050565b600080600090507a184f03e93ff9f4daa797ed6e38ed64bf6a1f0100000000000000008310613028577a184f03e93ff9f4daa797ed6e38ed64bf6a1f010000000000000000838161301e5761301d613878565b5b0492506040810190505b6d04ee2d6d415b85acef81000000008310613065576d04ee2d6d415b85acef8100000000838161305b5761305a613878565b5b0492506020810190505b662386f26fc10000831061309457662386f26fc10000838161308a57613089613878565b5b0492506010810190505b6305f5e10083106130bd576305f5e10083816130b3576130b2613878565b5b0492506008810190505b61271083106130e25761271083816130d8576130d7613878565b5b0492506004810190505b6064831061310557606483816130fb576130fa613878565b5b0492506002810190505b600a8310613114576001810190505b80915050919050565b60405180610c800160405280606490602082028036833780820191505090505090565b60405180610a000160405280605090602082028036833780820191505090505090565b604051806101800160405280600c905b61317b61320d565b8152602001906001900390816131735790505090565b604051806101400160405280600a905b6131a9613230565b8152602001906001900390816131a15790505090565b82600a81019282156131fc579160200282015b828111156131fb5782518290600a6131eb929190613253565b50916020019190600101906131d2565b5b50905061320991906132ed565b5090565b604051806101800160405280600c90602082028036833780820191505090505090565b604051806101400160405280600a90602082028036833780820191505090505090565b82600a601f016020900481019282156132dc5791602002820160005b838211156132ad57835183826101000a81548160ff021916908360ff160217905550926020019260010160208160000104928301926001030261326f565b80156132da5782816101000a81549060ff02191690556001016020816000010492830192600103026132ad565b505b5090506132e99190613311565b5090565b5b8082111561330d5760008181613304919061332e565b506001016132ee565b5090565b5b8082111561332a576000816000905550600101613312565b5090565b5060009055565b6000604051905090565b600080fd5b600080fd5b600060ff82169050919050565b61335f81613349565b811461336a57600080fd5b50565b60008135905061337c81613356565b92915050565b600080604083850312156133995761339861333f565b5b60006133a78582860161336d565b92505060206133b88582860161336d565b9150509250929050565b600060649050919050565b600081905092915050565b6000819050919050565b6133eb81613349565b82525050565b60006133fd83836133e2565b60208301905092915050565b6000602082019050919050565b61341f816133c2565b61342981846133cd565b9250613434826133d8565b8060005b8381101561346557815161344c87826133f1565b965061345783613409565b925050600181019050613438565b505050505050565b6000610c80820190506134836000830184613416565b92915050565b61349281613349565b82525050565b60006020820190506134ad6000830184613489565b92915050565b600073ffffffffffffffffffffffffffffffffffffffff82169050919050565b6000819050919050565b60006134f86134f36134ee846134b3565b6134d3565b6134b3565b9050919050565b600061350a826134dd565b9050919050565b600061351c826134ff565b9050919050565b61352c81613511565b82525050565b60006020820190506135476000830184613523565b92915050565b600080fd5b600080fd5b6000601f19601f8301169050919050565b7f4e487b7100000000000000000000000000000000000000000000000000000000600052604160045260246000fd5b6135a082613557565b810181811067ffffffffffffffff821117156135bf576135be613568565b5b80604052505050565b60006135d2613335565b90506135de8282613597565b919050565b600067ffffffffffffffff8211156135fe576135fd613568565b5b61360782613557565b9050602081019050919050565b82818337600083830152505050565b6000613636613631846135e3565b6135c8565b90508281526020810184848401111561365257613651613552565b5b61365d848285613614565b509392505050565b600082601f83011261367a5761367961354d565b5b813561368a848260208601613623565b91505092915050565b6000602082840312156136a9576136a861333f565b5b600082013567ffffffffffffffff8111156136c7576136c6613344565b5b6136d384828501613665565b91505092915050565b600082825260208201905092915050565b7f476f696e67206265796f6e642074686520626f756e646172696573206f66207460008201527f686520706c6179696e67206669656c6421000000000000000000000000000000602082015250565b60006137496031836136dc565b9150613754826136ed565b604082019050919050565b600060208201905081810360008301526137788161373c565b9050919050565b7f4e487b7100000000000000000000000000000000000000000000000000000000600052603260045260246000fd5b7f4e487b7100000000000000000000000000000000000000000000000000000000600052601160045260246000fd5b60006137e882613349565b915060ff82036137fb576137fa6137ae565b5b600182019050919050565b600061381182613349565b915061381c83613349565b9250828201905060ff811115613835576138346137ae565b5b92915050565b600061384682613349565b915061385183613349565b925082820261385f81613349565b9150808214613871576138706137ae565b5b5092915050565b7f4e487b7100000000000000000000000000000000000000000000000000000000600052601260045260246000fd5b60006138b282613349565b91506138bd83613349565b9250826138cd576138cc613878565b5b828204905092915050565b60006138e382613349565b91506138ee83613349565b9250826138fe576138fd613878565b5b828206905092915050565b600061391482613349565b915061391f83613349565b9250828203905060ff811115613938576139376137ae565b5b92915050565b7f546f206578706c6f6465206f6e206120626f6d622c20796f75206d757374206860008201527f6176652074686520737461747573206f662067616d6520312c20696620796f7560208201527f206861766520636f6d706c65746564207468652067616d652c207468656e207960408201527f6f752077696c6c206e6f742062652061626c6520746f2061637469766174652060608201527f74686520626f6d62206569746865722100000000000000000000000000000000608082015250565b6000613a0c6090836136dc565b9150613a178261393e565b60a082019050919050565b60006020820190508181036000830152613a3b816139ff565b9050919050565b7f596f752063616e6e6f7420636f6d706c657465207468652067616d652062656360008201527f6175736520746869732063656c6c206973206e6f74206120626f6d62203b2900602082015250565b6000613a9e603f836136dc565b9150613aa982613a42565b604082019050919050565b60006020820190508181036000830152613acd81613a91565b9050919050565b7f416674657220636f6d706c6574696e67207468652067616d652c20697420697360008201527f20696d706f737369626c6520746f20636f6d706c657465207468652067616d6560208201527f20616761696e2100000000000000000000000000000000000000000000000000604082015250565b6000613b566047836136dc565b9150613b6182613ad4565b606082019050919050565b60006020820190508181036000830152613b8581613b49565b9050919050565b7f546f2066696e697368207468652067616d652c20796f75206e65656420746f2060008201527f73746172742069742c20616e6420696620796f75206861766520616c7265616460208201527f7920726563656976656420612063657274696669636174652c207468656e207960408201527f6f752063616e6e6f74206765742074686520326e64206365727469666963617460608201527f6521000000000000000000000000000000000000000000000000000000000000608082015250565b6000613c5a6082836136dc565b9150613c6582613b8c565b60a082019050919050565b60006020820190508181036000830152613c8981613c4d565b9050919050565b600081519050919050565b600081905092915050565b60005b83811015613cc4578082015181840152602081019050613ca9565b60008484015250505050565b6000613cdb82613c90565b613ce58185613c9b565b9350613cf5818560208601613ca6565b80840191505092915050565b6000613d0d8284613cd0565b915081905092915050565b6000613d23826134b3565b9050919050565b613d3381613d18565b82525050565b6000602082019050613d4e6000830184613d2a565b92915050565b60008160601b9050919050565b6000613d6c82613d54565b9050919050565b6000613d7e82613d61565b9050919050565b613d96613d9182613d18565b613d73565b82525050565b6000819050919050565b6000819050919050565b613dc1613dbc82613d9c565b613da6565b82525050565b6000613dd38285613d85565b601482019150613de38284613db0565b6020820191508190509392505050565b6000613dfe82613d9c565b9150613e0983613d9c565b925082613e1957613e18613878565b5b828206905092915050565b6000613e2f82613d9c565b91507fffffffffffffffffffffffffffffffffffffffffffffffffffffffffffffffff8203613e6157613e606137ae565b5b600182019050919050565b600081519050919050565b600081905092915050565b6000613e8d82613e6c565b613e978185613e77565b9350613ea7818560208601613ca6565b80840191505092915050565b7f5f00000000000000000000000000000000000000000000000000000000000000600082015250565b6000613ee9600183613c9b565b9150613ef482613eb3565b600182019050919050565b6000613f0b8284613e82565b9150613f1682613edc565b915081905092915050565b6000613f2d8285613e82565b9150613f398284613cd0565b9150819050939250505056fea2646970667358221220cdeb011c5cd9a01080e90b0420e854c46c8ab063679fc7f95b7191858a41e3db64736f6c63430008140033",
  "linkReferences": {},
  "deployedLinkReferences": {}
}