{"contracts/Saper.sol":{"Saper":{"abi":[{"inputs":[{"internalType":"address","name":"_saperCertificate","type":"address"}],"stateMutability":"nonpayable","type":"constructor"},{"inputs":[{"internalType":"uint8","name":"_i","type":"uint8"},{"internalType":"uint8","name":"_j","type":"uint8"}],"name":"bombActivate","outputs":[{"internalType":"uint8","name":"","type":"uint8"}],"stateMutability":"nonpayable","type":"function"},{"inputs":[{"internalType":"uint8","name":"_i","type":"uint8"},{"internalType":"uint8","name":"_j","type":"uint8"}],"name":"checkField","outputs":[{"internalType":"uint8[100]","name":"","type":"uint8[100]"}],"stateMutability":"view","type":"function"},{"inputs":[{"internalType":"string","name":"endStr","type":"string"}],"name":"endGame","outputs":[{"internalType":"uint8","name":"","type":"uint8"}],"stateMutability":"nonpayable","type":"function"},{"inputs":[],"name":"getStatusGame","outputs":[{"internalType":"uint8","name":"","type":"uint8"}],"stateMutability":"view","type":"function"},{"inputs":[],"name":"mine","outputs":[{"internalType":"uint8","name":"","type":"uint8"}],"stateMutability":"view","type":"function"},{"inputs":[],"name":"saperCertificate","outputs":[{"internalType":"contract ISaperCertificate","name":"","type":"address"}],"stateMutability":"view","type":"function"},{"inputs":[],"name":"startGame","outputs":[{"internalType":"uint8","name":"","type":"uint8"}],"stateMutability":"nonpayable","type":"function"}],"evm":{"bytecode":{"linkReferences":{},"object":"6080604052600c600260146101000a81548160ff021916908360ff1602179055503480156200002d57600080fd5b50604051620040c2380380620040c2833981810160405281019062000053919062000105565b80600260006101000a81548173ffffffffffffffffffffffffffffffffffffffff021916908373ffffffffffffffffffffffffffffffffffffffff1602179055505062000137565b600080fd5b600073ffffffffffffffffffffffffffffffffffffffff82169050919050565b6000620000cd82620000a0565b9050919050565b620000df81620000c0565b8114620000eb57600080fd5b50565b600081519050620000ff81620000d4565b92915050565b6000602082840312156200011e576200011d6200009b565b5b60006200012e84828501620000ee565b91505092915050565b613f7b80620001476000396000f3fe608060405234801561001057600080fd5b506004361061007d5760003560e01c806350ff5b921161005b57806350ff5b921461010057806399f4b2511461011e578063d65ab5f21461013c578063e9170c3b1461015a5761007d565b80630200d3811461008257806317fc1963146100b257806328e38cfb146100e2575b600080fd5b61009c60048036038101906100979190613382565b61018a565b6040516100a9919061346d565b60405180910390f35b6100cc60048036038101906100c79190613382565b610943565b6040516100d99190613498565b60405180910390f35b6100ea610b73565b6040516100f79190613532565b60405180910390f35b610108610b99565b6040516101159190613498565b60405180910390f35b610126610bed565b6040516101339190613498565b60405180910390f35b610144610c00565b6040516101519190613498565b60405180910390f35b610174600480360381019061016f9190613693565b612a32565b6040516101819190613498565b60405180910390f35b61019261311d565b60008360ff16101580156101aa575060098360ff1611155b80156101ba575060008260ff1610155b80156101ca575060098260ff1611155b610209576040517f08c379a00000000000000000000000000000000000000000000000000000000081526004016102009061375f565b60405180910390fd5b61021161311d565b60c86000803373ffffffffffffffffffffffffffffffffffffffff1673ffffffffffffffffffffffffffffffffffffffff1681526020019081526020016000208560ff16600a81106102665761026561377f565b5b018460ff16600a811061027c5761027b61377f565b5b602091828204019190069054906101000a900460ff1660ff16036102ef5760005b60648160ff1610156102e55760c8828260ff16606481106102c1576102c061377f565b5b602002019060ff16908160ff168152505080806102dd906137dd565b91505061029d565b508091505061093d565b6102f7613140565b60006001905060008060003373ffffffffffffffffffffffffffffffffffffffff1673ffffffffffffffffffffffffffffffffffffffff168152602001908152602001600020600a80602002604051908101604052809291906000905b828210156103d057838201600a806020026040519081016040528092919082600a80156103bc576020028201916000905b82829054906101000a900460ff1660ff16815260200190600101906020826000010492830192600103820291508084116103855790505b505050505081526020019060010190610354565b5050505090506103de613163565b60005b600c8160ff1610156105045760c9828260ff16600c81106104055761040461377f565b5b60200201516000600c811061041d5761041c61377f565b5b602002019060ff16908160ff168152505060c9828260ff16600c81106104465761044561377f565b5b6020020151600b600c811061045e5761045d61377f565b5b602002019060ff16908160ff168152505060c9826000600c81106104855761048461377f565b5b60200201518260ff16600c811061049f5761049e61377f565b5b602002019060ff16908160ff168152505060c982600b600c81106104c6576104c561377f565b5b60200201518260ff16600c81106104e0576104df61377f565b5b602002019060ff16908160ff168152505080806104fc906137dd565b9150506103e1565b50600187600c60018b6105179190613806565b610521919061383b565b61052b9190613806565b6105359190613806565b846000605081106105495761054861377f565b5b602002019060ff16908160ff16815250506000805b60008560ff16111561093257610572613140565b6000805b8760ff168160ff16101561092457600c898260ff166050811061059c5761059b61377f565b5b60200201516105ab91906138a7565b9450600c898260ff16605081106105c5576105c461377f565b5b60200201516105d491906138d8565b935060c9868660ff16600c81106105ee576105ed61377f565b5b60200201518560ff16600c81106106085761060761377f565b5b602002015160ff1603156109115760c9868660ff16600c811061062e5761062d61377f565b5b60200201518560ff16600c81106106485761064761377f565b5b602002019060ff16908160ff16815250506000876001876106699190613909565b60ff16600a811061067d5761067c61377f565b5b602002015160018661068f9190613909565b60ff16600a81106106a3576106a261377f565b5b602002015160ff160361086c5783600c6001876106c09190613909565b6106ca919061383b565b6106d49190613806565b838360ff16605081106106ea576106e961377f565b5b602002019060ff16908160ff168152505083600c60018761070b9190613806565b610715919061383b565b61071f9190613806565b8360018461072d9190613806565b60ff16605081106107415761074061377f565b5b602002019060ff16908160ff1681525050600184600c87610762919061383b565b61076c9190613806565b6107769190613909565b836002846107849190613806565b60ff16605081106107985761079761377f565b5b602002019060ff16908160ff1681525050600184600c876107b9919061383b565b6107c39190613806565b6107cd9190613806565b836003846107db9190613806565b60ff16605081106107ef576107ee61377f565b5b602002019060ff16908160ff168152505060048261080d9190613806565b915060648a600186600a60018a6108249190613909565b61082e919061383b565b6108389190613806565b6108429190613909565b60ff16606481106108565761085561377f565b5b602002019060ff16908160ff1681525050610910565b8660018661087a9190613909565b60ff16600a811061088e5761088d61377f565b5b60200201516001856108a09190613909565b60ff16600a81106108b4576108b361377f565b5b60200201518a600186600a60018a6108cc9190613909565b6108d6919061383b565b6108e09190613806565b6108ea9190613909565b60ff16606481106108fe576108fd61377f565b5b602002019060ff16908160ff16815250505b5b808061091c906137dd565b915050610576565b50819750809650505061055e565b869750505050505050505b92915050565b6000808360ff161015801561095c575060098360ff1611155b801561096c575060008260ff1610155b801561097c575060098260ff1611155b6109bb576040517f08c379a00000000000000000000000000000000000000000000000000000000081526004016109b29061375f565b60405180910390fd5b60018060003373ffffffffffffffffffffffffffffffffffffffff1673ffffffffffffffffffffffffffffffffffffffff16815260200190815260200160002060009054906101000a900460ff1660ff1614610a4c576040517f08c379a0000000000000000000000000000000000000000000000000000000008152600401610a4390613a22565b60405180910390fd5b60c86000803373ffffffffffffffffffffffffffffffffffffffff1673ffffffffffffffffffffffffffffffffffffffff1681526020019081526020016000208460ff16600a8110610aa157610aa061377f565b5b018360ff16600a8110610ab757610ab661377f565b5b602091828204019190069054906101000a900460ff1660ff1614610b10576040517f08c379a0000000000000000000000000000000000000000000000000000000008152600401610b0790613ab4565b60405180910390fd5b6000600160003373ffffffffffffffffffffffffffffffffffffffff1673ffffffffffffffffffffffffffffffffffffffff16815260200190815260200160002060006101000a81548160ff021916908360ff16021790555060c8905092915050565b600260009054906101000a900473ffffffffffffffffffffffffffffffffffffffff1681565b6000600160003373ffffffffffffffffffffffffffffffffffffffff1673ffffffffffffffffffffffffffffffffffffffff16815260200190815260200160002060009054906101000a900460ff16905090565b600260149054906101000a900460ff1681565b60006002600160003373ffffffffffffffffffffffffffffffffffffffff1673ffffffffffffffffffffffffffffffffffffffff16815260200190815260200160002060009054906101000a900460ff1660ff1603610c94576040517f08c379a0000000000000000000000000000000000000000000000000000000008152600401610c8b90613b6c565b60405180910390fd5b60018060003373ffffffffffffffffffffffffffffffffffffffff1673ffffffffffffffffffffffffffffffffffffffff16815260200190815260200160002060006101000a81548160ff021916908360ff160217905550610cf4613191565b60005b600260149054906101000a900460ff1660ff168160ff1610156129db576000610d1e612c71565b90506000600a82610d2f91906138a7565b90506000600a83610d4091906138d8565b905060c8858360ff16600a8110610d5a57610d5961377f565b5b60200201518260ff16600a8110610d7457610d7361377f565b5b602002015160ff1603610d89575050506129c8565b60c8858360ff16600a8110610da157610da061377f565b5b60200201518260ff16600a8110610dbb57610dba61377f565b5b602002019060ff16908160ff168152505060008260ff16148015610de2575060008160ff16145b15610ff35760c885600184610df79190613806565b60ff16600a8110610e0b57610e0a61377f565b5b60200201518260ff16600a8110610e2557610e2461377f565b5b602002015160ff1614610e8b5784600183610e409190613806565b60ff16600a8110610e5457610e5361377f565b5b60200201518160ff16600a8110610e6e57610e6d61377f565b5b602002018051809190610e80906137dd565b60ff1660ff16815250505b60c8858360ff16600a8110610ea357610ea261377f565b5b6020020151600183610eb59190613806565b60ff16600a8110610ec957610ec861377f565b5b602002015160ff1614610f2f57848260ff16600a8110610eec57610eeb61377f565b5b6020020151600182610efe9190613806565b60ff16600a8110610f1257610f1161377f565b5b602002018051809190610f24906137dd565b60ff1660ff16815250505b60c885600184610f3f9190613806565b60ff16600a8110610f5357610f5261377f565b5b6020020151600183610f659190613806565b60ff16600a8110610f7957610f7861377f565b5b602002015160ff1614610feb5784600183610f949190613806565b60ff16600a8110610fa857610fa761377f565b5b6020020151600182610fba9190613806565b60ff16600a8110610fce57610fcd61377f565b5b602002018051809190610fe0906137dd565b60ff1660ff16815250505b5050506129c8565b60098260ff16148015611009575060008160ff16145b1561121a5760c88560018461101e9190613909565b60ff16600a81106110325761103161377f565b5b60200201518260ff16600a811061104c5761104b61377f565b5b602002015160ff16146110b257846001836110679190613909565b60ff16600a811061107b5761107a61377f565b5b60200201518160ff16600a81106110955761109461377f565b5b6020020180518091906110a7906137dd565b60ff1660ff16815250505b60c8858360ff16600a81106110ca576110c961377f565b5b60200201516001836110dc9190613806565b60ff16600a81106110f0576110ef61377f565b5b602002015160ff161461115657848260ff16600a81106111135761111261377f565b5b60200201516001826111259190613806565b60ff16600a81106111395761113861377f565b5b60200201805180919061114b906137dd565b60ff1660ff16815250505b60c8856001846111669190613909565b60ff16600a811061117a5761117961377f565b5b602002015160018361118c9190613806565b60ff16600a81106111a05761119f61377f565b5b602002015160ff161461121257846001836111bb9190613909565b60ff16600a81106111cf576111ce61377f565b5b60200201516001826111e19190613806565b60ff16600a81106111f5576111f461377f565b5b602002018051809190611207906137dd565b60ff1660ff16815250505b5050506129c8565b60008260ff16148015611230575060098160ff16145b156114415760c8856001846112459190613806565b60ff16600a81106112595761125861377f565b5b60200201518260ff16600a81106112735761127261377f565b5b602002015160ff16146112d9578460018361128e9190613806565b60ff16600a81106112a2576112a161377f565b5b60200201518160ff16600a81106112bc576112bb61377f565b5b6020020180518091906112ce906137dd565b60ff1660ff16815250505b60c8858360ff16600a81106112f1576112f061377f565b5b60200201516001836113039190613909565b60ff16600a81106113175761131661377f565b5b602002015160ff161461137d57848260ff16600a811061133a5761133961377f565b5b602002015160018261134c9190613909565b60ff16600a81106113605761135f61377f565b5b602002018051809190611372906137dd565b60ff1660ff16815250505b60c88560018461138d9190613806565b60ff16600a81106113a1576113a061377f565b5b60200201516001836113b39190613909565b60ff16600a81106113c7576113c661377f565b5b602002015160ff161461143957846001836113e29190613806565b60ff16600a81106113f6576113f561377f565b5b60200201516001826114089190613909565b60ff16600a811061141c5761141b61377f565b5b60200201805180919061142e906137dd565b60ff1660ff16815250505b5050506129c8565b60098260ff16148015611457575060098160ff16145b156116685760c88560018461146c9190613909565b60ff16600a81106114805761147f61377f565b5b60200201518260ff16600a811061149a5761149961377f565b5b602002015160ff161461150057846001836114b59190613909565b60ff16600a81106114c9576114c861377f565b5b60200201518160ff16600a81106114e3576114e261377f565b5b6020020180518091906114f5906137dd565b60ff1660ff16815250505b60c8858360ff16600a81106115185761151761377f565b5b602002015160018361152a9190613909565b60ff16600a811061153e5761153d61377f565b5b602002015160ff16146115a457848260ff16600a81106115615761156061377f565b5b60200201516001826115739190613909565b60ff16600a81106115875761158661377f565b5b602002018051809190611599906137dd565b60ff1660ff16815250505b60c8856001846115b49190613909565b60ff16600a81106115c8576115c761377f565b5b60200201516001836115da9190613909565b60ff16600a81106115ee576115ed61377f565b5b602002015160ff161461166057846001836116099190613909565b60ff16600a811061161d5761161c61377f565b5b602002015160018261162f9190613909565b60ff16600a81106116435761164261377f565b5b602002018051809190611655906137dd565b60ff1660ff16815250505b5050506129c8565b60008160ff16036119df5760c8858360ff16600a811061168b5761168a61377f565b5b602002015160018361169d9190613806565b60ff16600a81106116b1576116b061377f565b5b602002015160ff161461171757848260ff16600a81106116d4576116d361377f565b5b60200201516001826116e69190613806565b60ff16600a81106116fa576116f961377f565b5b60200201805180919061170c906137dd565b60ff1660ff16815250505b60c8856001846117279190613909565b60ff16600a811061173b5761173a61377f565b5b60200201518260ff16600a81106117555761175461377f565b5b602002015160ff16146117bb57846001836117709190613909565b60ff16600a81106117845761178361377f565b5b60200201518160ff16600a811061179e5761179d61377f565b5b6020020180518091906117b0906137dd565b60ff1660ff16815250505b60c8856001846117cb9190613806565b60ff16600a81106117df576117de61377f565b5b60200201518260ff16600a81106117f9576117f861377f565b5b602002015160ff161461185f57846001836118149190613806565b60ff16600a81106118285761182761377f565b5b60200201518160ff16600a81106118425761184161377f565b5b602002018051809190611854906137dd565b60ff1660ff16815250505b60c88560018461186f9190613909565b60ff16600a81106118835761188261377f565b5b60200201516001836118959190613806565b60ff16600a81106118a9576118a861377f565b5b602002015160ff161461191b57846001836118c49190613909565b60ff16600a81106118d8576118d761377f565b5b60200201516001826118ea9190613806565b60ff16600a81106118fe576118fd61377f565b5b602002018051809190611910906137dd565b60ff1660ff16815250505b60c88560018461192b9190613806565b60ff16600a811061193f5761193e61377f565b5b60200201516001836119519190613806565b60ff16600a81106119655761196461377f565b5b602002015160ff16146119d757846001836119809190613806565b60ff16600a81106119945761199361377f565b5b60200201516001826119a69190613806565b60ff16600a81106119ba576119b961377f565b5b6020020180518091906119cc906137dd565b60ff1660ff16815250505b5050506129c8565b60098260ff1603611d565760c8856001846119fa9190613909565b60ff16600a8110611a0e57611a0d61377f565b5b60200201518260ff16600a8110611a2857611a2761377f565b5b602002015160ff1614611a8e5784600183611a439190613909565b60ff16600a8110611a5757611a5661377f565b5b60200201518160ff16600a8110611a7157611a7061377f565b5b602002018051809190611a83906137dd565b60ff1660ff16815250505b60c8858360ff16600a8110611aa657611aa561377f565b5b6020020151600183611ab89190613909565b60ff16600a8110611acc57611acb61377f565b5b602002015160ff1614611b3257848260ff16600a8110611aef57611aee61377f565b5b6020020151600182611b019190613909565b60ff16600a8110611b1557611b1461377f565b5b602002018051809190611b27906137dd565b60ff1660ff16815250505b60c8858360ff16600a8110611b4a57611b4961377f565b5b6020020151600183611b5c9190613806565b60ff16600a8110611b7057611b6f61377f565b5b602002015160ff1614611bd657848260ff16600a8110611b9357611b9261377f565b5b6020020151600182611ba59190613806565b60ff16600a8110611bb957611bb861377f565b5b602002018051809190611bcb906137dd565b60ff1660ff16815250505b60c885600184611be69190613909565b60ff16600a8110611bfa57611bf961377f565b5b6020020151600183611c0c9190613909565b60ff16600a8110611c2057611c1f61377f565b5b602002015160ff1614611c925784600183611c3b9190613909565b60ff16600a8110611c4f57611c4e61377f565b5b6020020151600182611c619190613909565b60ff16600a8110611c7557611c7461377f565b5b602002018051809190611c87906137dd565b60ff1660ff16815250505b60c885600184611ca29190613909565b60ff16600a8110611cb657611cb561377f565b5b6020020151600183611cc89190613806565b60ff16600a8110611cdc57611cdb61377f565b5b602002015160ff1614611d4e5784600183611cf79190613909565b60ff16600a8110611d0b57611d0a61377f565b5b6020020151600182611d1d9190613806565b60ff16600a8110611d3157611d3061377f565b5b602002018051809190611d43906137dd565b60ff1660ff16815250505b5050506129c8565b60098160ff16036120cd5760c8858360ff16600a8110611d7957611d7861377f565b5b6020020151600183611d8b9190613909565b60ff16600a8110611d9f57611d9e61377f565b5b602002015160ff1614611e0557848260ff16600a8110611dc257611dc161377f565b5b6020020151600182611dd49190613909565b60ff16600a8110611de857611de761377f565b5b602002018051809190611dfa906137dd565b60ff1660ff16815250505b60c885600184611e159190613909565b60ff16600a8110611e2957611e2861377f565b5b60200201518260ff16600a8110611e4357611e4261377f565b5b602002015160ff1614611ea95784600183611e5e9190613909565b60ff16600a8110611e7257611e7161377f565b5b60200201518160ff16600a8110611e8c57611e8b61377f565b5b602002018051809190611e9e906137dd565b60ff1660ff16815250505b60c885600184611eb99190613806565b60ff16600a8110611ecd57611ecc61377f565b5b60200201518260ff16600a8110611ee757611ee661377f565b5b602002015160ff1614611f4d5784600183611f029190613806565b60ff16600a8110611f1657611f1561377f565b5b60200201518160ff16600a8110611f3057611f2f61377f565b5b602002018051809190611f42906137dd565b60ff1660ff16815250505b60c885600184611f5d9190613909565b60ff16600a8110611f7157611f7061377f565b5b6020020151600183611f839190613909565b60ff16600a8110611f9757611f9661377f565b5b602002015160ff16146120095784600183611fb29190613909565b60ff16600a8110611fc657611fc561377f565b5b6020020151600182611fd89190613909565b60ff16600a8110611fec57611feb61377f565b5b602002018051809190611ffe906137dd565b60ff1660ff16815250505b60c8856001846120199190613806565b60ff16600a811061202d5761202c61377f565b5b602002015160018361203f9190613909565b60ff16600a81106120535761205261377f565b5b602002015160ff16146120c5578460018361206e9190613806565b60ff16600a81106120825761208161377f565b5b60200201516001826120949190613909565b60ff16600a81106120a8576120a761377f565b5b6020020180518091906120ba906137dd565b60ff1660ff16815250505b5050506129c8565b60008260ff16036124445760c8856001846120e89190613806565b60ff16600a81106120fc576120fb61377f565b5b60200201518260ff16600a81106121165761211561377f565b5b602002015160ff161461217c57846001836121319190613806565b60ff16600a81106121455761214461377f565b5b60200201518160ff16600a811061215f5761215e61377f565b5b602002018051809190612171906137dd565b60ff1660ff16815250505b60c8858360ff16600a81106121945761219361377f565b5b60200201516001836121a69190613909565b60ff16600a81106121ba576121b961377f565b5b602002015160ff161461222057848260ff16600a81106121dd576121dc61377f565b5b60200201516001826121ef9190613909565b60ff16600a81106122035761220261377f565b5b602002018051809190612215906137dd565b60ff1660ff16815250505b60c8858360ff16600a81106122385761223761377f565b5b602002015160018361224a9190613806565b60ff16600a811061225e5761225d61377f565b5b602002015160ff16146122c457848260ff16600a81106122815761228061377f565b5b60200201516001826122939190613806565b60ff16600a81106122a7576122a661377f565b5b6020020180518091906122b9906137dd565b60ff1660ff16815250505b60c8856001846122d49190613806565b60ff16600a81106122e8576122e761377f565b5b60200201516001836122fa9190613909565b60ff16600a811061230e5761230d61377f565b5b602002015160ff161461238057846001836123299190613806565b60ff16600a811061233d5761233c61377f565b5b602002015160018261234f9190613909565b60ff16600a81106123635761236261377f565b5b602002018051809190612375906137dd565b60ff1660ff16815250505b60c8856001846123909190613806565b60ff16600a81106123a4576123a361377f565b5b60200201516001836123b69190613806565b60ff16600a81106123ca576123c961377f565b5b602002015160ff161461243c57846001836123e59190613806565b60ff16600a81106123f9576123f861377f565b5b602002015160018261240b9190613806565b60ff16600a811061241f5761241e61377f565b5b602002018051809190612431906137dd565b60ff1660ff16815250505b5050506129c8565b60c8856001846124549190613806565b60ff16600a81106124685761246761377f565b5b60200201518260ff16600a81106124825761248161377f565b5b602002015160ff16146124e8578460018361249d9190613806565b60ff16600a81106124b1576124b061377f565b5b60200201518160ff16600a81106124cb576124ca61377f565b5b6020020180518091906124dd906137dd565b60ff1660ff16815250505b60c8856001846124f89190613806565b60ff16600a811061250c5761250b61377f565b5b602002015160018361251e9190613806565b60ff16600a81106125325761253161377f565b5b602002015160ff16146125a4578460018361254d9190613806565b60ff16600a81106125615761256061377f565b5b60200201516001826125739190613806565b60ff16600a81106125875761258661377f565b5b602002018051809190612599906137dd565b60ff1660ff16815250505b60c8856001846125b49190613806565b60ff16600a81106125c8576125c761377f565b5b60200201516001836125da9190613909565b60ff16600a81106125ee576125ed61377f565b5b602002015160ff161461266057846001836126099190613806565b60ff16600a811061261d5761261c61377f565b5b602002015160018261262f9190613909565b60ff16600a81106126435761264261377f565b5b602002018051809190612655906137dd565b60ff1660ff16815250505b60c8856001846126709190613909565b60ff16600a81106126845761268361377f565b5b60200201518260ff16600a811061269e5761269d61377f565b5b602002015160ff161461270457846001836126b99190613909565b60ff16600a81106126cd576126cc61377f565b5b60200201518160ff16600a81106126e7576126e661377f565b5b6020020180518091906126f9906137dd565b60ff1660ff16815250505b60c8856001846127149190613909565b60ff16600a81106127285761272761377f565b5b602002015160018361273a9190613806565b60ff16600a811061274e5761274d61377f565b5b602002015160ff16146127c057846001836127699190613909565b60ff16600a811061277d5761277c61377f565b5b602002015160018261278f9190613806565b60ff16600a81106127a3576127a261377f565b5b6020020180518091906127b5906137dd565b60ff1660ff16815250505b60c8856001846127d09190613909565b60ff16600a81106127e4576127e361377f565b5b60200201516001836127f69190613909565b60ff16600a811061280a5761280961377f565b5b602002015160ff161461287c57846001836128259190613909565b60ff16600a81106128395761283861377f565b5b602002015160018261284b9190613909565b60ff16600a811061285f5761285e61377f565b5b602002018051809190612871906137dd565b60ff1660ff16815250505b60c8858360ff16600a81106128945761289361377f565b5b60200201516001836128a69190613909565b60ff16600a81106128ba576128b961377f565b5b602002015160ff161461292057848260ff16600a81106128dd576128dc61377f565b5b60200201516001826128ef9190613909565b60ff16600a81106129035761290261377f565b5b602002018051809190612915906137dd565b60ff1660ff16815250505b60c8858360ff16600a81106129385761293761377f565b5b602002015160018361294a9190613806565b60ff16600a811061295e5761295d61377f565b5b602002015160ff16146129c457848260ff16600a81106129815761298061377f565b5b60200201516001826129939190613806565b60ff16600a81106129a7576129a661377f565b5b6020020180518091906129b9906137dd565b60ff1660ff16815250505b5050505b80806129d3906137dd565b915050610cf7565b50806000803373ffffffffffffffffffffffffffffffffffffffff1673ffffffffffffffffffffffffffffffffffffffff16815260200190815260200160002090600a612a299291906131bf565b5060c891505090565b600060018060003373ffffffffffffffffffffffffffffffffffffffff1673ffffffffffffffffffffffffffffffffffffffff16815260200190815260200160002060009054906101000a900460ff1660ff1614612ac5576040517f08c379a0000000000000000000000000000000000000000000000000000000008152600401612abc90613c70565b60405180910390fd5b612acd612ccf565b604051602001612add9190613d01565b6040516020818303038152906040528051906020012082604051602001612b049190613d01565b6040516020818303038152906040528051906020012014612b81576000600160003373ffffffffffffffffffffffffffffffffffffffff1673ffffffffffffffffffffffffffffffffffffffff16815260200190815260200160002060006101000a81548160ff021916908360ff16021790555060cc9050612c6c565b600260009054906101000a900473ffffffffffffffffffffffffffffffffffffffff1673ffffffffffffffffffffffffffffffffffffffff166340d097c3336040518263ffffffff1660e01b8152600401612bdc9190613d39565b600060405180830381600087803b158015612bf657600080fd5b505af1158015612c0a573d6000803e3d6000fd5b505050506002600160003373ffffffffffffffffffffffffffffffffffffffff1673ffffffffffffffffffffffffffffffffffffffff16815260200190815260200160002060006101000a81548160ff021916908360ff16021790555060c890505b919050565b600080606433600354604051602001612c8b929190613dc7565b6040516020818303038152906040528051906020012060001c612cae9190613df3565b905060036000815480929190612cc390613e24565b91905055508091505090565b60608060008060003373ffffffffffffffffffffffffffffffffffffffff1673ffffffffffffffffffffffffffffffffffffffff168152602001908152602001600020600a80602002604051908101604052809291906000905b82821015612da557838201600a806020026040519081016040528092919082600a8015612d91576020028201916000905b82829054906101000a900460ff1660ff1681526020019060010190602082600001049283019260010382029150808411612d5a5790505b505050505081526020019060010190612d29565b50505050905060006001905060005b600a8160ff161015612ef25760005b600a8160ff161015612ede5760c8848360ff16600a8110612de757612de661377f565b5b60200201518260ff16600a8110612e0157612e0061377f565b5b602002015160ff1603612ecb578215612e6157612e3781600a84612e25919061383b565b612e2f9190613806565b60ff16612efc565b604051602001612e479190613d01565b604051602081830303815290604052945060009250612eca565b84604051602001612e729190613eff565b604051602081830303815290604052945084612ea782600a85612e95919061383b565b612e9f9190613806565b60ff16612efc565b604051602001612eb8929190613f21565b60405160208183030381529060405294505b5b8080612ed6906137dd565b915050612dc3565b508080612eea906137dd565b915050612db4565b5082935050505090565b606060006001612f0b84612fca565b01905060008167ffffffffffffffff811115612f2a57612f29613568565b5b6040519080825280601f01601f191660200182016040528015612f5c5781602001600182028036833780820191505090505b509050600082602001820190505b600115612fbf578080600190039150507f3031323334353637383961626364656600000000000000000000000000000000600a86061a8153600a8581612fb357612fb2613878565b5b04945060008503612f6a575b819350505050919050565b600080600090507a184f03e93ff9f4daa797ed6e38ed64bf6a1f0100000000000000008310613028577a184f03e93ff9f4daa797ed6e38ed64bf6a1f010000000000000000838161301e5761301d613878565b5b0492506040810190505b6d04ee2d6d415b85acef81000000008310613065576d04ee2d6d415b85acef8100000000838161305b5761305a613878565b5b0492506020810190505b662386f26fc10000831061309457662386f26fc10000838161308a57613089613878565b5b0492506010810190505b6305f5e10083106130bd576305f5e10083816130b3576130b2613878565b5b0492506008810190505b61271083106130e25761271083816130d8576130d7613878565b5b0492506004810190505b6064831061310557606483816130fb576130fa613878565b5b0492506002810190505b600a8310613114576001810190505b80915050919050565b60405180610c800160405280606490602082028036833780820191505090505090565b60405180610a000160405280605090602082028036833780820191505090505090565b604051806101800160405280600c905b61317b61320d565b8152602001906001900390816131735790505090565b604051806101400160405280600a905b6131a9613230565b8152602001906001900390816131a15790505090565b82600a81019282156131fc579160200282015b828111156131fb5782518290600a6131eb929190613253565b50916020019190600101906131d2565b5b50905061320991906132ed565b5090565b604051806101800160405280600c90602082028036833780820191505090505090565b604051806101400160405280600a90602082028036833780820191505090505090565b82600a601f016020900481019282156132dc5791602002820160005b838211156132ad57835183826101000a81548160ff021916908360ff160217905550926020019260010160208160000104928301926001030261326f565b80156132da5782816101000a81549060ff02191690556001016020816000010492830192600103026132ad565b505b5090506132e99190613311565b5090565b5b8082111561330d5760008181613304919061332e565b506001016132ee565b5090565b5b8082111561332a576000816000905550600101613312565b5090565b5060009055565b6000604051905090565b600080fd5b600080fd5b600060ff82169050919050565b61335f81613349565b811461336a57600080fd5b50565b60008135905061337c81613356565b92915050565b600080604083850312156133995761339861333f565b5b60006133a78582860161336d565b92505060206133b88582860161336d565b9150509250929050565b600060649050919050565b600081905092915050565b6000819050919050565b6133eb81613349565b82525050565b60006133fd83836133e2565b60208301905092915050565b6000602082019050919050565b61341f816133c2565b61342981846133cd565b9250613434826133d8565b8060005b8381101561346557815161344c87826133f1565b965061345783613409565b925050600181019050613438565b505050505050565b6000610c80820190506134836000830184613416565b92915050565b61349281613349565b82525050565b60006020820190506134ad6000830184613489565b92915050565b600073ffffffffffffffffffffffffffffffffffffffff82169050919050565b6000819050919050565b60006134f86134f36134ee846134b3565b6134d3565b6134b3565b9050919050565b600061350a826134dd565b9050919050565b600061351c826134ff565b9050919050565b61352c81613511565b82525050565b60006020820190506135476000830184613523565b92915050565b600080fd5b600080fd5b6000601f19601f8301169050919050565b7f4e487b7100000000000000000000000000000000000000000000000000000000600052604160045260246000fd5b6135a082613557565b810181811067ffffffffffffffff821117156135bf576135be613568565b5b80604052505050565b60006135d2613335565b90506135de8282613597565b919050565b600067ffffffffffffffff8211156135fe576135fd613568565b5b61360782613557565b9050602081019050919050565b82818337600083830152505050565b6000613636613631846135e3565b6135c8565b90508281526020810184848401111561365257613651613552565b5b61365d848285613614565b509392505050565b600082601f83011261367a5761367961354d565b5b813561368a848260208601613623565b91505092915050565b6000602082840312156136a9576136a861333f565b5b600082013567ffffffffffffffff8111156136c7576136c6613344565b5b6136d384828501613665565b91505092915050565b600082825260208201905092915050565b7f476f696e67206265796f6e642074686520626f756e646172696573206f66207460008201527f686520706c6179696e67206669656c6421000000000000000000000000000000602082015250565b60006137496031836136dc565b9150613754826136ed565b604082019050919050565b600060208201905081810360008301526137788161373c565b9050919050565b7f4e487b7100000000000000000000000000000000000000000000000000000000600052603260045260246000fd5b7f4e487b7100000000000000000000000000000000000000000000000000000000600052601160045260246000fd5b60006137e882613349565b915060ff82036137fb576137fa6137ae565b5b600182019050919050565b600061381182613349565b915061381c83613349565b9250828201905060ff811115613835576138346137ae565b5b92915050565b600061384682613349565b915061385183613349565b925082820261385f81613349565b9150808214613871576138706137ae565b5b5092915050565b7f4e487b7100000000000000000000000000000000000000000000000000000000600052601260045260246000fd5b60006138b282613349565b91506138bd83613349565b9250826138cd576138cc613878565b5b828204905092915050565b60006138e382613349565b91506138ee83613349565b9250826138fe576138fd613878565b5b828206905092915050565b600061391482613349565b915061391f83613349565b9250828203905060ff811115613938576139376137ae565b5b92915050565b7f546f206578706c6f6465206f6e206120626f6d622c20796f75206d757374206860008201527f6176652074686520737461747573206f662067616d6520312c20696620796f7560208201527f206861766520636f6d706c65746564207468652067616d652c207468656e207960408201527f6f752077696c6c206e6f742062652061626c6520746f2061637469766174652060608201527f74686520626f6d62206569746865722100000000000000000000000000000000608082015250565b6000613a0c6090836136dc565b9150613a178261393e565b60a082019050919050565b60006020820190508181036000830152613a3b816139ff565b9050919050565b7f596f752063616e6e6f7420636f6d706c657465207468652067616d652062656360008201527f6175736520746869732063656c6c206973206e6f74206120626f6d62203b2900602082015250565b6000613a9e603f836136dc565b9150613aa982613a42565b604082019050919050565b60006020820190508181036000830152613acd81613a91565b9050919050565b7f416674657220636f6d706c6574696e67207468652067616d652c20697420697360008201527f20696d706f737369626c6520746f20636f6d706c657465207468652067616d6560208201527f20616761696e2100000000000000000000000000000000000000000000000000604082015250565b6000613b566047836136dc565b9150613b6182613ad4565b606082019050919050565b60006020820190508181036000830152613b8581613b49565b9050919050565b7f546f2066696e697368207468652067616d652c20796f75206e65656420746f2060008201527f73746172742069742c20616e6420696620796f75206861766520616c7265616460208201527f7920726563656976656420612063657274696669636174652c207468656e207960408201527f6f752063616e6e6f74206765742074686520326e64206365727469666963617460608201527f6521000000000000000000000000000000000000000000000000000000000000608082015250565b6000613c5a6082836136dc565b9150613c6582613b8c565b60a082019050919050565b60006020820190508181036000830152613c8981613c4d565b9050919050565b600081519050919050565b600081905092915050565b60005b83811015613cc4578082015181840152602081019050613ca9565b60008484015250505050565b6000613cdb82613c90565b613ce58185613c9b565b9350613cf5818560208601613ca6565b80840191505092915050565b6000613d0d8284613cd0565b915081905092915050565b6000613d23826134b3565b9050919050565b613d3381613d18565b82525050565b6000602082019050613d4e6000830184613d2a565b92915050565b60008160601b9050919050565b6000613d6c82613d54565b9050919050565b6000613d7e82613d61565b9050919050565b613d96613d9182613d18565b613d73565b82525050565b6000819050919050565b6000819050919050565b613dc1613dbc82613d9c565b613da6565b82525050565b6000613dd38285613d85565b601482019150613de38284613db0565b6020820191508190509392505050565b6000613dfe82613d9c565b9150613e0983613d9c565b925082613e1957613e18613878565b5b828206905092915050565b6000613e2f82613d9c565b91507fffffffffffffffffffffffffffffffffffffffffffffffffffffffffffffffff8203613e6157613e606137ae565b5b600182019050919050565b600081519050919050565b600081905092915050565b6000613e8d82613e6c565b613e978185613e77565b9350613ea7818560208601613ca6565b80840191505092915050565b7f5f00000000000000000000000000000000000000000000000000000000000000600082015250565b6000613ee9600183613c9b565b9150613ef482613eb3565b600182019050919050565b6000613f0b8284613e82565b9150613f1682613edc565b915081905092915050565b6000613f2d8285613e82565b9150613f398284613cd0565b9150819050939250505056fea2646970667358221220cdeb011c5cd9a01080e90b0420e854c46c8ab063679fc7f95b7191858a41e3db64736f6c63430008140033","opcodes":"PUSH1 0x80 PUSH1 0x40 MSTORE PUSH1 0xC PUSH1 0x2 PUSH1 0x14 PUSH2 0x100 EXP DUP2 SLOAD DUP2 PUSH1 0xFF MUL NOT AND SWAP1 DUP4 PUSH1 0xFF AND MUL OR SWAP1 SSTORE POP CALLVALUE DUP1 ISZERO PUSH3 0x2D JUMPI PUSH1 0x0 DUP1 REVERT JUMPDEST POP PUSH1 0x40 MLOAD PUSH3 0x40C2 CODESIZE SUB DUP1 PUSH3 0x40C2 DUP4 CODECOPY DUP2 DUP2 ADD PUSH1 0x40 MSTORE DUP2 ADD SWAP1 PUSH3 0x53 SWAP2 SWAP1 PUSH3 0x105 JUMP JUMPDEST DUP1 PUSH1 0x2 PUSH1 0x0 PUSH2 0x100 EXP DUP2 SLOAD DUP2 PUSH20 0xFFFFFFFFFFFFFFFFFFFFFFFFFFFFFFFFFFFFFFFF MUL NOT AND SWAP1 DUP4 PUSH20 0xFFFFFFFFFFFFFFFFFFFFFFFFFFFFFFFFFFFFFFFF AND MUL OR SWAP1 SSTORE POP POP PUSH3 0x137 JUMP JUMPDEST PUSH1 0x0 DUP1 REVERT JUMPDEST PUSH1 0x0 PUSH20 0xFFFFFFFFFFFFFFFFFFFFFFFFFFFFFFFFFFFFFFFF DUP3 AND SWAP1 POP SWAP2 SWAP1 POP JUMP JUMPDEST PUSH1 0x0 PUSH3 0xCD DUP3 PUSH3 0xA0 JUMP JUMPDEST SWAP1 POP SWAP2 SWAP1 POP JUMP JUMPDEST PUSH3 0xDF DUP2 PUSH3 0xC0 JUMP JUMPDEST DUP2 EQ PUSH3 0xEB JUMPI PUSH1 0x0 DUP1 REVERT JUMPDEST POP JUMP JUMPDEST PUSH1 0x0 DUP2 MLOAD SWAP1 POP PUSH3 0xFF DUP2 PUSH3 0xD4 JUMP JUMPDEST SWAP3 SWAP2 POP POP JUMP JUMPDEST PUSH1 0x0 PUSH1 0x20 DUP3 DUP5 SUB SLT ISZERO PUSH3 0x11E JUMPI PUSH3 0x11D PUSH3 0x9B JUMP JUMPDEST JUMPDEST PUSH1 0x0 PUSH3 0x12E DUP5 DUP3 DUP6 ADD PUSH3 0xEE JUMP JUMPDEST SWAP2 POP POP SWAP3 SWAP2 POP POP JUMP JUMPDEST PUSH2 0x3F7B DUP1 PUSH3 0x147 PUSH1 0x0 CODECOPY PUSH1 0x0 RETURN INVALID PUSH1 0x80 PUSH1 0x40 MSTORE CALLVALUE DUP1 ISZERO PUSH2 0x10 JUMPI PUSH1 0x0 DUP1 REVERT JUMPDEST POP PUSH1 0x4 CALLDATASIZE LT PUSH2 0x7D JUMPI PUSH1 0x0 CALLDATALOAD PUSH1 0xE0 SHR DUP1 PUSH4 0x50FF5B92 GT PUSH2 0x5B JUMPI DUP1 PUSH4 0x50FF5B92 EQ PUSH2 0x100 JUMPI DUP1 PUSH4 0x99F4B251 EQ PUSH2 0x11E JUMPI DUP1 PUSH4 0xD65AB5F2 EQ PUSH2 0x13C JUMPI DUP1 PUSH4 0xE9170C3B EQ PUSH2 0x15A JUMPI PUSH2 0x7D JUMP JUMPDEST DUP1 PUSH4 0x200D381 EQ PUSH2 0x82 JUMPI DUP1 PUSH4 0x17FC1963 EQ PUSH2 0xB2 JUMPI DUP1 PUSH4 0x28E38CFB EQ PUSH2 0xE2 JUMPI JUMPDEST PUSH1 0x0 DUP1 REVERT JUMPDEST PUSH2 0x9C PUSH1 0x4 DUP1 CALLDATASIZE SUB DUP2 ADD SWAP1 PUSH2 0x97 SWAP2 SWAP1 PUSH2 0x3382 JUMP JUMPDEST PUSH2 0x18A JUMP JUMPDEST PUSH1 0x40 MLOAD PUSH2 0xA9 SWAP2 SWAP1 PUSH2 0x346D JUMP JUMPDEST PUSH1 0x40 MLOAD DUP1 SWAP2 SUB SWAP1 RETURN JUMPDEST PUSH2 0xCC PUSH1 0x4 DUP1 CALLDATASIZE SUB DUP2 ADD SWAP1 PUSH2 0xC7 SWAP2 SWAP1 PUSH2 0x3382 JUMP JUMPDEST PUSH2 0x943 JUMP JUMPDEST PUSH1 0x40 MLOAD PUSH2 0xD9 SWAP2 SWAP1 PUSH2 0x3498 JUMP JUMPDEST PUSH1 0x40 MLOAD DUP1 SWAP2 SUB SWAP1 RETURN JUMPDEST PUSH2 0xEA PUSH2 0xB73 JUMP JUMPDEST PUSH1 0x40 MLOAD PUSH2 0xF7 SWAP2 SWAP1 PUSH2 0x3532 JUMP JUMPDEST PUSH1 0x40 MLOAD DUP1 SWAP2 SUB SWAP1 RETURN JUMPDEST PUSH2 0x108 PUSH2 0xB99 JUMP JUMPDEST PUSH1 0x40 MLOAD PUSH2 0x115 SWAP2 SWAP1 PUSH2 0x3498 JUMP JUMPDEST PUSH1 0x40 MLOAD DUP1 SWAP2 SUB SWAP1 RETURN JUMPDEST PUSH2 0x126 PUSH2 0xBED JUMP JUMPDEST PUSH1 0x40 MLOAD PUSH2 0x133 SWAP2 SWAP1 PUSH2 0x3498 JUMP JUMPDEST PUSH1 0x40 MLOAD DUP1 SWAP2 SUB SWAP1 RETURN JUMPDEST PUSH2 0x144 PUSH2 0xC00 JUMP JUMPDEST PUSH1 0x40 MLOAD PUSH2 0x151 SWAP2 SWAP1 PUSH2 0x3498 JUMP JUMPDEST PUSH1 0x40 MLOAD DUP1 SWAP2 SUB SWAP1 RETURN JUMPDEST PUSH2 0x174 PUSH1 0x4 DUP1 CALLDATASIZE SUB DUP2 ADD SWAP1 PUSH2 0x16F SWAP2 SWAP1 PUSH2 0x3693 JUMP JUMPDEST PUSH2 0x2A32 JUMP JUMPDEST PUSH1 0x40 MLOAD PUSH2 0x181 SWAP2 SWAP1 PUSH2 0x3498 JUMP JUMPDEST PUSH1 0x40 MLOAD DUP1 SWAP2 SUB SWAP1 RETURN JUMPDEST PUSH2 0x192 PUSH2 0x311D JUMP JUMPDEST PUSH1 0x0 DUP4 PUSH1 0xFF AND LT ISZERO DUP1 ISZERO PUSH2 0x1AA JUMPI POP PUSH1 0x9 DUP4 PUSH1 0xFF AND GT ISZERO JUMPDEST DUP1 ISZERO PUSH2 0x1BA JUMPI POP PUSH1 0x0 DUP3 PUSH1 0xFF AND LT ISZERO JUMPDEST DUP1 ISZERO PUSH2 0x1CA JUMPI POP PUSH1 0x9 DUP3 PUSH1 0xFF AND GT ISZERO JUMPDEST PUSH2 0x209 JUMPI PUSH1 0x40 MLOAD PUSH32 0x8C379A000000000000000000000000000000000000000000000000000000000 DUP2 MSTORE PUSH1 0x4 ADD PUSH2 0x200 SWAP1 PUSH2 0x375F JUMP JUMPDEST PUSH1 0x40 MLOAD DUP1 SWAP2 SUB SWAP1 REVERT JUMPDEST PUSH2 0x211 PUSH2 0x311D JUMP JUMPDEST PUSH1 0xC8 PUSH1 0x0 DUP1 CALLER PUSH20 0xFFFFFFFFFFFFFFFFFFFFFFFFFFFFFFFFFFFFFFFF AND PUSH20 0xFFFFFFFFFFFFFFFFFFFFFFFFFFFFFFFFFFFFFFFF AND DUP2 MSTORE PUSH1 0x20 ADD SWAP1 DUP2 MSTORE PUSH1 0x20 ADD PUSH1 0x0 KECCAK256 DUP6 PUSH1 0xFF AND PUSH1 0xA DUP2 LT PUSH2 0x266 JUMPI PUSH2 0x265 PUSH2 0x377F JUMP JUMPDEST JUMPDEST ADD DUP5 PUSH1 0xFF AND PUSH1 0xA DUP2 LT PUSH2 0x27C JUMPI PUSH2 0x27B PUSH2 0x377F JUMP JUMPDEST JUMPDEST PUSH1 0x20 SWAP2 DUP3 DUP3 DIV ADD SWAP2 SWAP1 MOD SWAP1 SLOAD SWAP1 PUSH2 0x100 EXP SWAP1 DIV PUSH1 0xFF AND PUSH1 0xFF AND SUB PUSH2 0x2EF JUMPI PUSH1 0x0 JUMPDEST PUSH1 0x64 DUP2 PUSH1 0xFF AND LT ISZERO PUSH2 0x2E5 JUMPI PUSH1 0xC8 DUP3 DUP3 PUSH1 0xFF AND PUSH1 0x64 DUP2 LT PUSH2 0x2C1 JUMPI PUSH2 0x2C0 PUSH2 0x377F JUMP JUMPDEST JUMPDEST PUSH1 0x20 MUL ADD SWAP1 PUSH1 0xFF AND SWAP1 DUP2 PUSH1 0xFF AND DUP2 MSTORE POP POP DUP1 DUP1 PUSH2 0x2DD SWAP1 PUSH2 0x37DD JUMP JUMPDEST SWAP2 POP POP PUSH2 0x29D JUMP JUMPDEST POP DUP1 SWAP2 POP POP PUSH2 0x93D JUMP JUMPDEST PUSH2 0x2F7 PUSH2 0x3140 JUMP JUMPDEST PUSH1 0x0 PUSH1 0x1 SWAP1 POP PUSH1 0x0 DUP1 PUSH1 0x0 CALLER PUSH20 0xFFFFFFFFFFFFFFFFFFFFFFFFFFFFFFFFFFFFFFFF AND PUSH20 0xFFFFFFFFFFFFFFFFFFFFFFFFFFFFFFFFFFFFFFFF AND DUP2 MSTORE PUSH1 0x20 ADD SWAP1 DUP2 MSTORE PUSH1 0x20 ADD PUSH1 0x0 KECCAK256 PUSH1 0xA DUP1 PUSH1 0x20 MUL PUSH1 0x40 MLOAD SWAP1 DUP2 ADD PUSH1 0x40 MSTORE DUP1 SWAP3 SWAP2 SWAP1 PUSH1 0x0 SWAP1 JUMPDEST DUP3 DUP3 LT ISZERO PUSH2 0x3D0 JUMPI DUP4 DUP3 ADD PUSH1 0xA DUP1 PUSH1 0x20 MUL PUSH1 0x40 MLOAD SWAP1 DUP2 ADD PUSH1 0x40 MSTORE DUP1 SWAP3 SWAP2 SWAP1 DUP3 PUSH1 0xA DUP1 ISZERO PUSH2 0x3BC JUMPI PUSH1 0x20 MUL DUP3 ADD SWAP2 PUSH1 0x0 SWAP1 JUMPDEST DUP3 DUP3 SWAP1 SLOAD SWAP1 PUSH2 0x100 EXP SWAP1 DIV PUSH1 0xFF AND PUSH1 0xFF AND DUP2 MSTORE PUSH1 0x20 ADD SWAP1 PUSH1 0x1 ADD SWAP1 PUSH1 0x20 DUP3 PUSH1 0x0 ADD DIV SWAP3 DUP4 ADD SWAP3 PUSH1 0x1 SUB DUP3 MUL SWAP2 POP DUP1 DUP5 GT PUSH2 0x385 JUMPI SWAP1 POP JUMPDEST POP POP POP POP POP DUP2 MSTORE PUSH1 0x20 ADD SWAP1 PUSH1 0x1 ADD SWAP1 PUSH2 0x354 JUMP JUMPDEST POP POP POP POP SWAP1 POP PUSH2 0x3DE PUSH2 0x3163 JUMP JUMPDEST PUSH1 0x0 JUMPDEST PUSH1 0xC DUP2 PUSH1 0xFF AND LT ISZERO PUSH2 0x504 JUMPI PUSH1 0xC9 DUP3 DUP3 PUSH1 0xFF AND PUSH1 0xC DUP2 LT PUSH2 0x405 JUMPI PUSH2 0x404 PUSH2 0x377F JUMP JUMPDEST JUMPDEST PUSH1 0x20 MUL ADD MLOAD PUSH1 0x0 PUSH1 0xC DUP2 LT PUSH2 0x41D JUMPI PUSH2 0x41C PUSH2 0x377F JUMP JUMPDEST JUMPDEST PUSH1 0x20 MUL ADD SWAP1 PUSH1 0xFF AND SWAP1 DUP2 PUSH1 0xFF AND DUP2 MSTORE POP POP PUSH1 0xC9 DUP3 DUP3 PUSH1 0xFF AND PUSH1 0xC DUP2 LT PUSH2 0x446 JUMPI PUSH2 0x445 PUSH2 0x377F JUMP JUMPDEST JUMPDEST PUSH1 0x20 MUL ADD MLOAD PUSH1 0xB PUSH1 0xC DUP2 LT PUSH2 0x45E JUMPI PUSH2 0x45D PUSH2 0x377F JUMP JUMPDEST JUMPDEST PUSH1 0x20 MUL ADD SWAP1 PUSH1 0xFF AND SWAP1 DUP2 PUSH1 0xFF AND DUP2 MSTORE POP POP PUSH1 0xC9 DUP3 PUSH1 0x0 PUSH1 0xC DUP2 LT PUSH2 0x485 JUMPI PUSH2 0x484 PUSH2 0x377F JUMP JUMPDEST JUMPDEST PUSH1 0x20 MUL ADD MLOAD DUP3 PUSH1 0xFF AND PUSH1 0xC DUP2 LT PUSH2 0x49F JUMPI PUSH2 0x49E PUSH2 0x377F JUMP JUMPDEST JUMPDEST PUSH1 0x20 MUL ADD SWAP1 PUSH1 0xFF AND SWAP1 DUP2 PUSH1 0xFF AND DUP2 MSTORE POP POP PUSH1 0xC9 DUP3 PUSH1 0xB PUSH1 0xC DUP2 LT PUSH2 0x4C6 JUMPI PUSH2 0x4C5 PUSH2 0x377F JUMP JUMPDEST JUMPDEST PUSH1 0x20 MUL ADD MLOAD DUP3 PUSH1 0xFF AND PUSH1 0xC DUP2 LT PUSH2 0x4E0 JUMPI PUSH2 0x4DF PUSH2 0x377F JUMP JUMPDEST JUMPDEST PUSH1 0x20 MUL ADD SWAP1 PUSH1 0xFF AND SWAP1 DUP2 PUSH1 0xFF AND DUP2 MSTORE POP POP DUP1 DUP1 PUSH2 0x4FC SWAP1 PUSH2 0x37DD JUMP JUMPDEST SWAP2 POP POP PUSH2 0x3E1 JUMP JUMPDEST POP PUSH1 0x1 DUP8 PUSH1 0xC PUSH1 0x1 DUP12 PUSH2 0x517 SWAP2 SWAP1 PUSH2 0x3806 JUMP JUMPDEST PUSH2 0x521 SWAP2 SWAP1 PUSH2 0x383B JUMP JUMPDEST PUSH2 0x52B SWAP2 SWAP1 PUSH2 0x3806 JUMP JUMPDEST PUSH2 0x535 SWAP2 SWAP1 PUSH2 0x3806 JUMP JUMPDEST DUP5 PUSH1 0x0 PUSH1 0x50 DUP2 LT PUSH2 0x549 JUMPI PUSH2 0x548 PUSH2 0x377F JUMP JUMPDEST JUMPDEST PUSH1 0x20 MUL ADD SWAP1 PUSH1 0xFF AND SWAP1 DUP2 PUSH1 0xFF AND DUP2 MSTORE POP POP PUSH1 0x0 DUP1 JUMPDEST PUSH1 0x0 DUP6 PUSH1 0xFF AND GT ISZERO PUSH2 0x932 JUMPI PUSH2 0x572 PUSH2 0x3140 JUMP JUMPDEST PUSH1 0x0 DUP1 JUMPDEST DUP8 PUSH1 0xFF AND DUP2 PUSH1 0xFF AND LT ISZERO PUSH2 0x924 JUMPI PUSH1 0xC DUP10 DUP3 PUSH1 0xFF AND PUSH1 0x50 DUP2 LT PUSH2 0x59C JUMPI PUSH2 0x59B PUSH2 0x377F JUMP JUMPDEST JUMPDEST PUSH1 0x20 MUL ADD MLOAD PUSH2 0x5AB SWAP2 SWAP1 PUSH2 0x38A7 JUMP JUMPDEST SWAP5 POP PUSH1 0xC DUP10 DUP3 PUSH1 0xFF AND PUSH1 0x50 DUP2 LT PUSH2 0x5C5 JUMPI PUSH2 0x5C4 PUSH2 0x377F JUMP JUMPDEST JUMPDEST PUSH1 0x20 MUL ADD MLOAD PUSH2 0x5D4 SWAP2 SWAP1 PUSH2 0x38D8 JUMP JUMPDEST SWAP4 POP PUSH1 0xC9 DUP7 DUP7 PUSH1 0xFF AND PUSH1 0xC DUP2 LT PUSH2 0x5EE JUMPI PUSH2 0x5ED PUSH2 0x377F JUMP JUMPDEST JUMPDEST PUSH1 0x20 MUL ADD MLOAD DUP6 PUSH1 0xFF AND PUSH1 0xC DUP2 LT PUSH2 0x608 JUMPI PUSH2 0x607 PUSH2 0x377F JUMP JUMPDEST JUMPDEST PUSH1 0x20 MUL ADD MLOAD PUSH1 0xFF AND SUB ISZERO PUSH2 0x911 JUMPI PUSH1 0xC9 DUP7 DUP7 PUSH1 0xFF AND PUSH1 0xC DUP2 LT PUSH2 0x62E JUMPI PUSH2 0x62D PUSH2 0x377F JUMP JUMPDEST JUMPDEST PUSH1 0x20 MUL ADD MLOAD DUP6 PUSH1 0xFF AND PUSH1 0xC DUP2 LT PUSH2 0x648 JUMPI PUSH2 0x647 PUSH2 0x377F JUMP JUMPDEST JUMPDEST PUSH1 0x20 MUL ADD SWAP1 PUSH1 0xFF AND SWAP1 DUP2 PUSH1 0xFF AND DUP2 MSTORE POP POP PUSH1 0x0 DUP8 PUSH1 0x1 DUP8 PUSH2 0x669 SWAP2 SWAP1 PUSH2 0x3909 JUMP JUMPDEST PUSH1 0xFF AND PUSH1 0xA DUP2 LT PUSH2 0x67D JUMPI PUSH2 0x67C PUSH2 0x377F JUMP JUMPDEST JUMPDEST PUSH1 0x20 MUL ADD MLOAD PUSH1 0x1 DUP7 PUSH2 0x68F SWAP2 SWAP1 PUSH2 0x3909 JUMP JUMPDEST PUSH1 0xFF AND PUSH1 0xA DUP2 LT PUSH2 0x6A3 JUMPI PUSH2 0x6A2 PUSH2 0x377F JUMP JUMPDEST JUMPDEST PUSH1 0x20 MUL ADD MLOAD PUSH1 0xFF AND SUB PUSH2 0x86C JUMPI DUP4 PUSH1 0xC PUSH1 0x1 DUP8 PUSH2 0x6C0 SWAP2 SWAP1 PUSH2 0x3909 JUMP JUMPDEST PUSH2 0x6CA SWAP2 SWAP1 PUSH2 0x383B JUMP JUMPDEST PUSH2 0x6D4 SWAP2 SWAP1 PUSH2 0x3806 JUMP JUMPDEST DUP4 DUP4 PUSH1 0xFF AND PUSH1 0x50 DUP2 LT PUSH2 0x6EA JUMPI PUSH2 0x6E9 PUSH2 0x377F JUMP JUMPDEST JUMPDEST PUSH1 0x20 MUL ADD SWAP1 PUSH1 0xFF AND SWAP1 DUP2 PUSH1 0xFF AND DUP2 MSTORE POP POP DUP4 PUSH1 0xC PUSH1 0x1 DUP8 PUSH2 0x70B SWAP2 SWAP1 PUSH2 0x3806 JUMP JUMPDEST PUSH2 0x715 SWAP2 SWAP1 PUSH2 0x383B JUMP JUMPDEST PUSH2 0x71F SWAP2 SWAP1 PUSH2 0x3806 JUMP JUMPDEST DUP4 PUSH1 0x1 DUP5 PUSH2 0x72D SWAP2 SWAP1 PUSH2 0x3806 JUMP JUMPDEST PUSH1 0xFF AND PUSH1 0x50 DUP2 LT PUSH2 0x741 JUMPI PUSH2 0x740 PUSH2 0x377F JUMP JUMPDEST JUMPDEST PUSH1 0x20 MUL ADD SWAP1 PUSH1 0xFF AND SWAP1 DUP2 PUSH1 0xFF AND DUP2 MSTORE POP POP PUSH1 0x1 DUP5 PUSH1 0xC DUP8 PUSH2 0x762 SWAP2 SWAP1 PUSH2 0x383B JUMP JUMPDEST PUSH2 0x76C SWAP2 SWAP1 PUSH2 0x3806 JUMP JUMPDEST PUSH2 0x776 SWAP2 SWAP1 PUSH2 0x3909 JUMP JUMPDEST DUP4 PUSH1 0x2 DUP5 PUSH2 0x784 SWAP2 SWAP1 PUSH2 0x3806 JUMP JUMPDEST PUSH1 0xFF AND PUSH1 0x50 DUP2 LT PUSH2 0x798 JUMPI PUSH2 0x797 PUSH2 0x377F JUMP JUMPDEST JUMPDEST PUSH1 0x20 MUL ADD SWAP1 PUSH1 0xFF AND SWAP1 DUP2 PUSH1 0xFF AND DUP2 MSTORE POP POP PUSH1 0x1 DUP5 PUSH1 0xC DUP8 PUSH2 0x7B9 SWAP2 SWAP1 PUSH2 0x383B JUMP JUMPDEST PUSH2 0x7C3 SWAP2 SWAP1 PUSH2 0x3806 JUMP JUMPDEST PUSH2 0x7CD SWAP2 SWAP1 PUSH2 0x3806 JUMP JUMPDEST DUP4 PUSH1 0x3 DUP5 PUSH2 0x7DB SWAP2 SWAP1 PUSH2 0x3806 JUMP JUMPDEST PUSH1 0xFF AND PUSH1 0x50 DUP2 LT PUSH2 0x7EF JUMPI PUSH2 0x7EE PUSH2 0x377F JUMP JUMPDEST JUMPDEST PUSH1 0x20 MUL ADD SWAP1 PUSH1 0xFF AND SWAP1 DUP2 PUSH1 0xFF AND DUP2 MSTORE POP POP PUSH1 0x4 DUP3 PUSH2 0x80D SWAP2 SWAP1 PUSH2 0x3806 JUMP JUMPDEST SWAP2 POP PUSH1 0x64 DUP11 PUSH1 0x1 DUP7 PUSH1 0xA PUSH1 0x1 DUP11 PUSH2 0x824 SWAP2 SWAP1 PUSH2 0x3909 JUMP JUMPDEST PUSH2 0x82E SWAP2 SWAP1 PUSH2 0x383B JUMP JUMPDEST PUSH2 0x838 SWAP2 SWAP1 PUSH2 0x3806 JUMP JUMPDEST PUSH2 0x842 SWAP2 SWAP1 PUSH2 0x3909 JUMP JUMPDEST PUSH1 0xFF AND PUSH1 0x64 DUP2 LT PUSH2 0x856 JUMPI PUSH2 0x855 PUSH2 0x377F JUMP JUMPDEST JUMPDEST PUSH1 0x20 MUL ADD SWAP1 PUSH1 0xFF AND SWAP1 DUP2 PUSH1 0xFF AND DUP2 MSTORE POP POP PUSH2 0x910 JUMP JUMPDEST DUP7 PUSH1 0x1 DUP7 PUSH2 0x87A SWAP2 SWAP1 PUSH2 0x3909 JUMP JUMPDEST PUSH1 0xFF AND PUSH1 0xA DUP2 LT PUSH2 0x88E JUMPI PUSH2 0x88D PUSH2 0x377F JUMP JUMPDEST JUMPDEST PUSH1 0x20 MUL ADD MLOAD PUSH1 0x1 DUP6 PUSH2 0x8A0 SWAP2 SWAP1 PUSH2 0x3909 JUMP JUMPDEST PUSH1 0xFF AND PUSH1 0xA DUP2 LT PUSH2 0x8B4 JUMPI PUSH2 0x8B3 PUSH2 0x377F JUMP JUMPDEST JUMPDEST PUSH1 0x20 MUL ADD MLOAD DUP11 PUSH1 0x1 DUP7 PUSH1 0xA PUSH1 0x1 DUP11 PUSH2 0x8CC SWAP2 SWAP1 PUSH2 0x3909 JUMP JUMPDEST PUSH2 0x8D6 SWAP2 SWAP1 PUSH2 0x383B JUMP JUMPDEST PUSH2 0x8E0 SWAP2 SWAP1 PUSH2 0x3806 JUMP JUMPDEST PUSH2 0x8EA SWAP2 SWAP1 PUSH2 0x3909 JUMP JUMPDEST PUSH1 0xFF AND PUSH1 0x64 DUP2 LT PUSH2 0x8FE JUMPI PUSH2 0x8FD PUSH2 0x377F JUMP JUMPDEST JUMPDEST PUSH1 0x20 MUL ADD SWAP1 PUSH1 0xFF AND SWAP1 DUP2 PUSH1 0xFF AND DUP2 MSTORE POP POP JUMPDEST JUMPDEST DUP1 DUP1 PUSH2 0x91C SWAP1 PUSH2 0x37DD JUMP JUMPDEST SWAP2 POP POP PUSH2 0x576 JUMP JUMPDEST POP DUP2 SWAP8 POP DUP1 SWAP7 POP POP POP PUSH2 0x55E JUMP JUMPDEST DUP7 SWAP8 POP POP POP POP POP POP POP POP JUMPDEST SWAP3 SWAP2 POP POP JUMP JUMPDEST PUSH1 0x0 DUP1 DUP4 PUSH1 0xFF AND LT ISZERO DUP1 ISZERO PUSH2 0x95C JUMPI POP PUSH1 0x9 DUP4 PUSH1 0xFF AND GT ISZERO JUMPDEST DUP1 ISZERO PUSH2 0x96C JUMPI POP PUSH1 0x0 DUP3 PUSH1 0xFF AND LT ISZERO JUMPDEST DUP1 ISZERO PUSH2 0x97C JUMPI POP PUSH1 0x9 DUP3 PUSH1 0xFF AND GT ISZERO JUMPDEST PUSH2 0x9BB JUMPI PUSH1 0x40 MLOAD PUSH32 0x8C379A000000000000000000000000000000000000000000000000000000000 DUP2 MSTORE PUSH1 0x4 ADD PUSH2 0x9B2 SWAP1 PUSH2 0x375F JUMP JUMPDEST PUSH1 0x40 MLOAD DUP1 SWAP2 SUB SWAP1 REVERT JUMPDEST PUSH1 0x1 DUP1 PUSH1 0x0 CALLER PUSH20 0xFFFFFFFFFFFFFFFFFFFFFFFFFFFFFFFFFFFFFFFF AND PUSH20 0xFFFFFFFFFFFFFFFFFFFFFFFFFFFFFFFFFFFFFFFF AND DUP2 MSTORE PUSH1 0x20 ADD SWAP1 DUP2 MSTORE PUSH1 0x20 ADD PUSH1 0x0 KECCAK256 PUSH1 0x0 SWAP1 SLOAD SWAP1 PUSH2 0x100 EXP SWAP1 DIV PUSH1 0xFF AND PUSH1 0xFF AND EQ PUSH2 0xA4C JUMPI PUSH1 0x40 MLOAD PUSH32 0x8C379A000000000000000000000000000000000000000000000000000000000 DUP2 MSTORE PUSH1 0x4 ADD PUSH2 0xA43 SWAP1 PUSH2 0x3A22 JUMP JUMPDEST PUSH1 0x40 MLOAD DUP1 SWAP2 SUB SWAP1 REVERT JUMPDEST PUSH1 0xC8 PUSH1 0x0 DUP1 CALLER PUSH20 0xFFFFFFFFFFFFFFFFFFFFFFFFFFFFFFFFFFFFFFFF AND PUSH20 0xFFFFFFFFFFFFFFFFFFFFFFFFFFFFFFFFFFFFFFFF AND DUP2 MSTORE PUSH1 0x20 ADD SWAP1 DUP2 MSTORE PUSH1 0x20 ADD PUSH1 0x0 KECCAK256 DUP5 PUSH1 0xFF AND PUSH1 0xA DUP2 LT PUSH2 0xAA1 JUMPI PUSH2 0xAA0 PUSH2 0x377F JUMP JUMPDEST JUMPDEST ADD DUP4 PUSH1 0xFF AND PUSH1 0xA DUP2 LT PUSH2 0xAB7 JUMPI PUSH2 0xAB6 PUSH2 0x377F JUMP JUMPDEST JUMPDEST PUSH1 0x20 SWAP2 DUP3 DUP3 DIV ADD SWAP2 SWAP1 MOD SWAP1 SLOAD SWAP1 PUSH2 0x100 EXP SWAP1 DIV PUSH1 0xFF AND PUSH1 0xFF AND EQ PUSH2 0xB10 JUMPI PUSH1 0x40 MLOAD PUSH32 0x8C379A000000000000000000000000000000000000000000000000000000000 DUP2 MSTORE PUSH1 0x4 ADD PUSH2 0xB07 SWAP1 PUSH2 0x3AB4 JUMP JUMPDEST PUSH1 0x40 MLOAD DUP1 SWAP2 SUB SWAP1 REVERT JUMPDEST PUSH1 0x0 PUSH1 0x1 PUSH1 0x0 CALLER PUSH20 0xFFFFFFFFFFFFFFFFFFFFFFFFFFFFFFFFFFFFFFFF AND PUSH20 0xFFFFFFFFFFFFFFFFFFFFFFFFFFFFFFFFFFFFFFFF AND DUP2 MSTORE PUSH1 0x20 ADD SWAP1 DUP2 MSTORE PUSH1 0x20 ADD PUSH1 0x0 KECCAK256 PUSH1 0x0 PUSH2 0x100 EXP DUP2 SLOAD DUP2 PUSH1 0xFF MUL NOT AND SWAP1 DUP4 PUSH1 0xFF AND MUL OR SWAP1 SSTORE POP PUSH1 0xC8 SWAP1 POP SWAP3 SWAP2 POP POP JUMP JUMPDEST PUSH1 0x2 PUSH1 0x0 SWAP1 SLOAD SWAP1 PUSH2 0x100 EXP SWAP1 DIV PUSH20 0xFFFFFFFFFFFFFFFFFFFFFFFFFFFFFFFFFFFFFFFF AND DUP2 JUMP JUMPDEST PUSH1 0x0 PUSH1 0x1 PUSH1 0x0 CALLER PUSH20 0xFFFFFFFFFFFFFFFFFFFFFFFFFFFFFFFFFFFFFFFF AND PUSH20 0xFFFFFFFFFFFFFFFFFFFFFFFFFFFFFFFFFFFFFFFF AND DUP2 MSTORE PUSH1 0x20 ADD SWAP1 DUP2 MSTORE PUSH1 0x20 ADD PUSH1 0x0 KECCAK256 PUSH1 0x0 SWAP1 SLOAD SWAP1 PUSH2 0x100 EXP SWAP1 DIV PUSH1 0xFF AND SWAP1 POP SWAP1 JUMP JUMPDEST PUSH1 0x2 PUSH1 0x14 SWAP1 SLOAD SWAP1 PUSH2 0x100 EXP SWAP1 DIV PUSH1 0xFF AND DUP2 JUMP JUMPDEST PUSH1 0x0 PUSH1 0x2 PUSH1 0x1 PUSH1 0x0 CALLER PUSH20 0xFFFFFFFFFFFFFFFFFFFFFFFFFFFFFFFFFFFFFFFF AND PUSH20 0xFFFFFFFFFFFFFFFFFFFFFFFFFFFFFFFFFFFFFFFF AND DUP2 MSTORE PUSH1 0x20 ADD SWAP1 DUP2 MSTORE PUSH1 0x20 ADD PUSH1 0x0 KECCAK256 PUSH1 0x0 SWAP1 SLOAD SWAP1 PUSH2 0x100 EXP SWAP1 DIV PUSH1 0xFF AND PUSH1 0xFF AND SUB PUSH2 0xC94 JUMPI PUSH1 0x40 MLOAD PUSH32 0x8C379A000000000000000000000000000000000000000000000000000000000 DUP2 MSTORE PUSH1 0x4 ADD PUSH2 0xC8B SWAP1 PUSH2 0x3B6C JUMP JUMPDEST PUSH1 0x40 MLOAD DUP1 SWAP2 SUB SWAP1 REVERT JUMPDEST PUSH1 0x1 DUP1 PUSH1 0x0 CALLER PUSH20 0xFFFFFFFFFFFFFFFFFFFFFFFFFFFFFFFFFFFFFFFF AND PUSH20 0xFFFFFFFFFFFFFFFFFFFFFFFFFFFFFFFFFFFFFFFF AND DUP2 MSTORE PUSH1 0x20 ADD SWAP1 DUP2 MSTORE PUSH1 0x20 ADD PUSH1 0x0 KECCAK256 PUSH1 0x0 PUSH2 0x100 EXP DUP2 SLOAD DUP2 PUSH1 0xFF MUL NOT AND SWAP1 DUP4 PUSH1 0xFF AND MUL OR SWAP1 SSTORE POP PUSH2 0xCF4 PUSH2 0x3191 JUMP JUMPDEST PUSH1 0x0 JUMPDEST PUSH1 0x2 PUSH1 0x14 SWAP1 SLOAD SWAP1 PUSH2 0x100 EXP SWAP1 DIV PUSH1 0xFF AND PUSH1 0xFF AND DUP2 PUSH1 0xFF AND LT ISZERO PUSH2 0x29DB JUMPI PUSH1 0x0 PUSH2 0xD1E PUSH2 0x2C71 JUMP JUMPDEST SWAP1 POP PUSH1 0x0 PUSH1 0xA DUP3 PUSH2 0xD2F SWAP2 SWAP1 PUSH2 0x38A7 JUMP JUMPDEST SWAP1 POP PUSH1 0x0 PUSH1 0xA DUP4 PUSH2 0xD40 SWAP2 SWAP1 PUSH2 0x38D8 JUMP JUMPDEST SWAP1 POP PUSH1 0xC8 DUP6 DUP4 PUSH1 0xFF AND PUSH1 0xA DUP2 LT PUSH2 0xD5A JUMPI PUSH2 0xD59 PUSH2 0x377F JUMP JUMPDEST JUMPDEST PUSH1 0x20 MUL ADD MLOAD DUP3 PUSH1 0xFF AND PUSH1 0xA DUP2 LT PUSH2 0xD74 JUMPI PUSH2 0xD73 PUSH2 0x377F JUMP JUMPDEST JUMPDEST PUSH1 0x20 MUL ADD MLOAD PUSH1 0xFF AND SUB PUSH2 0xD89 JUMPI POP POP POP PUSH2 0x29C8 JUMP JUMPDEST PUSH1 0xC8 DUP6 DUP4 PUSH1 0xFF AND PUSH1 0xA DUP2 LT PUSH2 0xDA1 JUMPI PUSH2 0xDA0 PUSH2 0x377F JUMP JUMPDEST JUMPDEST PUSH1 0x20 MUL ADD MLOAD DUP3 PUSH1 0xFF AND PUSH1 0xA DUP2 LT PUSH2 0xDBB JUMPI PUSH2 0xDBA PUSH2 0x377F JUMP JUMPDEST JUMPDEST PUSH1 0x20 MUL ADD SWAP1 PUSH1 0xFF AND SWAP1 DUP2 PUSH1 0xFF AND DUP2 MSTORE POP POP PUSH1 0x0 DUP3 PUSH1 0xFF AND EQ DUP1 ISZERO PUSH2 0xDE2 JUMPI POP PUSH1 0x0 DUP2 PUSH1 0xFF AND EQ JUMPDEST ISZERO PUSH2 0xFF3 JUMPI PUSH1 0xC8 DUP6 PUSH1 0x1 DUP5 PUSH2 0xDF7 SWAP2 SWAP1 PUSH2 0x3806 JUMP JUMPDEST PUSH1 0xFF AND PUSH1 0xA DUP2 LT PUSH2 0xE0B JUMPI PUSH2 0xE0A PUSH2 0x377F JUMP JUMPDEST JUMPDEST PUSH1 0x20 MUL ADD MLOAD DUP3 PUSH1 0xFF AND PUSH1 0xA DUP2 LT PUSH2 0xE25 JUMPI PUSH2 0xE24 PUSH2 0x377F JUMP JUMPDEST JUMPDEST PUSH1 0x20 MUL ADD MLOAD PUSH1 0xFF AND EQ PUSH2 0xE8B JUMPI DUP5 PUSH1 0x1 DUP4 PUSH2 0xE40 SWAP2 SWAP1 PUSH2 0x3806 JUMP JUMPDEST PUSH1 0xFF AND PUSH1 0xA DUP2 LT PUSH2 0xE54 JUMPI PUSH2 0xE53 PUSH2 0x377F JUMP JUMPDEST JUMPDEST PUSH1 0x20 MUL ADD MLOAD DUP2 PUSH1 0xFF AND PUSH1 0xA DUP2 LT PUSH2 0xE6E JUMPI PUSH2 0xE6D PUSH2 0x377F JUMP JUMPDEST JUMPDEST PUSH1 0x20 MUL ADD DUP1 MLOAD DUP1 SWAP2 SWAP1 PUSH2 0xE80 SWAP1 PUSH2 0x37DD JUMP JUMPDEST PUSH1 0xFF AND PUSH1 0xFF AND DUP2 MSTORE POP POP JUMPDEST PUSH1 0xC8 DUP6 DUP4 PUSH1 0xFF AND PUSH1 0xA DUP2 LT PUSH2 0xEA3 JUMPI PUSH2 0xEA2 PUSH2 0x377F JUMP JUMPDEST JUMPDEST PUSH1 0x20 MUL ADD MLOAD PUSH1 0x1 DUP4 PUSH2 0xEB5 SWAP2 SWAP1 PUSH2 0x3806 JUMP JUMPDEST PUSH1 0xFF AND PUSH1 0xA DUP2 LT PUSH2 0xEC9 JUMPI PUSH2 0xEC8 PUSH2 0x377F JUMP JUMPDEST JUMPDEST PUSH1 0x20 MUL ADD MLOAD PUSH1 0xFF AND EQ PUSH2 0xF2F JUMPI DUP5 DUP3 PUSH1 0xFF AND PUSH1 0xA DUP2 LT PUSH2 0xEEC JUMPI PUSH2 0xEEB PUSH2 0x377F JUMP JUMPDEST JUMPDEST PUSH1 0x20 MUL ADD MLOAD PUSH1 0x1 DUP3 PUSH2 0xEFE SWAP2 SWAP1 PUSH2 0x3806 JUMP JUMPDEST PUSH1 0xFF AND PUSH1 0xA DUP2 LT PUSH2 0xF12 JUMPI PUSH2 0xF11 PUSH2 0x377F JUMP JUMPDEST JUMPDEST PUSH1 0x20 MUL ADD DUP1 MLOAD DUP1 SWAP2 SWAP1 PUSH2 0xF24 SWAP1 PUSH2 0x37DD JUMP JUMPDEST PUSH1 0xFF AND PUSH1 0xFF AND DUP2 MSTORE POP POP JUMPDEST PUSH1 0xC8 DUP6 PUSH1 0x1 DUP5 PUSH2 0xF3F SWAP2 SWAP1 PUSH2 0x3806 JUMP JUMPDEST PUSH1 0xFF AND PUSH1 0xA DUP2 LT PUSH2 0xF53 JUMPI PUSH2 0xF52 PUSH2 0x377F JUMP JUMPDEST JUMPDEST PUSH1 0x20 MUL ADD MLOAD PUSH1 0x1 DUP4 PUSH2 0xF65 SWAP2 SWAP1 PUSH2 0x3806 JUMP JUMPDEST PUSH1 0xFF AND PUSH1 0xA DUP2 LT PUSH2 0xF79 JUMPI PUSH2 0xF78 PUSH2 0x377F JUMP JUMPDEST JUMPDEST PUSH1 0x20 MUL ADD MLOAD PUSH1 0xFF AND EQ PUSH2 0xFEB JUMPI DUP5 PUSH1 0x1 DUP4 PUSH2 0xF94 SWAP2 SWAP1 PUSH2 0x3806 JUMP JUMPDEST PUSH1 0xFF AND PUSH1 0xA DUP2 LT PUSH2 0xFA8 JUMPI PUSH2 0xFA7 PUSH2 0x377F JUMP JUMPDEST JUMPDEST PUSH1 0x20 MUL ADD MLOAD PUSH1 0x1 DUP3 PUSH2 0xFBA SWAP2 SWAP1 PUSH2 0x3806 JUMP JUMPDEST PUSH1 0xFF AND PUSH1 0xA DUP2 LT PUSH2 0xFCE JUMPI PUSH2 0xFCD PUSH2 0x377F JUMP JUMPDEST JUMPDEST PUSH1 0x20 MUL ADD DUP1 MLOAD DUP1 SWAP2 SWAP1 PUSH2 0xFE0 SWAP1 PUSH2 0x37DD JUMP JUMPDEST PUSH1 0xFF AND PUSH1 0xFF AND DUP2 MSTORE POP POP JUMPDEST POP POP POP PUSH2 0x29C8 JUMP JUMPDEST PUSH1 0x9 DUP3 PUSH1 0xFF AND EQ DUP1 ISZERO PUSH2 0x1009 JUMPI POP PUSH1 0x0 DUP2 PUSH1 0xFF AND EQ JUMPDEST ISZERO PUSH2 0x121A JUMPI PUSH1 0xC8 DUP6 PUSH1 0x1 DUP5 PUSH2 0x101E SWAP2 SWAP1 PUSH2 0x3909 JUMP JUMPDEST PUSH1 0xFF AND PUSH1 0xA DUP2 LT PUSH2 0x1032 JUMPI PUSH2 0x1031 PUSH2 0x377F JUMP JUMPDEST JUMPDEST PUSH1 0x20 MUL ADD MLOAD DUP3 PUSH1 0xFF AND PUSH1 0xA DUP2 LT PUSH2 0x104C JUMPI PUSH2 0x104B PUSH2 0x377F JUMP JUMPDEST JUMPDEST PUSH1 0x20 MUL ADD MLOAD PUSH1 0xFF AND EQ PUSH2 0x10B2 JUMPI DUP5 PUSH1 0x1 DUP4 PUSH2 0x1067 SWAP2 SWAP1 PUSH2 0x3909 JUMP JUMPDEST PUSH1 0xFF AND PUSH1 0xA DUP2 LT PUSH2 0x107B JUMPI PUSH2 0x107A PUSH2 0x377F JUMP JUMPDEST JUMPDEST PUSH1 0x20 MUL ADD MLOAD DUP2 PUSH1 0xFF AND PUSH1 0xA DUP2 LT PUSH2 0x1095 JUMPI PUSH2 0x1094 PUSH2 0x377F JUMP JUMPDEST JUMPDEST PUSH1 0x20 MUL ADD DUP1 MLOAD DUP1 SWAP2 SWAP1 PUSH2 0x10A7 SWAP1 PUSH2 0x37DD JUMP JUMPDEST PUSH1 0xFF AND PUSH1 0xFF AND DUP2 MSTORE POP POP JUMPDEST PUSH1 0xC8 DUP6 DUP4 PUSH1 0xFF AND PUSH1 0xA DUP2 LT PUSH2 0x10CA JUMPI PUSH2 0x10C9 PUSH2 0x377F JUMP JUMPDEST JUMPDEST PUSH1 0x20 MUL ADD MLOAD PUSH1 0x1 DUP4 PUSH2 0x10DC SWAP2 SWAP1 PUSH2 0x3806 JUMP JUMPDEST PUSH1 0xFF AND PUSH1 0xA DUP2 LT PUSH2 0x10F0 JUMPI PUSH2 0x10EF PUSH2 0x377F JUMP JUMPDEST JUMPDEST PUSH1 0x20 MUL ADD MLOAD PUSH1 0xFF AND EQ PUSH2 0x1156 JUMPI DUP5 DUP3 PUSH1 0xFF AND PUSH1 0xA DUP2 LT PUSH2 0x1113 JUMPI PUSH2 0x1112 PUSH2 0x377F JUMP JUMPDEST JUMPDEST PUSH1 0x20 MUL ADD MLOAD PUSH1 0x1 DUP3 PUSH2 0x1125 SWAP2 SWAP1 PUSH2 0x3806 JUMP JUMPDEST PUSH1 0xFF AND PUSH1 0xA DUP2 LT PUSH2 0x1139 JUMPI PUSH2 0x1138 PUSH2 0x377F JUMP JUMPDEST JUMPDEST PUSH1 0x20 MUL ADD DUP1 MLOAD DUP1 SWAP2 SWAP1 PUSH2 0x114B SWAP1 PUSH2 0x37DD JUMP JUMPDEST PUSH1 0xFF AND PUSH1 0xFF AND DUP2 MSTORE POP POP JUMPDEST PUSH1 0xC8 DUP6 PUSH1 0x1 DUP5 PUSH2 0x1166 SWAP2 SWAP1 PUSH2 0x3909 JUMP JUMPDEST PUSH1 0xFF AND PUSH1 0xA DUP2 LT PUSH2 0x117A JUMPI PUSH2 0x1179 PUSH2 0x377F JUMP JUMPDEST JUMPDEST PUSH1 0x20 MUL ADD MLOAD PUSH1 0x1 DUP4 PUSH2 0x118C SWAP2 SWAP1 PUSH2 0x3806 JUMP JUMPDEST PUSH1 0xFF AND PUSH1 0xA DUP2 LT PUSH2 0x11A0 JUMPI PUSH2 0x119F PUSH2 0x377F JUMP JUMPDEST JUMPDEST PUSH1 0x20 MUL ADD MLOAD PUSH1 0xFF AND EQ PUSH2 0x1212 JUMPI DUP5 PUSH1 0x1 DUP4 PUSH2 0x11BB SWAP2 SWAP1 PUSH2 0x3909 JUMP JUMPDEST PUSH1 0xFF AND PUSH1 0xA DUP2 LT PUSH2 0x11CF JUMPI PUSH2 0x11CE PUSH2 0x377F JUMP JUMPDEST JUMPDEST PUSH1 0x20 MUL ADD MLOAD PUSH1 0x1 DUP3 PUSH2 0x11E1 SWAP2 SWAP1 PUSH2 0x3806 JUMP JUMPDEST PUSH1 0xFF AND PUSH1 0xA DUP2 LT PUSH2 0x11F5 JUMPI PUSH2 0x11F4 PUSH2 0x377F JUMP JUMPDEST JUMPDEST PUSH1 0x20 MUL ADD DUP1 MLOAD DUP1 SWAP2 SWAP1 PUSH2 0x1207 SWAP1 PUSH2 0x37DD JUMP JUMPDEST PUSH1 0xFF AND PUSH1 0xFF AND DUP2 MSTORE POP POP JUMPDEST POP POP POP PUSH2 0x29C8 JUMP JUMPDEST PUSH1 0x0 DUP3 PUSH1 0xFF AND EQ DUP1 ISZERO PUSH2 0x1230 JUMPI POP PUSH1 0x9 DUP2 PUSH1 0xFF AND EQ JUMPDEST ISZERO PUSH2 0x1441 JUMPI PUSH1 0xC8 DUP6 PUSH1 0x1 DUP5 PUSH2 0x1245 SWAP2 SWAP1 PUSH2 0x3806 JUMP JUMPDEST PUSH1 0xFF AND PUSH1 0xA DUP2 LT PUSH2 0x1259 JUMPI PUSH2 0x1258 PUSH2 0x377F JUMP JUMPDEST JUMPDEST PUSH1 0x20 MUL ADD MLOAD DUP3 PUSH1 0xFF AND PUSH1 0xA DUP2 LT PUSH2 0x1273 JUMPI PUSH2 0x1272 PUSH2 0x377F JUMP JUMPDEST JUMPDEST PUSH1 0x20 MUL ADD MLOAD PUSH1 0xFF AND EQ PUSH2 0x12D9 JUMPI DUP5 PUSH1 0x1 DUP4 PUSH2 0x128E SWAP2 SWAP1 PUSH2 0x3806 JUMP JUMPDEST PUSH1 0xFF AND PUSH1 0xA DUP2 LT PUSH2 0x12A2 JUMPI PUSH2 0x12A1 PUSH2 0x377F JUMP JUMPDEST JUMPDEST PUSH1 0x20 MUL ADD MLOAD DUP2 PUSH1 0xFF AND PUSH1 0xA DUP2 LT PUSH2 0x12BC JUMPI PUSH2 0x12BB PUSH2 0x377F JUMP JUMPDEST JUMPDEST PUSH1 0x20 MUL ADD DUP1 MLOAD DUP1 SWAP2 SWAP1 PUSH2 0x12CE SWAP1 PUSH2 0x37DD JUMP JUMPDEST PUSH1 0xFF AND PUSH1 0xFF AND DUP2 MSTORE POP POP JUMPDEST PUSH1 0xC8 DUP6 DUP4 PUSH1 0xFF AND PUSH1 0xA DUP2 LT PUSH2 0x12F1 JUMPI PUSH2 0x12F0 PUSH2 0x377F JUMP JUMPDEST JUMPDEST PUSH1 0x20 MUL ADD MLOAD PUSH1 0x1 DUP4 PUSH2 0x1303 SWAP2 SWAP1 PUSH2 0x3909 JUMP JUMPDEST PUSH1 0xFF AND PUSH1 0xA DUP2 LT PUSH2 0x1317 JUMPI PUSH2 0x1316 PUSH2 0x377F JUMP JUMPDEST JUMPDEST PUSH1 0x20 MUL ADD MLOAD PUSH1 0xFF AND EQ PUSH2 0x137D JUMPI DUP5 DUP3 PUSH1 0xFF AND PUSH1 0xA DUP2 LT PUSH2 0x133A JUMPI PUSH2 0x1339 PUSH2 0x377F JUMP JUMPDEST JUMPDEST PUSH1 0x20 MUL ADD MLOAD PUSH1 0x1 DUP3 PUSH2 0x134C SWAP2 SWAP1 PUSH2 0x3909 JUMP JUMPDEST PUSH1 0xFF AND PUSH1 0xA DUP2 LT PUSH2 0x1360 JUMPI PUSH2 0x135F PUSH2 0x377F JUMP JUMPDEST JUMPDEST PUSH1 0x20 MUL ADD DUP1 MLOAD DUP1 SWAP2 SWAP1 PUSH2 0x1372 SWAP1 PUSH2 0x37DD JUMP JUMPDEST PUSH1 0xFF AND PUSH1 0xFF AND DUP2 MSTORE POP POP JUMPDEST PUSH1 0xC8 DUP6 PUSH1 0x1 DUP5 PUSH2 0x138D SWAP2 SWAP1 PUSH2 0x3806 JUMP JUMPDEST PUSH1 0xFF AND PUSH1 0xA DUP2 LT PUSH2 0x13A1 JUMPI PUSH2 0x13A0 PUSH2 0x377F JUMP JUMPDEST JUMPDEST PUSH1 0x20 MUL ADD MLOAD PUSH1 0x1 DUP4 PUSH2 0x13B3 SWAP2 SWAP1 PUSH2 0x3909 JUMP JUMPDEST PUSH1 0xFF AND PUSH1 0xA DUP2 LT PUSH2 0x13C7 JUMPI PUSH2 0x13C6 PUSH2 0x377F JUMP JUMPDEST JUMPDEST PUSH1 0x20 MUL ADD MLOAD PUSH1 0xFF AND EQ PUSH2 0x1439 JUMPI DUP5 PUSH1 0x1 DUP4 PUSH2 0x13E2 SWAP2 SWAP1 PUSH2 0x3806 JUMP JUMPDEST PUSH1 0xFF AND PUSH1 0xA DUP2 LT PUSH2 0x13F6 JUMPI PUSH2 0x13F5 PUSH2 0x377F JUMP JUMPDEST JUMPDEST PUSH1 0x20 MUL ADD MLOAD PUSH1 0x1 DUP3 PUSH2 0x1408 SWAP2 SWAP1 PUSH2 0x3909 JUMP JUMPDEST PUSH1 0xFF AND PUSH1 0xA DUP2 LT PUSH2 0x141C JUMPI PUSH2 0x141B PUSH2 0x377F JUMP JUMPDEST JUMPDEST PUSH1 0x20 MUL ADD DUP1 MLOAD DUP1 SWAP2 SWAP1 PUSH2 0x142E SWAP1 PUSH2 0x37DD JUMP JUMPDEST PUSH1 0xFF AND PUSH1 0xFF AND DUP2 MSTORE POP POP JUMPDEST POP POP POP PUSH2 0x29C8 JUMP JUMPDEST PUSH1 0x9 DUP3 PUSH1 0xFF AND EQ DUP1 ISZERO PUSH2 0x1457 JUMPI POP PUSH1 0x9 DUP2 PUSH1 0xFF AND EQ JUMPDEST ISZERO PUSH2 0x1668 JUMPI PUSH1 0xC8 DUP6 PUSH1 0x1 DUP5 PUSH2 0x146C SWAP2 SWAP1 PUSH2 0x3909 JUMP JUMPDEST PUSH1 0xFF AND PUSH1 0xA DUP2 LT PUSH2 0x1480 JUMPI PUSH2 0x147F PUSH2 0x377F JUMP JUMPDEST JUMPDEST PUSH1 0x20 MUL ADD MLOAD DUP3 PUSH1 0xFF AND PUSH1 0xA DUP2 LT PUSH2 0x149A JUMPI PUSH2 0x1499 PUSH2 0x377F JUMP JUMPDEST JUMPDEST PUSH1 0x20 MUL ADD MLOAD PUSH1 0xFF AND EQ PUSH2 0x1500 JUMPI DUP5 PUSH1 0x1 DUP4 PUSH2 0x14B5 SWAP2 SWAP1 PUSH2 0x3909 JUMP JUMPDEST PUSH1 0xFF AND PUSH1 0xA DUP2 LT PUSH2 0x14C9 JUMPI PUSH2 0x14C8 PUSH2 0x377F JUMP JUMPDEST JUMPDEST PUSH1 0x20 MUL ADD MLOAD DUP2 PUSH1 0xFF AND PUSH1 0xA DUP2 LT PUSH2 0x14E3 JUMPI PUSH2 0x14E2 PUSH2 0x377F JUMP JUMPDEST JUMPDEST PUSH1 0x20 MUL ADD DUP1 MLOAD DUP1 SWAP2 SWAP1 PUSH2 0x14F5 SWAP1 PUSH2 0x37DD JUMP JUMPDEST PUSH1 0xFF AND PUSH1 0xFF AND DUP2 MSTORE POP POP JUMPDEST PUSH1 0xC8 DUP6 DUP4 PUSH1 0xFF AND PUSH1 0xA DUP2 LT PUSH2 0x1518 JUMPI PUSH2 0x1517 PUSH2 0x377F JUMP JUMPDEST JUMPDEST PUSH1 0x20 MUL ADD MLOAD PUSH1 0x1 DUP4 PUSH2 0x152A SWAP2 SWAP1 PUSH2 0x3909 JUMP JUMPDEST PUSH1 0xFF AND PUSH1 0xA DUP2 LT PUSH2 0x153E JUMPI PUSH2 0x153D PUSH2 0x377F JUMP JUMPDEST JUMPDEST PUSH1 0x20 MUL ADD MLOAD PUSH1 0xFF AND EQ PUSH2 0x15A4 JUMPI DUP5 DUP3 PUSH1 0xFF AND PUSH1 0xA DUP2 LT PUSH2 0x1561 JUMPI PUSH2 0x1560 PUSH2 0x377F JUMP JUMPDEST JUMPDEST PUSH1 0x20 MUL ADD MLOAD PUSH1 0x1 DUP3 PUSH2 0x1573 SWAP2 SWAP1 PUSH2 0x3909 JUMP JUMPDEST PUSH1 0xFF AND PUSH1 0xA DUP2 LT PUSH2 0x1587 JUMPI PUSH2 0x1586 PUSH2 0x377F JUMP JUMPDEST JUMPDEST PUSH1 0x20 MUL ADD DUP1 MLOAD DUP1 SWAP2 SWAP1 PUSH2 0x1599 SWAP1 PUSH2 0x37DD JUMP JUMPDEST PUSH1 0xFF AND PUSH1 0xFF AND DUP2 MSTORE POP POP JUMPDEST PUSH1 0xC8 DUP6 PUSH1 0x1 DUP5 PUSH2 0x15B4 SWAP2 SWAP1 PUSH2 0x3909 JUMP JUMPDEST PUSH1 0xFF AND PUSH1 0xA DUP2 LT PUSH2 0x15C8 JUMPI PUSH2 0x15C7 PUSH2 0x377F JUMP JUMPDEST JUMPDEST PUSH1 0x20 MUL ADD MLOAD PUSH1 0x1 DUP4 PUSH2 0x15DA SWAP2 SWAP1 PUSH2 0x3909 JUMP JUMPDEST PUSH1 0xFF AND PUSH1 0xA DUP2 LT PUSH2 0x15EE JUMPI PUSH2 0x15ED PUSH2 0x377F JUMP JUMPDEST JUMPDEST PUSH1 0x20 MUL ADD MLOAD PUSH1 0xFF AND EQ PUSH2 0x1660 JUMPI DUP5 PUSH1 0x1 DUP4 PUSH2 0x1609 SWAP2 SWAP1 PUSH2 0x3909 JUMP JUMPDEST PUSH1 0xFF AND PUSH1 0xA DUP2 LT PUSH2 0x161D JUMPI PUSH2 0x161C PUSH2 0x377F JUMP JUMPDEST JUMPDEST PUSH1 0x20 MUL ADD MLOAD PUSH1 0x1 DUP3 PUSH2 0x162F SWAP2 SWAP1 PUSH2 0x3909 JUMP JUMPDEST PUSH1 0xFF AND PUSH1 0xA DUP2 LT PUSH2 0x1643 JUMPI PUSH2 0x1642 PUSH2 0x377F JUMP JUMPDEST JUMPDEST PUSH1 0x20 MUL ADD DUP1 MLOAD DUP1 SWAP2 SWAP1 PUSH2 0x1655 SWAP1 PUSH2 0x37DD JUMP JUMPDEST PUSH1 0xFF AND PUSH1 0xFF AND DUP2 MSTORE POP POP JUMPDEST POP POP POP PUSH2 0x29C8 JUMP JUMPDEST PUSH1 0x0 DUP2 PUSH1 0xFF AND SUB PUSH2 0x19DF JUMPI PUSH1 0xC8 DUP6 DUP4 PUSH1 0xFF AND PUSH1 0xA DUP2 LT PUSH2 0x168B JUMPI PUSH2 0x168A PUSH2 0x377F JUMP JUMPDEST JUMPDEST PUSH1 0x20 MUL ADD MLOAD PUSH1 0x1 DUP4 PUSH2 0x169D SWAP2 SWAP1 PUSH2 0x3806 JUMP JUMPDEST PUSH1 0xFF AND PUSH1 0xA DUP2 LT PUSH2 0x16B1 JUMPI PUSH2 0x16B0 PUSH2 0x377F JUMP JUMPDEST JUMPDEST PUSH1 0x20 MUL ADD MLOAD PUSH1 0xFF AND EQ PUSH2 0x1717 JUMPI DUP5 DUP3 PUSH1 0xFF AND PUSH1 0xA DUP2 LT PUSH2 0x16D4 JUMPI PUSH2 0x16D3 PUSH2 0x377F JUMP JUMPDEST JUMPDEST PUSH1 0x20 MUL ADD MLOAD PUSH1 0x1 DUP3 PUSH2 0x16E6 SWAP2 SWAP1 PUSH2 0x3806 JUMP JUMPDEST PUSH1 0xFF AND PUSH1 0xA DUP2 LT PUSH2 0x16FA JUMPI PUSH2 0x16F9 PUSH2 0x377F JUMP JUMPDEST JUMPDEST PUSH1 0x20 MUL ADD DUP1 MLOAD DUP1 SWAP2 SWAP1 PUSH2 0x170C SWAP1 PUSH2 0x37DD JUMP JUMPDEST PUSH1 0xFF AND PUSH1 0xFF AND DUP2 MSTORE POP POP JUMPDEST PUSH1 0xC8 DUP6 PUSH1 0x1 DUP5 PUSH2 0x1727 SWAP2 SWAP1 PUSH2 0x3909 JUMP JUMPDEST PUSH1 0xFF AND PUSH1 0xA DUP2 LT PUSH2 0x173B JUMPI PUSH2 0x173A PUSH2 0x377F JUMP JUMPDEST JUMPDEST PUSH1 0x20 MUL ADD MLOAD DUP3 PUSH1 0xFF AND PUSH1 0xA DUP2 LT PUSH2 0x1755 JUMPI PUSH2 0x1754 PUSH2 0x377F JUMP JUMPDEST JUMPDEST PUSH1 0x20 MUL ADD MLOAD PUSH1 0xFF AND EQ PUSH2 0x17BB JUMPI DUP5 PUSH1 0x1 DUP4 PUSH2 0x1770 SWAP2 SWAP1 PUSH2 0x3909 JUMP JUMPDEST PUSH1 0xFF AND PUSH1 0xA DUP2 LT PUSH2 0x1784 JUMPI PUSH2 0x1783 PUSH2 0x377F JUMP JUMPDEST JUMPDEST PUSH1 0x20 MUL ADD MLOAD DUP2 PUSH1 0xFF AND PUSH1 0xA DUP2 LT PUSH2 0x179E JUMPI PUSH2 0x179D PUSH2 0x377F JUMP JUMPDEST JUMPDEST PUSH1 0x20 MUL ADD DUP1 MLOAD DUP1 SWAP2 SWAP1 PUSH2 0x17B0 SWAP1 PUSH2 0x37DD JUMP JUMPDEST PUSH1 0xFF AND PUSH1 0xFF AND DUP2 MSTORE POP POP JUMPDEST PUSH1 0xC8 DUP6 PUSH1 0x1 DUP5 PUSH2 0x17CB SWAP2 SWAP1 PUSH2 0x3806 JUMP JUMPDEST PUSH1 0xFF AND PUSH1 0xA DUP2 LT PUSH2 0x17DF JUMPI PUSH2 0x17DE PUSH2 0x377F JUMP JUMPDEST JUMPDEST PUSH1 0x20 MUL ADD MLOAD DUP3 PUSH1 0xFF AND PUSH1 0xA DUP2 LT PUSH2 0x17F9 JUMPI PUSH2 0x17F8 PUSH2 0x377F JUMP JUMPDEST JUMPDEST PUSH1 0x20 MUL ADD MLOAD PUSH1 0xFF AND EQ PUSH2 0x185F JUMPI DUP5 PUSH1 0x1 DUP4 PUSH2 0x1814 SWAP2 SWAP1 PUSH2 0x3806 JUMP JUMPDEST PUSH1 0xFF AND PUSH1 0xA DUP2 LT PUSH2 0x1828 JUMPI PUSH2 0x1827 PUSH2 0x377F JUMP JUMPDEST JUMPDEST PUSH1 0x20 MUL ADD MLOAD DUP2 PUSH1 0xFF AND PUSH1 0xA DUP2 LT PUSH2 0x1842 JUMPI PUSH2 0x1841 PUSH2 0x377F JUMP JUMPDEST JUMPDEST PUSH1 0x20 MUL ADD DUP1 MLOAD DUP1 SWAP2 SWAP1 PUSH2 0x1854 SWAP1 PUSH2 0x37DD JUMP JUMPDEST PUSH1 0xFF AND PUSH1 0xFF AND DUP2 MSTORE POP POP JUMPDEST PUSH1 0xC8 DUP6 PUSH1 0x1 DUP5 PUSH2 0x186F SWAP2 SWAP1 PUSH2 0x3909 JUMP JUMPDEST PUSH1 0xFF AND PUSH1 0xA DUP2 LT PUSH2 0x1883 JUMPI PUSH2 0x1882 PUSH2 0x377F JUMP JUMPDEST JUMPDEST PUSH1 0x20 MUL ADD MLOAD PUSH1 0x1 DUP4 PUSH2 0x1895 SWAP2 SWAP1 PUSH2 0x3806 JUMP JUMPDEST PUSH1 0xFF AND PUSH1 0xA DUP2 LT PUSH2 0x18A9 JUMPI PUSH2 0x18A8 PUSH2 0x377F JUMP JUMPDEST JUMPDEST PUSH1 0x20 MUL ADD MLOAD PUSH1 0xFF AND EQ PUSH2 0x191B JUMPI DUP5 PUSH1 0x1 DUP4 PUSH2 0x18C4 SWAP2 SWAP1 PUSH2 0x3909 JUMP JUMPDEST PUSH1 0xFF AND PUSH1 0xA DUP2 LT PUSH2 0x18D8 JUMPI PUSH2 0x18D7 PUSH2 0x377F JUMP JUMPDEST JUMPDEST PUSH1 0x20 MUL ADD MLOAD PUSH1 0x1 DUP3 PUSH2 0x18EA SWAP2 SWAP1 PUSH2 0x3806 JUMP JUMPDEST PUSH1 0xFF AND PUSH1 0xA DUP2 LT PUSH2 0x18FE JUMPI PUSH2 0x18FD PUSH2 0x377F JUMP JUMPDEST JUMPDEST PUSH1 0x20 MUL ADD DUP1 MLOAD DUP1 SWAP2 SWAP1 PUSH2 0x1910 SWAP1 PUSH2 0x37DD JUMP JUMPDEST PUSH1 0xFF AND PUSH1 0xFF AND DUP2 MSTORE POP POP JUMPDEST PUSH1 0xC8 DUP6 PUSH1 0x1 DUP5 PUSH2 0x192B SWAP2 SWAP1 PUSH2 0x3806 JUMP JUMPDEST PUSH1 0xFF AND PUSH1 0xA DUP2 LT PUSH2 0x193F JUMPI PUSH2 0x193E PUSH2 0x377F JUMP JUMPDEST JUMPDEST PUSH1 0x20 MUL ADD MLOAD PUSH1 0x1 DUP4 PUSH2 0x1951 SWAP2 SWAP1 PUSH2 0x3806 JUMP JUMPDEST PUSH1 0xFF AND PUSH1 0xA DUP2 LT PUSH2 0x1965 JUMPI PUSH2 0x1964 PUSH2 0x377F JUMP JUMPDEST JUMPDEST PUSH1 0x20 MUL ADD MLOAD PUSH1 0xFF AND EQ PUSH2 0x19D7 JUMPI DUP5 PUSH1 0x1 DUP4 PUSH2 0x1980 SWAP2 SWAP1 PUSH2 0x3806 JUMP JUMPDEST PUSH1 0xFF AND PUSH1 0xA DUP2 LT PUSH2 0x1994 JUMPI PUSH2 0x1993 PUSH2 0x377F JUMP JUMPDEST JUMPDEST PUSH1 0x20 MUL ADD MLOAD PUSH1 0x1 DUP3 PUSH2 0x19A6 SWAP2 SWAP1 PUSH2 0x3806 JUMP JUMPDEST PUSH1 0xFF AND PUSH1 0xA DUP2 LT PUSH2 0x19BA JUMPI PUSH2 0x19B9 PUSH2 0x377F JUMP JUMPDEST JUMPDEST PUSH1 0x20 MUL ADD DUP1 MLOAD DUP1 SWAP2 SWAP1 PUSH2 0x19CC SWAP1 PUSH2 0x37DD JUMP JUMPDEST PUSH1 0xFF AND PUSH1 0xFF AND DUP2 MSTORE POP POP JUMPDEST POP POP POP PUSH2 0x29C8 JUMP JUMPDEST PUSH1 0x9 DUP3 PUSH1 0xFF AND SUB PUSH2 0x1D56 JUMPI PUSH1 0xC8 DUP6 PUSH1 0x1 DUP5 PUSH2 0x19FA SWAP2 SWAP1 PUSH2 0x3909 JUMP JUMPDEST PUSH1 0xFF AND PUSH1 0xA DUP2 LT PUSH2 0x1A0E JUMPI PUSH2 0x1A0D PUSH2 0x377F JUMP JUMPDEST JUMPDEST PUSH1 0x20 MUL ADD MLOAD DUP3 PUSH1 0xFF AND PUSH1 0xA DUP2 LT PUSH2 0x1A28 JUMPI PUSH2 0x1A27 PUSH2 0x377F JUMP JUMPDEST JUMPDEST PUSH1 0x20 MUL ADD MLOAD PUSH1 0xFF AND EQ PUSH2 0x1A8E JUMPI DUP5 PUSH1 0x1 DUP4 PUSH2 0x1A43 SWAP2 SWAP1 PUSH2 0x3909 JUMP JUMPDEST PUSH1 0xFF AND PUSH1 0xA DUP2 LT PUSH2 0x1A57 JUMPI PUSH2 0x1A56 PUSH2 0x377F JUMP JUMPDEST JUMPDEST PUSH1 0x20 MUL ADD MLOAD DUP2 PUSH1 0xFF AND PUSH1 0xA DUP2 LT PUSH2 0x1A71 JUMPI PUSH2 0x1A70 PUSH2 0x377F JUMP JUMPDEST JUMPDEST PUSH1 0x20 MUL ADD DUP1 MLOAD DUP1 SWAP2 SWAP1 PUSH2 0x1A83 SWAP1 PUSH2 0x37DD JUMP JUMPDEST PUSH1 0xFF AND PUSH1 0xFF AND DUP2 MSTORE POP POP JUMPDEST PUSH1 0xC8 DUP6 DUP4 PUSH1 0xFF AND PUSH1 0xA DUP2 LT PUSH2 0x1AA6 JUMPI PUSH2 0x1AA5 PUSH2 0x377F JUMP JUMPDEST JUMPDEST PUSH1 0x20 MUL ADD MLOAD PUSH1 0x1 DUP4 PUSH2 0x1AB8 SWAP2 SWAP1 PUSH2 0x3909 JUMP JUMPDEST PUSH1 0xFF AND PUSH1 0xA DUP2 LT PUSH2 0x1ACC JUMPI PUSH2 0x1ACB PUSH2 0x377F JUMP JUMPDEST JUMPDEST PUSH1 0x20 MUL ADD MLOAD PUSH1 0xFF AND EQ PUSH2 0x1B32 JUMPI DUP5 DUP3 PUSH1 0xFF AND PUSH1 0xA DUP2 LT PUSH2 0x1AEF JUMPI PUSH2 0x1AEE PUSH2 0x377F JUMP JUMPDEST JUMPDEST PUSH1 0x20 MUL ADD MLOAD PUSH1 0x1 DUP3 PUSH2 0x1B01 SWAP2 SWAP1 PUSH2 0x3909 JUMP JUMPDEST PUSH1 0xFF AND PUSH1 0xA DUP2 LT PUSH2 0x1B15 JUMPI PUSH2 0x1B14 PUSH2 0x377F JUMP JUMPDEST JUMPDEST PUSH1 0x20 MUL ADD DUP1 MLOAD DUP1 SWAP2 SWAP1 PUSH2 0x1B27 SWAP1 PUSH2 0x37DD JUMP JUMPDEST PUSH1 0xFF AND PUSH1 0xFF AND DUP2 MSTORE POP POP JUMPDEST PUSH1 0xC8 DUP6 DUP4 PUSH1 0xFF AND PUSH1 0xA DUP2 LT PUSH2 0x1B4A JUMPI PUSH2 0x1B49 PUSH2 0x377F JUMP JUMPDEST JUMPDEST PUSH1 0x20 MUL ADD MLOAD PUSH1 0x1 DUP4 PUSH2 0x1B5C SWAP2 SWAP1 PUSH2 0x3806 JUMP JUMPDEST PUSH1 0xFF AND PUSH1 0xA DUP2 LT PUSH2 0x1B70 JUMPI PUSH2 0x1B6F PUSH2 0x377F JUMP JUMPDEST JUMPDEST PUSH1 0x20 MUL ADD MLOAD PUSH1 0xFF AND EQ PUSH2 0x1BD6 JUMPI DUP5 DUP3 PUSH1 0xFF AND PUSH1 0xA DUP2 LT PUSH2 0x1B93 JUMPI PUSH2 0x1B92 PUSH2 0x377F JUMP JUMPDEST JUMPDEST PUSH1 0x20 MUL ADD MLOAD PUSH1 0x1 DUP3 PUSH2 0x1BA5 SWAP2 SWAP1 PUSH2 0x3806 JUMP JUMPDEST PUSH1 0xFF AND PUSH1 0xA DUP2 LT PUSH2 0x1BB9 JUMPI PUSH2 0x1BB8 PUSH2 0x377F JUMP JUMPDEST JUMPDEST PUSH1 0x20 MUL ADD DUP1 MLOAD DUP1 SWAP2 SWAP1 PUSH2 0x1BCB SWAP1 PUSH2 0x37DD JUMP JUMPDEST PUSH1 0xFF AND PUSH1 0xFF AND DUP2 MSTORE POP POP JUMPDEST PUSH1 0xC8 DUP6 PUSH1 0x1 DUP5 PUSH2 0x1BE6 SWAP2 SWAP1 PUSH2 0x3909 JUMP JUMPDEST PUSH1 0xFF AND PUSH1 0xA DUP2 LT PUSH2 0x1BFA JUMPI PUSH2 0x1BF9 PUSH2 0x377F JUMP JUMPDEST JUMPDEST PUSH1 0x20 MUL ADD MLOAD PUSH1 0x1 DUP4 PUSH2 0x1C0C SWAP2 SWAP1 PUSH2 0x3909 JUMP JUMPDEST PUSH1 0xFF AND PUSH1 0xA DUP2 LT PUSH2 0x1C20 JUMPI PUSH2 0x1C1F PUSH2 0x377F JUMP JUMPDEST JUMPDEST PUSH1 0x20 MUL ADD MLOAD PUSH1 0xFF AND EQ PUSH2 0x1C92 JUMPI DUP5 PUSH1 0x1 DUP4 PUSH2 0x1C3B SWAP2 SWAP1 PUSH2 0x3909 JUMP JUMPDEST PUSH1 0xFF AND PUSH1 0xA DUP2 LT PUSH2 0x1C4F JUMPI PUSH2 0x1C4E PUSH2 0x377F JUMP JUMPDEST JUMPDEST PUSH1 0x20 MUL ADD MLOAD PUSH1 0x1 DUP3 PUSH2 0x1C61 SWAP2 SWAP1 PUSH2 0x3909 JUMP JUMPDEST PUSH1 0xFF AND PUSH1 0xA DUP2 LT PUSH2 0x1C75 JUMPI PUSH2 0x1C74 PUSH2 0x377F JUMP JUMPDEST JUMPDEST PUSH1 0x20 MUL ADD DUP1 MLOAD DUP1 SWAP2 SWAP1 PUSH2 0x1C87 SWAP1 PUSH2 0x37DD JUMP JUMPDEST PUSH1 0xFF AND PUSH1 0xFF AND DUP2 MSTORE POP POP JUMPDEST PUSH1 0xC8 DUP6 PUSH1 0x1 DUP5 PUSH2 0x1CA2 SWAP2 SWAP1 PUSH2 0x3909 JUMP JUMPDEST PUSH1 0xFF AND PUSH1 0xA DUP2 LT PUSH2 0x1CB6 JUMPI PUSH2 0x1CB5 PUSH2 0x377F JUMP JUMPDEST JUMPDEST PUSH1 0x20 MUL ADD MLOAD PUSH1 0x1 DUP4 PUSH2 0x1CC8 SWAP2 SWAP1 PUSH2 0x3806 JUMP JUMPDEST PUSH1 0xFF AND PUSH1 0xA DUP2 LT PUSH2 0x1CDC JUMPI PUSH2 0x1CDB PUSH2 0x377F JUMP JUMPDEST JUMPDEST PUSH1 0x20 MUL ADD MLOAD PUSH1 0xFF AND EQ PUSH2 0x1D4E JUMPI DUP5 PUSH1 0x1 DUP4 PUSH2 0x1CF7 SWAP2 SWAP1 PUSH2 0x3909 JUMP JUMPDEST PUSH1 0xFF AND PUSH1 0xA DUP2 LT PUSH2 0x1D0B JUMPI PUSH2 0x1D0A PUSH2 0x377F JUMP JUMPDEST JUMPDEST PUSH1 0x20 MUL ADD MLOAD PUSH1 0x1 DUP3 PUSH2 0x1D1D SWAP2 SWAP1 PUSH2 0x3806 JUMP JUMPDEST PUSH1 0xFF AND PUSH1 0xA DUP2 LT PUSH2 0x1D31 JUMPI PUSH2 0x1D30 PUSH2 0x377F JUMP JUMPDEST JUMPDEST PUSH1 0x20 MUL ADD DUP1 MLOAD DUP1 SWAP2 SWAP1 PUSH2 0x1D43 SWAP1 PUSH2 0x37DD JUMP JUMPDEST PUSH1 0xFF AND PUSH1 0xFF AND DUP2 MSTORE POP POP JUMPDEST POP POP POP PUSH2 0x29C8 JUMP JUMPDEST PUSH1 0x9 DUP2 PUSH1 0xFF AND SUB PUSH2 0x20CD JUMPI PUSH1 0xC8 DUP6 DUP4 PUSH1 0xFF AND PUSH1 0xA DUP2 LT PUSH2 0x1D79 JUMPI PUSH2 0x1D78 PUSH2 0x377F JUMP JUMPDEST JUMPDEST PUSH1 0x20 MUL ADD MLOAD PUSH1 0x1 DUP4 PUSH2 0x1D8B SWAP2 SWAP1 PUSH2 0x3909 JUMP JUMPDEST PUSH1 0xFF AND PUSH1 0xA DUP2 LT PUSH2 0x1D9F JUMPI PUSH2 0x1D9E PUSH2 0x377F JUMP JUMPDEST JUMPDEST PUSH1 0x20 MUL ADD MLOAD PUSH1 0xFF AND EQ PUSH2 0x1E05 JUMPI DUP5 DUP3 PUSH1 0xFF AND PUSH1 0xA DUP2 LT PUSH2 0x1DC2 JUMPI PUSH2 0x1DC1 PUSH2 0x377F JUMP JUMPDEST JUMPDEST PUSH1 0x20 MUL ADD MLOAD PUSH1 0x1 DUP3 PUSH2 0x1DD4 SWAP2 SWAP1 PUSH2 0x3909 JUMP JUMPDEST PUSH1 0xFF AND PUSH1 0xA DUP2 LT PUSH2 0x1DE8 JUMPI PUSH2 0x1DE7 PUSH2 0x377F JUMP JUMPDEST JUMPDEST PUSH1 0x20 MUL ADD DUP1 MLOAD DUP1 SWAP2 SWAP1 PUSH2 0x1DFA SWAP1 PUSH2 0x37DD JUMP JUMPDEST PUSH1 0xFF AND PUSH1 0xFF AND DUP2 MSTORE POP POP JUMPDEST PUSH1 0xC8 DUP6 PUSH1 0x1 DUP5 PUSH2 0x1E15 SWAP2 SWAP1 PUSH2 0x3909 JUMP JUMPDEST PUSH1 0xFF AND PUSH1 0xA DUP2 LT PUSH2 0x1E29 JUMPI PUSH2 0x1E28 PUSH2 0x377F JUMP JUMPDEST JUMPDEST PUSH1 0x20 MUL ADD MLOAD DUP3 PUSH1 0xFF AND PUSH1 0xA DUP2 LT PUSH2 0x1E43 JUMPI PUSH2 0x1E42 PUSH2 0x377F JUMP JUMPDEST JUMPDEST PUSH1 0x20 MUL ADD MLOAD PUSH1 0xFF AND EQ PUSH2 0x1EA9 JUMPI DUP5 PUSH1 0x1 DUP4 PUSH2 0x1E5E SWAP2 SWAP1 PUSH2 0x3909 JUMP JUMPDEST PUSH1 0xFF AND PUSH1 0xA DUP2 LT PUSH2 0x1E72 JUMPI PUSH2 0x1E71 PUSH2 0x377F JUMP JUMPDEST JUMPDEST PUSH1 0x20 MUL ADD MLOAD DUP2 PUSH1 0xFF AND PUSH1 0xA DUP2 LT PUSH2 0x1E8C JUMPI PUSH2 0x1E8B PUSH2 0x377F JUMP JUMPDEST JUMPDEST PUSH1 0x20 MUL ADD DUP1 MLOAD DUP1 SWAP2 SWAP1 PUSH2 0x1E9E SWAP1 PUSH2 0x37DD JUMP JUMPDEST PUSH1 0xFF AND PUSH1 0xFF AND DUP2 MSTORE POP POP JUMPDEST PUSH1 0xC8 DUP6 PUSH1 0x1 DUP5 PUSH2 0x1EB9 SWAP2 SWAP1 PUSH2 0x3806 JUMP JUMPDEST PUSH1 0xFF AND PUSH1 0xA DUP2 LT PUSH2 0x1ECD JUMPI PUSH2 0x1ECC PUSH2 0x377F JUMP JUMPDEST JUMPDEST PUSH1 0x20 MUL ADD MLOAD DUP3 PUSH1 0xFF AND PUSH1 0xA DUP2 LT PUSH2 0x1EE7 JUMPI PUSH2 0x1EE6 PUSH2 0x377F JUMP JUMPDEST JUMPDEST PUSH1 0x20 MUL ADD MLOAD PUSH1 0xFF AND EQ PUSH2 0x1F4D JUMPI DUP5 PUSH1 0x1 DUP4 PUSH2 0x1F02 SWAP2 SWAP1 PUSH2 0x3806 JUMP JUMPDEST PUSH1 0xFF AND PUSH1 0xA DUP2 LT PUSH2 0x1F16 JUMPI PUSH2 0x1F15 PUSH2 0x377F JUMP JUMPDEST JUMPDEST PUSH1 0x20 MUL ADD MLOAD DUP2 PUSH1 0xFF AND PUSH1 0xA DUP2 LT PUSH2 0x1F30 JUMPI PUSH2 0x1F2F PUSH2 0x377F JUMP JUMPDEST JUMPDEST PUSH1 0x20 MUL ADD DUP1 MLOAD DUP1 SWAP2 SWAP1 PUSH2 0x1F42 SWAP1 PUSH2 0x37DD JUMP JUMPDEST PUSH1 0xFF AND PUSH1 0xFF AND DUP2 MSTORE POP POP JUMPDEST PUSH1 0xC8 DUP6 PUSH1 0x1 DUP5 PUSH2 0x1F5D SWAP2 SWAP1 PUSH2 0x3909 JUMP JUMPDEST PUSH1 0xFF AND PUSH1 0xA DUP2 LT PUSH2 0x1F71 JUMPI PUSH2 0x1F70 PUSH2 0x377F JUMP JUMPDEST JUMPDEST PUSH1 0x20 MUL ADD MLOAD PUSH1 0x1 DUP4 PUSH2 0x1F83 SWAP2 SWAP1 PUSH2 0x3909 JUMP JUMPDEST PUSH1 0xFF AND PUSH1 0xA DUP2 LT PUSH2 0x1F97 JUMPI PUSH2 0x1F96 PUSH2 0x377F JUMP JUMPDEST JUMPDEST PUSH1 0x20 MUL ADD MLOAD PUSH1 0xFF AND EQ PUSH2 0x2009 JUMPI DUP5 PUSH1 0x1 DUP4 PUSH2 0x1FB2 SWAP2 SWAP1 PUSH2 0x3909 JUMP JUMPDEST PUSH1 0xFF AND PUSH1 0xA DUP2 LT PUSH2 0x1FC6 JUMPI PUSH2 0x1FC5 PUSH2 0x377F JUMP JUMPDEST JUMPDEST PUSH1 0x20 MUL ADD MLOAD PUSH1 0x1 DUP3 PUSH2 0x1FD8 SWAP2 SWAP1 PUSH2 0x3909 JUMP JUMPDEST PUSH1 0xFF AND PUSH1 0xA DUP2 LT PUSH2 0x1FEC JUMPI PUSH2 0x1FEB PUSH2 0x377F JUMP JUMPDEST JUMPDEST PUSH1 0x20 MUL ADD DUP1 MLOAD DUP1 SWAP2 SWAP1 PUSH2 0x1FFE SWAP1 PUSH2 0x37DD JUMP JUMPDEST PUSH1 0xFF AND PUSH1 0xFF AND DUP2 MSTORE POP POP JUMPDEST PUSH1 0xC8 DUP6 PUSH1 0x1 DUP5 PUSH2 0x2019 SWAP2 SWAP1 PUSH2 0x3806 JUMP JUMPDEST PUSH1 0xFF AND PUSH1 0xA DUP2 LT PUSH2 0x202D JUMPI PUSH2 0x202C PUSH2 0x377F JUMP JUMPDEST JUMPDEST PUSH1 0x20 MUL ADD MLOAD PUSH1 0x1 DUP4 PUSH2 0x203F SWAP2 SWAP1 PUSH2 0x3909 JUMP JUMPDEST PUSH1 0xFF AND PUSH1 0xA DUP2 LT PUSH2 0x2053 JUMPI PUSH2 0x2052 PUSH2 0x377F JUMP JUMPDEST JUMPDEST PUSH1 0x20 MUL ADD MLOAD PUSH1 0xFF AND EQ PUSH2 0x20C5 JUMPI DUP5 PUSH1 0x1 DUP4 PUSH2 0x206E SWAP2 SWAP1 PUSH2 0x3806 JUMP JUMPDEST PUSH1 0xFF AND PUSH1 0xA DUP2 LT PUSH2 0x2082 JUMPI PUSH2 0x2081 PUSH2 0x377F JUMP JUMPDEST JUMPDEST PUSH1 0x20 MUL ADD MLOAD PUSH1 0x1 DUP3 PUSH2 0x2094 SWAP2 SWAP1 PUSH2 0x3909 JUMP JUMPDEST PUSH1 0xFF AND PUSH1 0xA DUP2 LT PUSH2 0x20A8 JUMPI PUSH2 0x20A7 PUSH2 0x377F JUMP JUMPDEST JUMPDEST PUSH1 0x20 MUL ADD DUP1 MLOAD DUP1 SWAP2 SWAP1 PUSH2 0x20BA SWAP1 PUSH2 0x37DD JUMP JUMPDEST PUSH1 0xFF AND PUSH1 0xFF AND DUP2 MSTORE POP POP JUMPDEST POP POP POP PUSH2 0x29C8 JUMP JUMPDEST PUSH1 0x0 DUP3 PUSH1 0xFF AND SUB PUSH2 0x2444 JUMPI PUSH1 0xC8 DUP6 PUSH1 0x1 DUP5 PUSH2 0x20E8 SWAP2 SWAP1 PUSH2 0x3806 JUMP JUMPDEST PUSH1 0xFF AND PUSH1 0xA DUP2 LT PUSH2 0x20FC JUMPI PUSH2 0x20FB PUSH2 0x377F JUMP JUMPDEST JUMPDEST PUSH1 0x20 MUL ADD MLOAD DUP3 PUSH1 0xFF AND PUSH1 0xA DUP2 LT PUSH2 0x2116 JUMPI PUSH2 0x2115 PUSH2 0x377F JUMP JUMPDEST JUMPDEST PUSH1 0x20 MUL ADD MLOAD PUSH1 0xFF AND EQ PUSH2 0x217C JUMPI DUP5 PUSH1 0x1 DUP4 PUSH2 0x2131 SWAP2 SWAP1 PUSH2 0x3806 JUMP JUMPDEST PUSH1 0xFF AND PUSH1 0xA DUP2 LT PUSH2 0x2145 JUMPI PUSH2 0x2144 PUSH2 0x377F JUMP JUMPDEST JUMPDEST PUSH1 0x20 MUL ADD MLOAD DUP2 PUSH1 0xFF AND PUSH1 0xA DUP2 LT PUSH2 0x215F JUMPI PUSH2 0x215E PUSH2 0x377F JUMP JUMPDEST JUMPDEST PUSH1 0x20 MUL ADD DUP1 MLOAD DUP1 SWAP2 SWAP1 PUSH2 0x2171 SWAP1 PUSH2 0x37DD JUMP JUMPDEST PUSH1 0xFF AND PUSH1 0xFF AND DUP2 MSTORE POP POP JUMPDEST PUSH1 0xC8 DUP6 DUP4 PUSH1 0xFF AND PUSH1 0xA DUP2 LT PUSH2 0x2194 JUMPI PUSH2 0x2193 PUSH2 0x377F JUMP JUMPDEST JUMPDEST PUSH1 0x20 MUL ADD MLOAD PUSH1 0x1 DUP4 PUSH2 0x21A6 SWAP2 SWAP1 PUSH2 0x3909 JUMP JUMPDEST PUSH1 0xFF AND PUSH1 0xA DUP2 LT PUSH2 0x21BA JUMPI PUSH2 0x21B9 PUSH2 0x377F JUMP JUMPDEST JUMPDEST PUSH1 0x20 MUL ADD MLOAD PUSH1 0xFF AND EQ PUSH2 0x2220 JUMPI DUP5 DUP3 PUSH1 0xFF AND PUSH1 0xA DUP2 LT PUSH2 0x21DD JUMPI PUSH2 0x21DC PUSH2 0x377F JUMP JUMPDEST JUMPDEST PUSH1 0x20 MUL ADD MLOAD PUSH1 0x1 DUP3 PUSH2 0x21EF SWAP2 SWAP1 PUSH2 0x3909 JUMP JUMPDEST PUSH1 0xFF AND PUSH1 0xA DUP2 LT PUSH2 0x2203 JUMPI PUSH2 0x2202 PUSH2 0x377F JUMP JUMPDEST JUMPDEST PUSH1 0x20 MUL ADD DUP1 MLOAD DUP1 SWAP2 SWAP1 PUSH2 0x2215 SWAP1 PUSH2 0x37DD JUMP JUMPDEST PUSH1 0xFF AND PUSH1 0xFF AND DUP2 MSTORE POP POP JUMPDEST PUSH1 0xC8 DUP6 DUP4 PUSH1 0xFF AND PUSH1 0xA DUP2 LT PUSH2 0x2238 JUMPI PUSH2 0x2237 PUSH2 0x377F JUMP JUMPDEST JUMPDEST PUSH1 0x20 MUL ADD MLOAD PUSH1 0x1 DUP4 PUSH2 0x224A SWAP2 SWAP1 PUSH2 0x3806 JUMP JUMPDEST PUSH1 0xFF AND PUSH1 0xA DUP2 LT PUSH2 0x225E JUMPI PUSH2 0x225D PUSH2 0x377F JUMP JUMPDEST JUMPDEST PUSH1 0x20 MUL ADD MLOAD PUSH1 0xFF AND EQ PUSH2 0x22C4 JUMPI DUP5 DUP3 PUSH1 0xFF AND PUSH1 0xA DUP2 LT PUSH2 0x2281 JUMPI PUSH2 0x2280 PUSH2 0x377F JUMP JUMPDEST JUMPDEST PUSH1 0x20 MUL ADD MLOAD PUSH1 0x1 DUP3 PUSH2 0x2293 SWAP2 SWAP1 PUSH2 0x3806 JUMP JUMPDEST PUSH1 0xFF AND PUSH1 0xA DUP2 LT PUSH2 0x22A7 JUMPI PUSH2 0x22A6 PUSH2 0x377F JUMP JUMPDEST JUMPDEST PUSH1 0x20 MUL ADD DUP1 MLOAD DUP1 SWAP2 SWAP1 PUSH2 0x22B9 SWAP1 PUSH2 0x37DD JUMP JUMPDEST PUSH1 0xFF AND PUSH1 0xFF AND DUP2 MSTORE POP POP JUMPDEST PUSH1 0xC8 DUP6 PUSH1 0x1 DUP5 PUSH2 0x22D4 SWAP2 SWAP1 PUSH2 0x3806 JUMP JUMPDEST PUSH1 0xFF AND PUSH1 0xA DUP2 LT PUSH2 0x22E8 JUMPI PUSH2 0x22E7 PUSH2 0x377F JUMP JUMPDEST JUMPDEST PUSH1 0x20 MUL ADD MLOAD PUSH1 0x1 DUP4 PUSH2 0x22FA SWAP2 SWAP1 PUSH2 0x3909 JUMP JUMPDEST PUSH1 0xFF AND PUSH1 0xA DUP2 LT PUSH2 0x230E JUMPI PUSH2 0x230D PUSH2 0x377F JUMP JUMPDEST JUMPDEST PUSH1 0x20 MUL ADD MLOAD PUSH1 0xFF AND EQ PUSH2 0x2380 JUMPI DUP5 PUSH1 0x1 DUP4 PUSH2 0x2329 SWAP2 SWAP1 PUSH2 0x3806 JUMP JUMPDEST PUSH1 0xFF AND PUSH1 0xA DUP2 LT PUSH2 0x233D JUMPI PUSH2 0x233C PUSH2 0x377F JUMP JUMPDEST JUMPDEST PUSH1 0x20 MUL ADD MLOAD PUSH1 0x1 DUP3 PUSH2 0x234F SWAP2 SWAP1 PUSH2 0x3909 JUMP JUMPDEST PUSH1 0xFF AND PUSH1 0xA DUP2 LT PUSH2 0x2363 JUMPI PUSH2 0x2362 PUSH2 0x377F JUMP JUMPDEST JUMPDEST PUSH1 0x20 MUL ADD DUP1 MLOAD DUP1 SWAP2 SWAP1 PUSH2 0x2375 SWAP1 PUSH2 0x37DD JUMP JUMPDEST PUSH1 0xFF AND PUSH1 0xFF AND DUP2 MSTORE POP POP JUMPDEST PUSH1 0xC8 DUP6 PUSH1 0x1 DUP5 PUSH2 0x2390 SWAP2 SWAP1 PUSH2 0x3806 JUMP JUMPDEST PUSH1 0xFF AND PUSH1 0xA DUP2 LT PUSH2 0x23A4 JUMPI PUSH2 0x23A3 PUSH2 0x377F JUMP JUMPDEST JUMPDEST PUSH1 0x20 MUL ADD MLOAD PUSH1 0x1 DUP4 PUSH2 0x23B6 SWAP2 SWAP1 PUSH2 0x3806 JUMP JUMPDEST PUSH1 0xFF AND PUSH1 0xA DUP2 LT PUSH2 0x23CA JUMPI PUSH2 0x23C9 PUSH2 0x377F JUMP JUMPDEST JUMPDEST PUSH1 0x20 MUL ADD MLOAD PUSH1 0xFF AND EQ PUSH2 0x243C JUMPI DUP5 PUSH1 0x1 DUP4 PUSH2 0x23E5 SWAP2 SWAP1 PUSH2 0x3806 JUMP JUMPDEST PUSH1 0xFF AND PUSH1 0xA DUP2 LT PUSH2 0x23F9 JUMPI PUSH2 0x23F8 PUSH2 0x377F JUMP JUMPDEST JUMPDEST PUSH1 0x20 MUL ADD MLOAD PUSH1 0x1 DUP3 PUSH2 0x240B SWAP2 SWAP1 PUSH2 0x3806 JUMP JUMPDEST PUSH1 0xFF AND PUSH1 0xA DUP2 LT PUSH2 0x241F JUMPI PUSH2 0x241E PUSH2 0x377F JUMP JUMPDEST JUMPDEST PUSH1 0x20 MUL ADD DUP1 MLOAD DUP1 SWAP2 SWAP1 PUSH2 0x2431 SWAP1 PUSH2 0x37DD JUMP JUMPDEST PUSH1 0xFF AND PUSH1 0xFF AND DUP2 MSTORE POP POP JUMPDEST POP POP POP PUSH2 0x29C8 JUMP JUMPDEST PUSH1 0xC8 DUP6 PUSH1 0x1 DUP5 PUSH2 0x2454 SWAP2 SWAP1 PUSH2 0x3806 JUMP JUMPDEST PUSH1 0xFF AND PUSH1 0xA DUP2 LT PUSH2 0x2468 JUMPI PUSH2 0x2467 PUSH2 0x377F JUMP JUMPDEST JUMPDEST PUSH1 0x20 MUL ADD MLOAD DUP3 PUSH1 0xFF AND PUSH1 0xA DUP2 LT PUSH2 0x2482 JUMPI PUSH2 0x2481 PUSH2 0x377F JUMP JUMPDEST JUMPDEST PUSH1 0x20 MUL ADD MLOAD PUSH1 0xFF AND EQ PUSH2 0x24E8 JUMPI DUP5 PUSH1 0x1 DUP4 PUSH2 0x249D SWAP2 SWAP1 PUSH2 0x3806 JUMP JUMPDEST PUSH1 0xFF AND PUSH1 0xA DUP2 LT PUSH2 0x24B1 JUMPI PUSH2 0x24B0 PUSH2 0x377F JUMP JUMPDEST JUMPDEST PUSH1 0x20 MUL ADD MLOAD DUP2 PUSH1 0xFF AND PUSH1 0xA DUP2 LT PUSH2 0x24CB JUMPI PUSH2 0x24CA PUSH2 0x377F JUMP JUMPDEST JUMPDEST PUSH1 0x20 MUL ADD DUP1 MLOAD DUP1 SWAP2 SWAP1 PUSH2 0x24DD SWAP1 PUSH2 0x37DD JUMP JUMPDEST PUSH1 0xFF AND PUSH1 0xFF AND DUP2 MSTORE POP POP JUMPDEST PUSH1 0xC8 DUP6 PUSH1 0x1 DUP5 PUSH2 0x24F8 SWAP2 SWAP1 PUSH2 0x3806 JUMP JUMPDEST PUSH1 0xFF AND PUSH1 0xA DUP2 LT PUSH2 0x250C JUMPI PUSH2 0x250B PUSH2 0x377F JUMP JUMPDEST JUMPDEST PUSH1 0x20 MUL ADD MLOAD PUSH1 0x1 DUP4 PUSH2 0x251E SWAP2 SWAP1 PUSH2 0x3806 JUMP JUMPDEST PUSH1 0xFF AND PUSH1 0xA DUP2 LT PUSH2 0x2532 JUMPI PUSH2 0x2531 PUSH2 0x377F JUMP JUMPDEST JUMPDEST PUSH1 0x20 MUL ADD MLOAD PUSH1 0xFF AND EQ PUSH2 0x25A4 JUMPI DUP5 PUSH1 0x1 DUP4 PUSH2 0x254D SWAP2 SWAP1 PUSH2 0x3806 JUMP JUMPDEST PUSH1 0xFF AND PUSH1 0xA DUP2 LT PUSH2 0x2561 JUMPI PUSH2 0x2560 PUSH2 0x377F JUMP JUMPDEST JUMPDEST PUSH1 0x20 MUL ADD MLOAD PUSH1 0x1 DUP3 PUSH2 0x2573 SWAP2 SWAP1 PUSH2 0x3806 JUMP JUMPDEST PUSH1 0xFF AND PUSH1 0xA DUP2 LT PUSH2 0x2587 JUMPI PUSH2 0x2586 PUSH2 0x377F JUMP JUMPDEST JUMPDEST PUSH1 0x20 MUL ADD DUP1 MLOAD DUP1 SWAP2 SWAP1 PUSH2 0x2599 SWAP1 PUSH2 0x37DD JUMP JUMPDEST PUSH1 0xFF AND PUSH1 0xFF AND DUP2 MSTORE POP POP JUMPDEST PUSH1 0xC8 DUP6 PUSH1 0x1 DUP5 PUSH2 0x25B4 SWAP2 SWAP1 PUSH2 0x3806 JUMP JUMPDEST PUSH1 0xFF AND PUSH1 0xA DUP2 LT PUSH2 0x25C8 JUMPI PUSH2 0x25C7 PUSH2 0x377F JUMP JUMPDEST JUMPDEST PUSH1 0x20 MUL ADD MLOAD PUSH1 0x1 DUP4 PUSH2 0x25DA SWAP2 SWAP1 PUSH2 0x3909 JUMP JUMPDEST PUSH1 0xFF AND PUSH1 0xA DUP2 LT PUSH2 0x25EE JUMPI PUSH2 0x25ED PUSH2 0x377F JUMP JUMPDEST JUMPDEST PUSH1 0x20 MUL ADD MLOAD PUSH1 0xFF AND EQ PUSH2 0x2660 JUMPI DUP5 PUSH1 0x1 DUP4 PUSH2 0x2609 SWAP2 SWAP1 PUSH2 0x3806 JUMP JUMPDEST PUSH1 0xFF AND PUSH1 0xA DUP2 LT PUSH2 0x261D JUMPI PUSH2 0x261C PUSH2 0x377F JUMP JUMPDEST JUMPDEST PUSH1 0x20 MUL ADD MLOAD PUSH1 0x1 DUP3 PUSH2 0x262F SWAP2 SWAP1 PUSH2 0x3909 JUMP JUMPDEST PUSH1 0xFF AND PUSH1 0xA DUP2 LT PUSH2 0x2643 JUMPI PUSH2 0x2642 PUSH2 0x377F JUMP JUMPDEST JUMPDEST PUSH1 0x20 MUL ADD DUP1 MLOAD DUP1 SWAP2 SWAP1 PUSH2 0x2655 SWAP1 PUSH2 0x37DD JUMP JUMPDEST PUSH1 0xFF AND PUSH1 0xFF AND DUP2 MSTORE POP POP JUMPDEST PUSH1 0xC8 DUP6 PUSH1 0x1 DUP5 PUSH2 0x2670 SWAP2 SWAP1 PUSH2 0x3909 JUMP JUMPDEST PUSH1 0xFF AND PUSH1 0xA DUP2 LT PUSH2 0x2684 JUMPI PUSH2 0x2683 PUSH2 0x377F JUMP JUMPDEST JUMPDEST PUSH1 0x20 MUL ADD MLOAD DUP3 PUSH1 0xFF AND PUSH1 0xA DUP2 LT PUSH2 0x269E JUMPI PUSH2 0x269D PUSH2 0x377F JUMP JUMPDEST JUMPDEST PUSH1 0x20 MUL ADD MLOAD PUSH1 0xFF AND EQ PUSH2 0x2704 JUMPI DUP5 PUSH1 0x1 DUP4 PUSH2 0x26B9 SWAP2 SWAP1 PUSH2 0x3909 JUMP JUMPDEST PUSH1 0xFF AND PUSH1 0xA DUP2 LT PUSH2 0x26CD JUMPI PUSH2 0x26CC PUSH2 0x377F JUMP JUMPDEST JUMPDEST PUSH1 0x20 MUL ADD MLOAD DUP2 PUSH1 0xFF AND PUSH1 0xA DUP2 LT PUSH2 0x26E7 JUMPI PUSH2 0x26E6 PUSH2 0x377F JUMP JUMPDEST JUMPDEST PUSH1 0x20 MUL ADD DUP1 MLOAD DUP1 SWAP2 SWAP1 PUSH2 0x26F9 SWAP1 PUSH2 0x37DD JUMP JUMPDEST PUSH1 0xFF AND PUSH1 0xFF AND DUP2 MSTORE POP POP JUMPDEST PUSH1 0xC8 DUP6 PUSH1 0x1 DUP5 PUSH2 0x2714 SWAP2 SWAP1 PUSH2 0x3909 JUMP JUMPDEST PUSH1 0xFF AND PUSH1 0xA DUP2 LT PUSH2 0x2728 JUMPI PUSH2 0x2727 PUSH2 0x377F JUMP JUMPDEST JUMPDEST PUSH1 0x20 MUL ADD MLOAD PUSH1 0x1 DUP4 PUSH2 0x273A SWAP2 SWAP1 PUSH2 0x3806 JUMP JUMPDEST PUSH1 0xFF AND PUSH1 0xA DUP2 LT PUSH2 0x274E JUMPI PUSH2 0x274D PUSH2 0x377F JUMP JUMPDEST JUMPDEST PUSH1 0x20 MUL ADD MLOAD PUSH1 0xFF AND EQ PUSH2 0x27C0 JUMPI DUP5 PUSH1 0x1 DUP4 PUSH2 0x2769 SWAP2 SWAP1 PUSH2 0x3909 JUMP JUMPDEST PUSH1 0xFF AND PUSH1 0xA DUP2 LT PUSH2 0x277D JUMPI PUSH2 0x277C PUSH2 0x377F JUMP JUMPDEST JUMPDEST PUSH1 0x20 MUL ADD MLOAD PUSH1 0x1 DUP3 PUSH2 0x278F SWAP2 SWAP1 PUSH2 0x3806 JUMP JUMPDEST PUSH1 0xFF AND PUSH1 0xA DUP2 LT PUSH2 0x27A3 JUMPI PUSH2 0x27A2 PUSH2 0x377F JUMP JUMPDEST JUMPDEST PUSH1 0x20 MUL ADD DUP1 MLOAD DUP1 SWAP2 SWAP1 PUSH2 0x27B5 SWAP1 PUSH2 0x37DD JUMP JUMPDEST PUSH1 0xFF AND PUSH1 0xFF AND DUP2 MSTORE POP POP JUMPDEST PUSH1 0xC8 DUP6 PUSH1 0x1 DUP5 PUSH2 0x27D0 SWAP2 SWAP1 PUSH2 0x3909 JUMP JUMPDEST PUSH1 0xFF AND PUSH1 0xA DUP2 LT PUSH2 0x27E4 JUMPI PUSH2 0x27E3 PUSH2 0x377F JUMP JUMPDEST JUMPDEST PUSH1 0x20 MUL ADD MLOAD PUSH1 0x1 DUP4 PUSH2 0x27F6 SWAP2 SWAP1 PUSH2 0x3909 JUMP JUMPDEST PUSH1 0xFF AND PUSH1 0xA DUP2 LT PUSH2 0x280A JUMPI PUSH2 0x2809 PUSH2 0x377F JUMP JUMPDEST JUMPDEST PUSH1 0x20 MUL ADD MLOAD PUSH1 0xFF AND EQ PUSH2 0x287C JUMPI DUP5 PUSH1 0x1 DUP4 PUSH2 0x2825 SWAP2 SWAP1 PUSH2 0x3909 JUMP JUMPDEST PUSH1 0xFF AND PUSH1 0xA DUP2 LT PUSH2 0x2839 JUMPI PUSH2 0x2838 PUSH2 0x377F JUMP JUMPDEST JUMPDEST PUSH1 0x20 MUL ADD MLOAD PUSH1 0x1 DUP3 PUSH2 0x284B SWAP2 SWAP1 PUSH2 0x3909 JUMP JUMPDEST PUSH1 0xFF AND PUSH1 0xA DUP2 LT PUSH2 0x285F JUMPI PUSH2 0x285E PUSH2 0x377F JUMP JUMPDEST JUMPDEST PUSH1 0x20 MUL ADD DUP1 MLOAD DUP1 SWAP2 SWAP1 PUSH2 0x2871 SWAP1 PUSH2 0x37DD JUMP JUMPDEST PUSH1 0xFF AND PUSH1 0xFF AND DUP2 MSTORE POP POP JUMPDEST PUSH1 0xC8 DUP6 DUP4 PUSH1 0xFF AND PUSH1 0xA DUP2 LT PUSH2 0x2894 JUMPI PUSH2 0x2893 PUSH2 0x377F JUMP JUMPDEST JUMPDEST PUSH1 0x20 MUL ADD MLOAD PUSH1 0x1 DUP4 PUSH2 0x28A6 SWAP2 SWAP1 PUSH2 0x3909 JUMP JUMPDEST PUSH1 0xFF AND PUSH1 0xA DUP2 LT PUSH2 0x28BA JUMPI PUSH2 0x28B9 PUSH2 0x377F JUMP JUMPDEST JUMPDEST PUSH1 0x20 MUL ADD MLOAD PUSH1 0xFF AND EQ PUSH2 0x2920 JUMPI DUP5 DUP3 PUSH1 0xFF AND PUSH1 0xA DUP2 LT PUSH2 0x28DD JUMPI PUSH2 0x28DC PUSH2 0x377F JUMP JUMPDEST JUMPDEST PUSH1 0x20 MUL ADD MLOAD PUSH1 0x1 DUP3 PUSH2 0x28EF SWAP2 SWAP1 PUSH2 0x3909 JUMP JUMPDEST PUSH1 0xFF AND PUSH1 0xA DUP2 LT PUSH2 0x2903 JUMPI PUSH2 0x2902 PUSH2 0x377F JUMP JUMPDEST JUMPDEST PUSH1 0x20 MUL ADD DUP1 MLOAD DUP1 SWAP2 SWAP1 PUSH2 0x2915 SWAP1 PUSH2 0x37DD JUMP JUMPDEST PUSH1 0xFF AND PUSH1 0xFF AND DUP2 MSTORE POP POP JUMPDEST PUSH1 0xC8 DUP6 DUP4 PUSH1 0xFF AND PUSH1 0xA DUP2 LT PUSH2 0x2938 JUMPI PUSH2 0x2937 PUSH2 0x377F JUMP JUMPDEST JUMPDEST PUSH1 0x20 MUL ADD MLOAD PUSH1 0x1 DUP4 PUSH2 0x294A SWAP2 SWAP1 PUSH2 0x3806 JUMP JUMPDEST PUSH1 0xFF AND PUSH1 0xA DUP2 LT PUSH2 0x295E JUMPI PUSH2 0x295D PUSH2 0x377F JUMP JUMPDEST JUMPDEST PUSH1 0x20 MUL ADD MLOAD PUSH1 0xFF AND EQ PUSH2 0x29C4 JUMPI DUP5 DUP3 PUSH1 0xFF AND PUSH1 0xA DUP2 LT PUSH2 0x2981 JUMPI PUSH2 0x2980 PUSH2 0x377F JUMP JUMPDEST JUMPDEST PUSH1 0x20 MUL ADD MLOAD PUSH1 0x1 DUP3 PUSH2 0x2993 SWAP2 SWAP1 PUSH2 0x3806 JUMP JUMPDEST PUSH1 0xFF AND PUSH1 0xA DUP2 LT PUSH2 0x29A7 JUMPI PUSH2 0x29A6 PUSH2 0x377F JUMP JUMPDEST JUMPDEST PUSH1 0x20 MUL ADD DUP1 MLOAD DUP1 SWAP2 SWAP1 PUSH2 0x29B9 SWAP1 PUSH2 0x37DD JUMP JUMPDEST PUSH1 0xFF AND PUSH1 0xFF AND DUP2 MSTORE POP POP JUMPDEST POP POP POP JUMPDEST DUP1 DUP1 PUSH2 0x29D3 SWAP1 PUSH2 0x37DD JUMP JUMPDEST SWAP2 POP POP PUSH2 0xCF7 JUMP JUMPDEST POP DUP1 PUSH1 0x0 DUP1 CALLER PUSH20 0xFFFFFFFFFFFFFFFFFFFFFFFFFFFFFFFFFFFFFFFF AND PUSH20 0xFFFFFFFFFFFFFFFFFFFFFFFFFFFFFFFFFFFFFFFF AND DUP2 MSTORE PUSH1 0x20 ADD SWAP1 DUP2 MSTORE PUSH1 0x20 ADD PUSH1 0x0 KECCAK256 SWAP1 PUSH1 0xA PUSH2 0x2A29 SWAP3 SWAP2 SWAP1 PUSH2 0x31BF JUMP JUMPDEST POP PUSH1 0xC8 SWAP2 POP POP SWAP1 JUMP JUMPDEST PUSH1 0x0 PUSH1 0x1 DUP1 PUSH1 0x0 CALLER PUSH20 0xFFFFFFFFFFFFFFFFFFFFFFFFFFFFFFFFFFFFFFFF AND PUSH20 0xFFFFFFFFFFFFFFFFFFFFFFFFFFFFFFFFFFFFFFFF AND DUP2 MSTORE PUSH1 0x20 ADD SWAP1 DUP2 MSTORE PUSH1 0x20 ADD PUSH1 0x0 KECCAK256 PUSH1 0x0 SWAP1 SLOAD SWAP1 PUSH2 0x100 EXP SWAP1 DIV PUSH1 0xFF AND PUSH1 0xFF AND EQ PUSH2 0x2AC5 JUMPI PUSH1 0x40 MLOAD PUSH32 0x8C379A000000000000000000000000000000000000000000000000000000000 DUP2 MSTORE PUSH1 0x4 ADD PUSH2 0x2ABC SWAP1 PUSH2 0x3C70 JUMP JUMPDEST PUSH1 0x40 MLOAD DUP1 SWAP2 SUB SWAP1 REVERT JUMPDEST PUSH2 0x2ACD PUSH2 0x2CCF JUMP JUMPDEST PUSH1 0x40 MLOAD PUSH1 0x20 ADD PUSH2 0x2ADD SWAP2 SWAP1 PUSH2 0x3D01 JUMP JUMPDEST PUSH1 0x40 MLOAD PUSH1 0x20 DUP2 DUP4 SUB SUB DUP2 MSTORE SWAP1 PUSH1 0x40 MSTORE DUP1 MLOAD SWAP1 PUSH1 0x20 ADD KECCAK256 DUP3 PUSH1 0x40 MLOAD PUSH1 0x20 ADD PUSH2 0x2B04 SWAP2 SWAP1 PUSH2 0x3D01 JUMP JUMPDEST PUSH1 0x40 MLOAD PUSH1 0x20 DUP2 DUP4 SUB SUB DUP2 MSTORE SWAP1 PUSH1 0x40 MSTORE DUP1 MLOAD SWAP1 PUSH1 0x20 ADD KECCAK256 EQ PUSH2 0x2B81 JUMPI PUSH1 0x0 PUSH1 0x1 PUSH1 0x0 CALLER PUSH20 0xFFFFFFFFFFFFFFFFFFFFFFFFFFFFFFFFFFFFFFFF AND PUSH20 0xFFFFFFFFFFFFFFFFFFFFFFFFFFFFFFFFFFFFFFFF AND DUP2 MSTORE PUSH1 0x20 ADD SWAP1 DUP2 MSTORE PUSH1 0x20 ADD PUSH1 0x0 KECCAK256 PUSH1 0x0 PUSH2 0x100 EXP DUP2 SLOAD DUP2 PUSH1 0xFF MUL NOT AND SWAP1 DUP4 PUSH1 0xFF AND MUL OR SWAP1 SSTORE POP PUSH1 0xCC SWAP1 POP PUSH2 0x2C6C JUMP JUMPDEST PUSH1 0x2 PUSH1 0x0 SWAP1 SLOAD SWAP1 PUSH2 0x100 EXP SWAP1 DIV PUSH20 0xFFFFFFFFFFFFFFFFFFFFFFFFFFFFFFFFFFFFFFFF AND PUSH20 0xFFFFFFFFFFFFFFFFFFFFFFFFFFFFFFFFFFFFFFFF AND PUSH4 0x40D097C3 CALLER PUSH1 0x40 MLOAD DUP3 PUSH4 0xFFFFFFFF AND PUSH1 0xE0 SHL DUP2 MSTORE PUSH1 0x4 ADD PUSH2 0x2BDC SWAP2 SWAP1 PUSH2 0x3D39 JUMP JUMPDEST PUSH1 0x0 PUSH1 0x40 MLOAD DUP1 DUP4 SUB DUP2 PUSH1 0x0 DUP8 DUP1 EXTCODESIZE ISZERO DUP1 ISZERO PUSH2 0x2BF6 JUMPI PUSH1 0x0 DUP1 REVERT JUMPDEST POP GAS CALL ISZERO DUP1 ISZERO PUSH2 0x2C0A JUMPI RETURNDATASIZE PUSH1 0x0 DUP1 RETURNDATACOPY RETURNDATASIZE PUSH1 0x0 REVERT JUMPDEST POP POP POP POP PUSH1 0x2 PUSH1 0x1 PUSH1 0x0 CALLER PUSH20 0xFFFFFFFFFFFFFFFFFFFFFFFFFFFFFFFFFFFFFFFF AND PUSH20 0xFFFFFFFFFFFFFFFFFFFFFFFFFFFFFFFFFFFFFFFF AND DUP2 MSTORE PUSH1 0x20 ADD SWAP1 DUP2 MSTORE PUSH1 0x20 ADD PUSH1 0x0 KECCAK256 PUSH1 0x0 PUSH2 0x100 EXP DUP2 SLOAD DUP2 PUSH1 0xFF MUL NOT AND SWAP1 DUP4 PUSH1 0xFF AND MUL OR SWAP1 SSTORE POP PUSH1 0xC8 SWAP1 POP JUMPDEST SWAP2 SWAP1 POP JUMP JUMPDEST PUSH1 0x0 DUP1 PUSH1 0x64 CALLER PUSH1 0x3 SLOAD PUSH1 0x40 MLOAD PUSH1 0x20 ADD PUSH2 0x2C8B SWAP3 SWAP2 SWAP1 PUSH2 0x3DC7 JUMP JUMPDEST PUSH1 0x40 MLOAD PUSH1 0x20 DUP2 DUP4 SUB SUB DUP2 MSTORE SWAP1 PUSH1 0x40 MSTORE DUP1 MLOAD SWAP1 PUSH1 0x20 ADD KECCAK256 PUSH1 0x0 SHR PUSH2 0x2CAE SWAP2 SWAP1 PUSH2 0x3DF3 JUMP JUMPDEST SWAP1 POP PUSH1 0x3 PUSH1 0x0 DUP2 SLOAD DUP1 SWAP3 SWAP2 SWAP1 PUSH2 0x2CC3 SWAP1 PUSH2 0x3E24 JUMP JUMPDEST SWAP2 SWAP1 POP SSTORE POP DUP1 SWAP2 POP POP SWAP1 JUMP JUMPDEST PUSH1 0x60 DUP1 PUSH1 0x0 DUP1 PUSH1 0x0 CALLER PUSH20 0xFFFFFFFFFFFFFFFFFFFFFFFFFFFFFFFFFFFFFFFF AND PUSH20 0xFFFFFFFFFFFFFFFFFFFFFFFFFFFFFFFFFFFFFFFF AND DUP2 MSTORE PUSH1 0x20 ADD SWAP1 DUP2 MSTORE PUSH1 0x20 ADD PUSH1 0x0 KECCAK256 PUSH1 0xA DUP1 PUSH1 0x20 MUL PUSH1 0x40 MLOAD SWAP1 DUP2 ADD PUSH1 0x40 MSTORE DUP1 SWAP3 SWAP2 SWAP1 PUSH1 0x0 SWAP1 JUMPDEST DUP3 DUP3 LT ISZERO PUSH2 0x2DA5 JUMPI DUP4 DUP3 ADD PUSH1 0xA DUP1 PUSH1 0x20 MUL PUSH1 0x40 MLOAD SWAP1 DUP2 ADD PUSH1 0x40 MSTORE DUP1 SWAP3 SWAP2 SWAP1 DUP3 PUSH1 0xA DUP1 ISZERO PUSH2 0x2D91 JUMPI PUSH1 0x20 MUL DUP3 ADD SWAP2 PUSH1 0x0 SWAP1 JUMPDEST DUP3 DUP3 SWAP1 SLOAD SWAP1 PUSH2 0x100 EXP SWAP1 DIV PUSH1 0xFF AND PUSH1 0xFF AND DUP2 MSTORE PUSH1 0x20 ADD SWAP1 PUSH1 0x1 ADD SWAP1 PUSH1 0x20 DUP3 PUSH1 0x0 ADD DIV SWAP3 DUP4 ADD SWAP3 PUSH1 0x1 SUB DUP3 MUL SWAP2 POP DUP1 DUP5 GT PUSH2 0x2D5A JUMPI SWAP1 POP JUMPDEST POP POP POP POP POP DUP2 MSTORE PUSH1 0x20 ADD SWAP1 PUSH1 0x1 ADD SWAP1 PUSH2 0x2D29 JUMP JUMPDEST POP POP POP POP SWAP1 POP PUSH1 0x0 PUSH1 0x1 SWAP1 POP PUSH1 0x0 JUMPDEST PUSH1 0xA DUP2 PUSH1 0xFF AND LT ISZERO PUSH2 0x2EF2 JUMPI PUSH1 0x0 JUMPDEST PUSH1 0xA DUP2 PUSH1 0xFF AND LT ISZERO PUSH2 0x2EDE JUMPI PUSH1 0xC8 DUP5 DUP4 PUSH1 0xFF AND PUSH1 0xA DUP2 LT PUSH2 0x2DE7 JUMPI PUSH2 0x2DE6 PUSH2 0x377F JUMP JUMPDEST JUMPDEST PUSH1 0x20 MUL ADD MLOAD DUP3 PUSH1 0xFF AND PUSH1 0xA DUP2 LT PUSH2 0x2E01 JUMPI PUSH2 0x2E00 PUSH2 0x377F JUMP JUMPDEST JUMPDEST PUSH1 0x20 MUL ADD MLOAD PUSH1 0xFF AND SUB PUSH2 0x2ECB JUMPI DUP3 ISZERO PUSH2 0x2E61 JUMPI PUSH2 0x2E37 DUP2 PUSH1 0xA DUP5 PUSH2 0x2E25 SWAP2 SWAP1 PUSH2 0x383B JUMP JUMPDEST PUSH2 0x2E2F SWAP2 SWAP1 PUSH2 0x3806 JUMP JUMPDEST PUSH1 0xFF AND PUSH2 0x2EFC JUMP JUMPDEST PUSH1 0x40 MLOAD PUSH1 0x20 ADD PUSH2 0x2E47 SWAP2 SWAP1 PUSH2 0x3D01 JUMP JUMPDEST PUSH1 0x40 MLOAD PUSH1 0x20 DUP2 DUP4 SUB SUB DUP2 MSTORE SWAP1 PUSH1 0x40 MSTORE SWAP5 POP PUSH1 0x0 SWAP3 POP PUSH2 0x2ECA JUMP JUMPDEST DUP5 PUSH1 0x40 MLOAD PUSH1 0x20 ADD PUSH2 0x2E72 SWAP2 SWAP1 PUSH2 0x3EFF JUMP JUMPDEST PUSH1 0x40 MLOAD PUSH1 0x20 DUP2 DUP4 SUB SUB DUP2 MSTORE SWAP1 PUSH1 0x40 MSTORE SWAP5 POP DUP5 PUSH2 0x2EA7 DUP3 PUSH1 0xA DUP6 PUSH2 0x2E95 SWAP2 SWAP1 PUSH2 0x383B JUMP JUMPDEST PUSH2 0x2E9F SWAP2 SWAP1 PUSH2 0x3806 JUMP JUMPDEST PUSH1 0xFF AND PUSH2 0x2EFC JUMP JUMPDEST PUSH1 0x40 MLOAD PUSH1 0x20 ADD PUSH2 0x2EB8 SWAP3 SWAP2 SWAP1 PUSH2 0x3F21 JUMP JUMPDEST PUSH1 0x40 MLOAD PUSH1 0x20 DUP2 DUP4 SUB SUB DUP2 MSTORE SWAP1 PUSH1 0x40 MSTORE SWAP5 POP JUMPDEST JUMPDEST DUP1 DUP1 PUSH2 0x2ED6 SWAP1 PUSH2 0x37DD JUMP JUMPDEST SWAP2 POP POP PUSH2 0x2DC3 JUMP JUMPDEST POP DUP1 DUP1 PUSH2 0x2EEA SWAP1 PUSH2 0x37DD JUMP JUMPDEST SWAP2 POP POP PUSH2 0x2DB4 JUMP JUMPDEST POP DUP3 SWAP4 POP POP POP POP SWAP1 JUMP JUMPDEST PUSH1 0x60 PUSH1 0x0 PUSH1 0x1 PUSH2 0x2F0B DUP5 PUSH2 0x2FCA JUMP JUMPDEST ADD SWAP1 POP PUSH1 0x0 DUP2 PUSH8 0xFFFFFFFFFFFFFFFF DUP2 GT ISZERO PUSH2 0x2F2A JUMPI PUSH2 0x2F29 PUSH2 0x3568 JUMP JUMPDEST JUMPDEST PUSH1 0x40 MLOAD SWAP1 DUP1 DUP3 MSTORE DUP1 PUSH1 0x1F ADD PUSH1 0x1F NOT AND PUSH1 0x20 ADD DUP3 ADD PUSH1 0x40 MSTORE DUP1 ISZERO PUSH2 0x2F5C JUMPI DUP2 PUSH1 0x20 ADD PUSH1 0x1 DUP3 MUL DUP1 CALLDATASIZE DUP4 CALLDATACOPY DUP1 DUP3 ADD SWAP2 POP POP SWAP1 POP JUMPDEST POP SWAP1 POP PUSH1 0x0 DUP3 PUSH1 0x20 ADD DUP3 ADD SWAP1 POP JUMPDEST PUSH1 0x1 ISZERO PUSH2 0x2FBF JUMPI DUP1 DUP1 PUSH1 0x1 SWAP1 SUB SWAP2 POP POP PUSH32 0x3031323334353637383961626364656600000000000000000000000000000000 PUSH1 0xA DUP7 MOD BYTE DUP2 MSTORE8 PUSH1 0xA DUP6 DUP2 PUSH2 0x2FB3 JUMPI PUSH2 0x2FB2 PUSH2 0x3878 JUMP JUMPDEST JUMPDEST DIV SWAP5 POP PUSH1 0x0 DUP6 SUB PUSH2 0x2F6A JUMPI JUMPDEST DUP2 SWAP4 POP POP POP POP SWAP2 SWAP1 POP JUMP JUMPDEST PUSH1 0x0 DUP1 PUSH1 0x0 SWAP1 POP PUSH27 0x184F03E93FF9F4DAA797ED6E38ED64BF6A1F010000000000000000 DUP4 LT PUSH2 0x3028 JUMPI PUSH27 0x184F03E93FF9F4DAA797ED6E38ED64BF6A1F010000000000000000 DUP4 DUP2 PUSH2 0x301E JUMPI PUSH2 0x301D PUSH2 0x3878 JUMP JUMPDEST JUMPDEST DIV SWAP3 POP PUSH1 0x40 DUP2 ADD SWAP1 POP JUMPDEST PUSH14 0x4EE2D6D415B85ACEF8100000000 DUP4 LT PUSH2 0x3065 JUMPI PUSH14 0x4EE2D6D415B85ACEF8100000000 DUP4 DUP2 PUSH2 0x305B JUMPI PUSH2 0x305A PUSH2 0x3878 JUMP JUMPDEST JUMPDEST DIV SWAP3 POP PUSH1 0x20 DUP2 ADD SWAP1 POP JUMPDEST PUSH7 0x2386F26FC10000 DUP4 LT PUSH2 0x3094 JUMPI PUSH7 0x2386F26FC10000 DUP4 DUP2 PUSH2 0x308A JUMPI PUSH2 0x3089 PUSH2 0x3878 JUMP JUMPDEST JUMPDEST DIV SWAP3 POP PUSH1 0x10 DUP2 ADD SWAP1 POP JUMPDEST PUSH4 0x5F5E100 DUP4 LT PUSH2 0x30BD JUMPI PUSH4 0x5F5E100 DUP4 DUP2 PUSH2 0x30B3 JUMPI PUSH2 0x30B2 PUSH2 0x3878 JUMP JUMPDEST JUMPDEST DIV SWAP3 POP PUSH1 0x8 DUP2 ADD SWAP1 POP JUMPDEST PUSH2 0x2710 DUP4 LT PUSH2 0x30E2 JUMPI PUSH2 0x2710 DUP4 DUP2 PUSH2 0x30D8 JUMPI PUSH2 0x30D7 PUSH2 0x3878 JUMP JUMPDEST JUMPDEST DIV SWAP3 POP PUSH1 0x4 DUP2 ADD SWAP1 POP JUMPDEST PUSH1 0x64 DUP4 LT PUSH2 0x3105 JUMPI PUSH1 0x64 DUP4 DUP2 PUSH2 0x30FB JUMPI PUSH2 0x30FA PUSH2 0x3878 JUMP JUMPDEST JUMPDEST DIV SWAP3 POP PUSH1 0x2 DUP2 ADD SWAP1 POP JUMPDEST PUSH1 0xA DUP4 LT PUSH2 0x3114 JUMPI PUSH1 0x1 DUP2 ADD SWAP1 POP JUMPDEST DUP1 SWAP2 POP POP SWAP2 SWAP1 POP JUMP JUMPDEST PUSH1 0x40 MLOAD DUP1 PUSH2 0xC80 ADD PUSH1 0x40 MSTORE DUP1 PUSH1 0x64 SWAP1 PUSH1 0x20 DUP3 MUL DUP1 CALLDATASIZE DUP4 CALLDATACOPY DUP1 DUP3 ADD SWAP2 POP POP SWAP1 POP POP SWAP1 JUMP JUMPDEST PUSH1 0x40 MLOAD DUP1 PUSH2 0xA00 ADD PUSH1 0x40 MSTORE DUP1 PUSH1 0x50 SWAP1 PUSH1 0x20 DUP3 MUL DUP1 CALLDATASIZE DUP4 CALLDATACOPY DUP1 DUP3 ADD SWAP2 POP POP SWAP1 POP POP SWAP1 JUMP JUMPDEST PUSH1 0x40 MLOAD DUP1 PUSH2 0x180 ADD PUSH1 0x40 MSTORE DUP1 PUSH1 0xC SWAP1 JUMPDEST PUSH2 0x317B PUSH2 0x320D JUMP JUMPDEST DUP2 MSTORE PUSH1 0x20 ADD SWAP1 PUSH1 0x1 SWAP1 SUB SWAP1 DUP2 PUSH2 0x3173 JUMPI SWAP1 POP POP SWAP1 JUMP JUMPDEST PUSH1 0x40 MLOAD DUP1 PUSH2 0x140 ADD PUSH1 0x40 MSTORE DUP1 PUSH1 0xA SWAP1 JUMPDEST PUSH2 0x31A9 PUSH2 0x3230 JUMP JUMPDEST DUP2 MSTORE PUSH1 0x20 ADD SWAP1 PUSH1 0x1 SWAP1 SUB SWAP1 DUP2 PUSH2 0x31A1 JUMPI SWAP1 POP POP SWAP1 JUMP JUMPDEST DUP3 PUSH1 0xA DUP2 ADD SWAP3 DUP3 ISZERO PUSH2 0x31FC JUMPI SWAP2 PUSH1 0x20 MUL DUP3 ADD JUMPDEST DUP3 DUP2 GT ISZERO PUSH2 0x31FB JUMPI DUP3 MLOAD DUP3 SWAP1 PUSH1 0xA PUSH2 0x31EB SWAP3 SWAP2 SWAP1 PUSH2 0x3253 JUMP JUMPDEST POP SWAP2 PUSH1 0x20 ADD SWAP2 SWAP1 PUSH1 0x1 ADD SWAP1 PUSH2 0x31D2 JUMP JUMPDEST JUMPDEST POP SWAP1 POP PUSH2 0x3209 SWAP2 SWAP1 PUSH2 0x32ED JUMP JUMPDEST POP SWAP1 JUMP JUMPDEST PUSH1 0x40 MLOAD DUP1 PUSH2 0x180 ADD PUSH1 0x40 MSTORE DUP1 PUSH1 0xC SWAP1 PUSH1 0x20 DUP3 MUL DUP1 CALLDATASIZE DUP4 CALLDATACOPY DUP1 DUP3 ADD SWAP2 POP POP SWAP1 POP POP SWAP1 JUMP JUMPDEST PUSH1 0x40 MLOAD DUP1 PUSH2 0x140 ADD PUSH1 0x40 MSTORE DUP1 PUSH1 0xA SWAP1 PUSH1 0x20 DUP3 MUL DUP1 CALLDATASIZE DUP4 CALLDATACOPY DUP1 DUP3 ADD SWAP2 POP POP SWAP1 POP POP SWAP1 JUMP JUMPDEST DUP3 PUSH1 0xA PUSH1 0x1F ADD PUSH1 0x20 SWAP1 DIV DUP2 ADD SWAP3 DUP3 ISZERO PUSH2 0x32DC JUMPI SWAP2 PUSH1 0x20 MUL DUP3 ADD PUSH1 0x0 JUMPDEST DUP4 DUP3 GT ISZERO PUSH2 0x32AD JUMPI DUP4 MLOAD DUP4 DUP3 PUSH2 0x100 EXP DUP2 SLOAD DUP2 PUSH1 0xFF MUL NOT AND SWAP1 DUP4 PUSH1 0xFF AND MUL OR SWAP1 SSTORE POP SWAP3 PUSH1 0x20 ADD SWAP3 PUSH1 0x1 ADD PUSH1 0x20 DUP2 PUSH1 0x0 ADD DIV SWAP3 DUP4 ADD SWAP3 PUSH1 0x1 SUB MUL PUSH2 0x326F JUMP JUMPDEST DUP1 ISZERO PUSH2 0x32DA JUMPI DUP3 DUP2 PUSH2 0x100 EXP DUP2 SLOAD SWAP1 PUSH1 0xFF MUL NOT AND SWAP1 SSTORE PUSH1 0x1 ADD PUSH1 0x20 DUP2 PUSH1 0x0 ADD DIV SWAP3 DUP4 ADD SWAP3 PUSH1 0x1 SUB MUL PUSH2 0x32AD JUMP JUMPDEST POP JUMPDEST POP SWAP1 POP PUSH2 0x32E9 SWAP2 SWAP1 PUSH2 0x3311 JUMP JUMPDEST POP SWAP1 JUMP JUMPDEST JUMPDEST DUP1 DUP3 GT ISZERO PUSH2 0x330D JUMPI PUSH1 0x0 DUP2 DUP2 PUSH2 0x3304 SWAP2 SWAP1 PUSH2 0x332E JUMP JUMPDEST POP PUSH1 0x1 ADD PUSH2 0x32EE JUMP JUMPDEST POP SWAP1 JUMP JUMPDEST JUMPDEST DUP1 DUP3 GT ISZERO PUSH2 0x332A JUMPI PUSH1 0x0 DUP2 PUSH1 0x0 SWAP1 SSTORE POP PUSH1 0x1 ADD PUSH2 0x3312 JUMP JUMPDEST POP SWAP1 JUMP JUMPDEST POP PUSH1 0x0 SWAP1 SSTORE JUMP JUMPDEST PUSH1 0x0 PUSH1 0x40 MLOAD SWAP1 POP SWAP1 JUMP JUMPDEST PUSH1 0x0 DUP1 REVERT JUMPDEST PUSH1 0x0 DUP1 REVERT JUMPDEST PUSH1 0x0 PUSH1 0xFF DUP3 AND SWAP1 POP SWAP2 SWAP1 POP JUMP JUMPDEST PUSH2 0x335F DUP2 PUSH2 0x3349 JUMP JUMPDEST DUP2 EQ PUSH2 0x336A JUMPI PUSH1 0x0 DUP1 REVERT JUMPDEST POP JUMP JUMPDEST PUSH1 0x0 DUP2 CALLDATALOAD SWAP1 POP PUSH2 0x337C DUP2 PUSH2 0x3356 JUMP JUMPDEST SWAP3 SWAP2 POP POP JUMP JUMPDEST PUSH1 0x0 DUP1 PUSH1 0x40 DUP4 DUP6 SUB SLT ISZERO PUSH2 0x3399 JUMPI PUSH2 0x3398 PUSH2 0x333F JUMP JUMPDEST JUMPDEST PUSH1 0x0 PUSH2 0x33A7 DUP6 DUP3 DUP7 ADD PUSH2 0x336D JUMP JUMPDEST SWAP3 POP POP PUSH1 0x20 PUSH2 0x33B8 DUP6 DUP3 DUP7 ADD PUSH2 0x336D JUMP JUMPDEST SWAP2 POP POP SWAP3 POP SWAP3 SWAP1 POP JUMP JUMPDEST PUSH1 0x0 PUSH1 0x64 SWAP1 POP SWAP2 SWAP1 POP JUMP JUMPDEST PUSH1 0x0 DUP2 SWAP1 POP SWAP3 SWAP2 POP POP JUMP JUMPDEST PUSH1 0x0 DUP2 SWAP1 POP SWAP2 SWAP1 POP JUMP JUMPDEST PUSH2 0x33EB DUP2 PUSH2 0x3349 JUMP JUMPDEST DUP3 MSTORE POP POP JUMP JUMPDEST PUSH1 0x0 PUSH2 0x33FD DUP4 DUP4 PUSH2 0x33E2 JUMP JUMPDEST PUSH1 0x20 DUP4 ADD SWAP1 POP SWAP3 SWAP2 POP POP JUMP JUMPDEST PUSH1 0x0 PUSH1 0x20 DUP3 ADD SWAP1 POP SWAP2 SWAP1 POP JUMP JUMPDEST PUSH2 0x341F DUP2 PUSH2 0x33C2 JUMP JUMPDEST PUSH2 0x3429 DUP2 DUP5 PUSH2 0x33CD JUMP JUMPDEST SWAP3 POP PUSH2 0x3434 DUP3 PUSH2 0x33D8 JUMP JUMPDEST DUP1 PUSH1 0x0 JUMPDEST DUP4 DUP2 LT ISZERO PUSH2 0x3465 JUMPI DUP2 MLOAD PUSH2 0x344C DUP8 DUP3 PUSH2 0x33F1 JUMP JUMPDEST SWAP7 POP PUSH2 0x3457 DUP4 PUSH2 0x3409 JUMP JUMPDEST SWAP3 POP POP PUSH1 0x1 DUP2 ADD SWAP1 POP PUSH2 0x3438 JUMP JUMPDEST POP POP POP POP POP POP JUMP JUMPDEST PUSH1 0x0 PUSH2 0xC80 DUP3 ADD SWAP1 POP PUSH2 0x3483 PUSH1 0x0 DUP4 ADD DUP5 PUSH2 0x3416 JUMP JUMPDEST SWAP3 SWAP2 POP POP JUMP JUMPDEST PUSH2 0x3492 DUP2 PUSH2 0x3349 JUMP JUMPDEST DUP3 MSTORE POP POP JUMP JUMPDEST PUSH1 0x0 PUSH1 0x20 DUP3 ADD SWAP1 POP PUSH2 0x34AD PUSH1 0x0 DUP4 ADD DUP5 PUSH2 0x3489 JUMP JUMPDEST SWAP3 SWAP2 POP POP JUMP JUMPDEST PUSH1 0x0 PUSH20 0xFFFFFFFFFFFFFFFFFFFFFFFFFFFFFFFFFFFFFFFF DUP3 AND SWAP1 POP SWAP2 SWAP1 POP JUMP JUMPDEST PUSH1 0x0 DUP2 SWAP1 POP SWAP2 SWAP1 POP JUMP JUMPDEST PUSH1 0x0 PUSH2 0x34F8 PUSH2 0x34F3 PUSH2 0x34EE DUP5 PUSH2 0x34B3 JUMP JUMPDEST PUSH2 0x34D3 JUMP JUMPDEST PUSH2 0x34B3 JUMP JUMPDEST SWAP1 POP SWAP2 SWAP1 POP JUMP JUMPDEST PUSH1 0x0 PUSH2 0x350A DUP3 PUSH2 0x34DD JUMP JUMPDEST SWAP1 POP SWAP2 SWAP1 POP JUMP JUMPDEST PUSH1 0x0 PUSH2 0x351C DUP3 PUSH2 0x34FF JUMP JUMPDEST SWAP1 POP SWAP2 SWAP1 POP JUMP JUMPDEST PUSH2 0x352C DUP2 PUSH2 0x3511 JUMP JUMPDEST DUP3 MSTORE POP POP JUMP JUMPDEST PUSH1 0x0 PUSH1 0x20 DUP3 ADD SWAP1 POP PUSH2 0x3547 PUSH1 0x0 DUP4 ADD DUP5 PUSH2 0x3523 JUMP JUMPDEST SWAP3 SWAP2 POP POP JUMP JUMPDEST PUSH1 0x0 DUP1 REVERT JUMPDEST PUSH1 0x0 DUP1 REVERT JUMPDEST PUSH1 0x0 PUSH1 0x1F NOT PUSH1 0x1F DUP4 ADD AND SWAP1 POP SWAP2 SWAP1 POP JUMP JUMPDEST PUSH32 0x4E487B7100000000000000000000000000000000000000000000000000000000 PUSH1 0x0 MSTORE PUSH1 0x41 PUSH1 0x4 MSTORE PUSH1 0x24 PUSH1 0x0 REVERT JUMPDEST PUSH2 0x35A0 DUP3 PUSH2 0x3557 JUMP JUMPDEST DUP2 ADD DUP2 DUP2 LT PUSH8 0xFFFFFFFFFFFFFFFF DUP3 GT OR ISZERO PUSH2 0x35BF JUMPI PUSH2 0x35BE PUSH2 0x3568 JUMP JUMPDEST JUMPDEST DUP1 PUSH1 0x40 MSTORE POP POP POP JUMP JUMPDEST PUSH1 0x0 PUSH2 0x35D2 PUSH2 0x3335 JUMP JUMPDEST SWAP1 POP PUSH2 0x35DE DUP3 DUP3 PUSH2 0x3597 JUMP JUMPDEST SWAP2 SWAP1 POP JUMP JUMPDEST PUSH1 0x0 PUSH8 0xFFFFFFFFFFFFFFFF DUP3 GT ISZERO PUSH2 0x35FE JUMPI PUSH2 0x35FD PUSH2 0x3568 JUMP JUMPDEST JUMPDEST PUSH2 0x3607 DUP3 PUSH2 0x3557 JUMP JUMPDEST SWAP1 POP PUSH1 0x20 DUP2 ADD SWAP1 POP SWAP2 SWAP1 POP JUMP JUMPDEST DUP3 DUP2 DUP4 CALLDATACOPY PUSH1 0x0 DUP4 DUP4 ADD MSTORE POP POP POP JUMP JUMPDEST PUSH1 0x0 PUSH2 0x3636 PUSH2 0x3631 DUP5 PUSH2 0x35E3 JUMP JUMPDEST PUSH2 0x35C8 JUMP JUMPDEST SWAP1 POP DUP3 DUP2 MSTORE PUSH1 0x20 DUP2 ADD DUP5 DUP5 DUP5 ADD GT ISZERO PUSH2 0x3652 JUMPI PUSH2 0x3651 PUSH2 0x3552 JUMP JUMPDEST JUMPDEST PUSH2 0x365D DUP5 DUP3 DUP6 PUSH2 0x3614 JUMP JUMPDEST POP SWAP4 SWAP3 POP POP POP JUMP JUMPDEST PUSH1 0x0 DUP3 PUSH1 0x1F DUP4 ADD SLT PUSH2 0x367A JUMPI PUSH2 0x3679 PUSH2 0x354D JUMP JUMPDEST JUMPDEST DUP2 CALLDATALOAD PUSH2 0x368A DUP5 DUP3 PUSH1 0x20 DUP7 ADD PUSH2 0x3623 JUMP JUMPDEST SWAP2 POP POP SWAP3 SWAP2 POP POP JUMP JUMPDEST PUSH1 0x0 PUSH1 0x20 DUP3 DUP5 SUB SLT ISZERO PUSH2 0x36A9 JUMPI PUSH2 0x36A8 PUSH2 0x333F JUMP JUMPDEST JUMPDEST PUSH1 0x0 DUP3 ADD CALLDATALOAD PUSH8 0xFFFFFFFFFFFFFFFF DUP2 GT ISZERO PUSH2 0x36C7 JUMPI PUSH2 0x36C6 PUSH2 0x3344 JUMP JUMPDEST JUMPDEST PUSH2 0x36D3 DUP5 DUP3 DUP6 ADD PUSH2 0x3665 JUMP JUMPDEST SWAP2 POP POP SWAP3 SWAP2 POP POP JUMP JUMPDEST PUSH1 0x0 DUP3 DUP3 MSTORE PUSH1 0x20 DUP3 ADD SWAP1 POP SWAP3 SWAP2 POP POP JUMP JUMPDEST PUSH32 0x476F696E67206265796F6E642074686520626F756E646172696573206F662074 PUSH1 0x0 DUP3 ADD MSTORE PUSH32 0x686520706C6179696E67206669656C6421000000000000000000000000000000 PUSH1 0x20 DUP3 ADD MSTORE POP JUMP JUMPDEST PUSH1 0x0 PUSH2 0x3749 PUSH1 0x31 DUP4 PUSH2 0x36DC JUMP JUMPDEST SWAP2 POP PUSH2 0x3754 DUP3 PUSH2 0x36ED JUMP JUMPDEST PUSH1 0x40 DUP3 ADD SWAP1 POP SWAP2 SWAP1 POP JUMP JUMPDEST PUSH1 0x0 PUSH1 0x20 DUP3 ADD SWAP1 POP DUP2 DUP2 SUB PUSH1 0x0 DUP4 ADD MSTORE PUSH2 0x3778 DUP2 PUSH2 0x373C JUMP JUMPDEST SWAP1 POP SWAP2 SWAP1 POP JUMP JUMPDEST PUSH32 0x4E487B7100000000000000000000000000000000000000000000000000000000 PUSH1 0x0 MSTORE PUSH1 0x32 PUSH1 0x4 MSTORE PUSH1 0x24 PUSH1 0x0 REVERT JUMPDEST PUSH32 0x4E487B7100000000000000000000000000000000000000000000000000000000 PUSH1 0x0 MSTORE PUSH1 0x11 PUSH1 0x4 MSTORE PUSH1 0x24 PUSH1 0x0 REVERT JUMPDEST PUSH1 0x0 PUSH2 0x37E8 DUP3 PUSH2 0x3349 JUMP JUMPDEST SWAP2 POP PUSH1 0xFF DUP3 SUB PUSH2 0x37FB JUMPI PUSH2 0x37FA PUSH2 0x37AE JUMP JUMPDEST JUMPDEST PUSH1 0x1 DUP3 ADD SWAP1 POP SWAP2 SWAP1 POP JUMP JUMPDEST PUSH1 0x0 PUSH2 0x3811 DUP3 PUSH2 0x3349 JUMP JUMPDEST SWAP2 POP PUSH2 0x381C DUP4 PUSH2 0x3349 JUMP JUMPDEST SWAP3 POP DUP3 DUP3 ADD SWAP1 POP PUSH1 0xFF DUP2 GT ISZERO PUSH2 0x3835 JUMPI PUSH2 0x3834 PUSH2 0x37AE JUMP JUMPDEST JUMPDEST SWAP3 SWAP2 POP POP JUMP JUMPDEST PUSH1 0x0 PUSH2 0x3846 DUP3 PUSH2 0x3349 JUMP JUMPDEST SWAP2 POP PUSH2 0x3851 DUP4 PUSH2 0x3349 JUMP JUMPDEST SWAP3 POP DUP3 DUP3 MUL PUSH2 0x385F DUP2 PUSH2 0x3349 JUMP JUMPDEST SWAP2 POP DUP1 DUP3 EQ PUSH2 0x3871 JUMPI PUSH2 0x3870 PUSH2 0x37AE JUMP JUMPDEST JUMPDEST POP SWAP3 SWAP2 POP POP JUMP JUMPDEST PUSH32 0x4E487B7100000000000000000000000000000000000000000000000000000000 PUSH1 0x0 MSTORE PUSH1 0x12 PUSH1 0x4 MSTORE PUSH1 0x24 PUSH1 0x0 REVERT JUMPDEST PUSH1 0x0 PUSH2 0x38B2 DUP3 PUSH2 0x3349 JUMP JUMPDEST SWAP2 POP PUSH2 0x38BD DUP4 PUSH2 0x3349 JUMP JUMPDEST SWAP3 POP DUP3 PUSH2 0x38CD JUMPI PUSH2 0x38CC PUSH2 0x3878 JUMP JUMPDEST JUMPDEST DUP3 DUP3 DIV SWAP1 POP SWAP3 SWAP2 POP POP JUMP JUMPDEST PUSH1 0x0 PUSH2 0x38E3 DUP3 PUSH2 0x3349 JUMP JUMPDEST SWAP2 POP PUSH2 0x38EE DUP4 PUSH2 0x3349 JUMP JUMPDEST SWAP3 POP DUP3 PUSH2 0x38FE JUMPI PUSH2 0x38FD PUSH2 0x3878 JUMP JUMPDEST JUMPDEST DUP3 DUP3 MOD SWAP1 POP SWAP3 SWAP2 POP POP JUMP JUMPDEST PUSH1 0x0 PUSH2 0x3914 DUP3 PUSH2 0x3349 JUMP JUMPDEST SWAP2 POP PUSH2 0x391F DUP4 PUSH2 0x3349 JUMP JUMPDEST SWAP3 POP DUP3 DUP3 SUB SWAP1 POP PUSH1 0xFF DUP2 GT ISZERO PUSH2 0x3938 JUMPI PUSH2 0x3937 PUSH2 0x37AE JUMP JUMPDEST JUMPDEST SWAP3 SWAP2 POP POP JUMP JUMPDEST PUSH32 0x546F206578706C6F6465206F6E206120626F6D622C20796F75206D7573742068 PUSH1 0x0 DUP3 ADD MSTORE PUSH32 0x6176652074686520737461747573206F662067616D6520312C20696620796F75 PUSH1 0x20 DUP3 ADD MSTORE PUSH32 0x206861766520636F6D706C65746564207468652067616D652C207468656E2079 PUSH1 0x40 DUP3 ADD MSTORE PUSH32 0x6F752077696C6C206E6F742062652061626C6520746F20616374697661746520 PUSH1 0x60 DUP3 ADD MSTORE PUSH32 0x74686520626F6D62206569746865722100000000000000000000000000000000 PUSH1 0x80 DUP3 ADD MSTORE POP JUMP JUMPDEST PUSH1 0x0 PUSH2 0x3A0C PUSH1 0x90 DUP4 PUSH2 0x36DC JUMP JUMPDEST SWAP2 POP PUSH2 0x3A17 DUP3 PUSH2 0x393E JUMP JUMPDEST PUSH1 0xA0 DUP3 ADD SWAP1 POP SWAP2 SWAP1 POP JUMP JUMPDEST PUSH1 0x0 PUSH1 0x20 DUP3 ADD SWAP1 POP DUP2 DUP2 SUB PUSH1 0x0 DUP4 ADD MSTORE PUSH2 0x3A3B DUP2 PUSH2 0x39FF JUMP JUMPDEST SWAP1 POP SWAP2 SWAP1 POP JUMP JUMPDEST PUSH32 0x596F752063616E6E6F7420636F6D706C657465207468652067616D6520626563 PUSH1 0x0 DUP3 ADD MSTORE PUSH32 0x6175736520746869732063656C6C206973206E6F74206120626F6D62203B2900 PUSH1 0x20 DUP3 ADD MSTORE POP JUMP JUMPDEST PUSH1 0x0 PUSH2 0x3A9E PUSH1 0x3F DUP4 PUSH2 0x36DC JUMP JUMPDEST SWAP2 POP PUSH2 0x3AA9 DUP3 PUSH2 0x3A42 JUMP JUMPDEST PUSH1 0x40 DUP3 ADD SWAP1 POP SWAP2 SWAP1 POP JUMP JUMPDEST PUSH1 0x0 PUSH1 0x20 DUP3 ADD SWAP1 POP DUP2 DUP2 SUB PUSH1 0x0 DUP4 ADD MSTORE PUSH2 0x3ACD DUP2 PUSH2 0x3A91 JUMP JUMPDEST SWAP1 POP SWAP2 SWAP1 POP JUMP JUMPDEST PUSH32 0x416674657220636F6D706C6574696E67207468652067616D652C206974206973 PUSH1 0x0 DUP3 ADD MSTORE PUSH32 0x20696D706F737369626C6520746F20636F6D706C657465207468652067616D65 PUSH1 0x20 DUP3 ADD MSTORE PUSH32 0x20616761696E2100000000000000000000000000000000000000000000000000 PUSH1 0x40 DUP3 ADD MSTORE POP JUMP JUMPDEST PUSH1 0x0 PUSH2 0x3B56 PUSH1 0x47 DUP4 PUSH2 0x36DC JUMP JUMPDEST SWAP2 POP PUSH2 0x3B61 DUP3 PUSH2 0x3AD4 JUMP JUMPDEST PUSH1 0x60 DUP3 ADD SWAP1 POP SWAP2 SWAP1 POP JUMP JUMPDEST PUSH1 0x0 PUSH1 0x20 DUP3 ADD SWAP1 POP DUP2 DUP2 SUB PUSH1 0x0 DUP4 ADD MSTORE PUSH2 0x3B85 DUP2 PUSH2 0x3B49 JUMP JUMPDEST SWAP1 POP SWAP2 SWAP1 POP JUMP JUMPDEST PUSH32 0x546F2066696E697368207468652067616D652C20796F75206E65656420746F20 PUSH1 0x0 DUP3 ADD MSTORE PUSH32 0x73746172742069742C20616E6420696620796F75206861766520616C72656164 PUSH1 0x20 DUP3 ADD MSTORE PUSH32 0x7920726563656976656420612063657274696669636174652C207468656E2079 PUSH1 0x40 DUP3 ADD MSTORE PUSH32 0x6F752063616E6E6F74206765742074686520326E642063657274696669636174 PUSH1 0x60 DUP3 ADD MSTORE PUSH32 0x6521000000000000000000000000000000000000000000000000000000000000 PUSH1 0x80 DUP3 ADD MSTORE POP JUMP JUMPDEST PUSH1 0x0 PUSH2 0x3C5A PUSH1 0x82 DUP4 PUSH2 0x36DC JUMP JUMPDEST SWAP2 POP PUSH2 0x3C65 DUP3 PUSH2 0x3B8C JUMP JUMPDEST PUSH1 0xA0 DUP3 ADD SWAP1 POP SWAP2 SWAP1 POP JUMP JUMPDEST PUSH1 0x0 PUSH1 0x20 DUP3 ADD SWAP1 POP DUP2 DUP2 SUB PUSH1 0x0 DUP4 ADD MSTORE PUSH2 0x3C89 DUP2 PUSH2 0x3C4D JUMP JUMPDEST SWAP1 POP SWAP2 SWAP1 POP JUMP JUMPDEST PUSH1 0x0 DUP2 MLOAD SWAP1 POP SWAP2 SWAP1 POP JUMP JUMPDEST PUSH1 0x0 DUP2 SWAP1 POP SWAP3 SWAP2 POP POP JUMP JUMPDEST PUSH1 0x0 JUMPDEST DUP4 DUP2 LT ISZERO PUSH2 0x3CC4 JUMPI DUP1 DUP3 ADD MLOAD DUP2 DUP5 ADD MSTORE PUSH1 0x20 DUP2 ADD SWAP1 POP PUSH2 0x3CA9 JUMP JUMPDEST PUSH1 0x0 DUP5 DUP5 ADD MSTORE POP POP POP POP JUMP JUMPDEST PUSH1 0x0 PUSH2 0x3CDB DUP3 PUSH2 0x3C90 JUMP JUMPDEST PUSH2 0x3CE5 DUP2 DUP6 PUSH2 0x3C9B JUMP JUMPDEST SWAP4 POP PUSH2 0x3CF5 DUP2 DUP6 PUSH1 0x20 DUP7 ADD PUSH2 0x3CA6 JUMP JUMPDEST DUP1 DUP5 ADD SWAP2 POP POP SWAP3 SWAP2 POP POP JUMP JUMPDEST PUSH1 0x0 PUSH2 0x3D0D DUP3 DUP5 PUSH2 0x3CD0 JUMP JUMPDEST SWAP2 POP DUP2 SWAP1 POP SWAP3 SWAP2 POP POP JUMP JUMPDEST PUSH1 0x0 PUSH2 0x3D23 DUP3 PUSH2 0x34B3 JUMP JUMPDEST SWAP1 POP SWAP2 SWAP1 POP JUMP JUMPDEST PUSH2 0x3D33 DUP2 PUSH2 0x3D18 JUMP JUMPDEST DUP3 MSTORE POP POP JUMP JUMPDEST PUSH1 0x0 PUSH1 0x20 DUP3 ADD SWAP1 POP PUSH2 0x3D4E PUSH1 0x0 DUP4 ADD DUP5 PUSH2 0x3D2A JUMP JUMPDEST SWAP3 SWAP2 POP POP JUMP JUMPDEST PUSH1 0x0 DUP2 PUSH1 0x60 SHL SWAP1 POP SWAP2 SWAP1 POP JUMP JUMPDEST PUSH1 0x0 PUSH2 0x3D6C DUP3 PUSH2 0x3D54 JUMP JUMPDEST SWAP1 POP SWAP2 SWAP1 POP JUMP JUMPDEST PUSH1 0x0 PUSH2 0x3D7E DUP3 PUSH2 0x3D61 JUMP JUMPDEST SWAP1 POP SWAP2 SWAP1 POP JUMP JUMPDEST PUSH2 0x3D96 PUSH2 0x3D91 DUP3 PUSH2 0x3D18 JUMP JUMPDEST PUSH2 0x3D73 JUMP JUMPDEST DUP3 MSTORE POP POP JUMP JUMPDEST PUSH1 0x0 DUP2 SWAP1 POP SWAP2 SWAP1 POP JUMP JUMPDEST PUSH1 0x0 DUP2 SWAP1 POP SWAP2 SWAP1 POP JUMP JUMPDEST PUSH2 0x3DC1 PUSH2 0x3DBC DUP3 PUSH2 0x3D9C JUMP JUMPDEST PUSH2 0x3DA6 JUMP JUMPDEST DUP3 MSTORE POP POP JUMP JUMPDEST PUSH1 0x0 PUSH2 0x3DD3 DUP3 DUP6 PUSH2 0x3D85 JUMP JUMPDEST PUSH1 0x14 DUP3 ADD SWAP2 POP PUSH2 0x3DE3 DUP3 DUP5 PUSH2 0x3DB0 JUMP JUMPDEST PUSH1 0x20 DUP3 ADD SWAP2 POP DUP2 SWAP1 POP SWAP4 SWAP3 POP POP POP JUMP JUMPDEST PUSH1 0x0 PUSH2 0x3DFE DUP3 PUSH2 0x3D9C JUMP JUMPDEST SWAP2 POP PUSH2 0x3E09 DUP4 PUSH2 0x3D9C JUMP JUMPDEST SWAP3 POP DUP3 PUSH2 0x3E19 JUMPI PUSH2 0x3E18 PUSH2 0x3878 JUMP JUMPDEST JUMPDEST DUP3 DUP3 MOD SWAP1 POP SWAP3 SWAP2 POP POP JUMP JUMPDEST PUSH1 0x0 PUSH2 0x3E2F DUP3 PUSH2 0x3D9C JUMP JUMPDEST SWAP2 POP PUSH32 0xFFFFFFFFFFFFFFFFFFFFFFFFFFFFFFFFFFFFFFFFFFFFFFFFFFFFFFFFFFFFFFFF DUP3 SUB PUSH2 0x3E61 JUMPI PUSH2 0x3E60 PUSH2 0x37AE JUMP JUMPDEST JUMPDEST PUSH1 0x1 DUP3 ADD SWAP1 POP SWAP2 SWAP1 POP JUMP JUMPDEST PUSH1 0x0 DUP2 MLOAD SWAP1 POP SWAP2 SWAP1 POP JUMP JUMPDEST PUSH1 0x0 DUP2 SWAP1 POP SWAP3 SWAP2 POP POP JUMP JUMPDEST PUSH1 0x0 PUSH2 0x3E8D DUP3 PUSH2 0x3E6C JUMP JUMPDEST PUSH2 0x3E97 DUP2 DUP6 PUSH2 0x3E77 JUMP JUMPDEST SWAP4 POP PUSH2 0x3EA7 DUP2 DUP6 PUSH1 0x20 DUP7 ADD PUSH2 0x3CA6 JUMP JUMPDEST DUP1 DUP5 ADD SWAP2 POP POP SWAP3 SWAP2 POP POP JUMP JUMPDEST PUSH32 0x5F00000000000000000000000000000000000000000000000000000000000000 PUSH1 0x0 DUP3 ADD MSTORE POP JUMP JUMPDEST PUSH1 0x0 PUSH2 0x3EE9 PUSH1 0x1 DUP4 PUSH2 0x3C9B JUMP JUMPDEST SWAP2 POP PUSH2 0x3EF4 DUP3 PUSH2 0x3EB3 JUMP JUMPDEST PUSH1 0x1 DUP3 ADD SWAP1 POP SWAP2 SWAP1 POP JUMP JUMPDEST PUSH1 0x0 PUSH2 0x3F0B DUP3 DUP5 PUSH2 0x3E82 JUMP JUMPDEST SWAP2 POP PUSH2 0x3F16 DUP3 PUSH2 0x3EDC JUMP JUMPDEST SWAP2 POP DUP2 SWAP1 POP SWAP3 SWAP2 POP POP JUMP JUMPDEST PUSH1 0x0 PUSH2 0x3F2D DUP3 DUP6 PUSH2 0x3E82 JUMP JUMPDEST SWAP2 POP PUSH2 0x3F39 DUP3 DUP5 PUSH2 0x3CD0 JUMP JUMPDEST SWAP2 POP DUP2 SWAP1 POP SWAP4 SWAP3 POP POP POP JUMP INVALID LOG2 PUSH5 0x6970667358 0x22 SLT KECCAK256 0xCD 0xEB ADD SHR 0x5C 0xD9 LOG0 LT DUP1 0xE9 SIGNEXTEND DIV KECCAK256 0xE8 SLOAD 0xC4 PUSH13 0x8AB063679FC7F95B7191858A41 0xE3 0xDB PUSH5 0x736F6C6343 STOP ADDMOD EQ STOP CALLER "},"methodIdentifiers":{"bombActivate(uint8,uint8)":"17fc1963","checkField(uint8,uint8)":"0200d381","endGame(string)":"e9170c3b","getStatusGame()":"50ff5b92","mine()":"99f4b251","saperCertificate()":"28e38cfb","startGame()":"d65ab5f2"}}}}}