{
  "_format": "hh-sol-artifact-1",
  "contractName": "SaperCertificate",
  "sourceName": "contracts/SaperCertificate.sol",
  "abi": [
    {
      "inputs": [],
      "stateMutability": "nonpayable",
      "type": "constructor"
    },
    {
      "inputs": [
        {
          "internalType": "address",
          "name": "sender",
          "type": "address"
        },
        {
          "internalType": "uint256",
          "name": "tokenId",
          "type": "uint256"
        },
        {
          "internalType": "address",
          "name": "owner",
          "type": "address"
        }
      ],
      "name": "ERC721IncorrectOwner",
      "type": "error"
    },
    {
      "inputs": [
        {
          "internalType": "address",
          "name": "operator",
          "type": "address"
        },
        {
          "internalType": "uint256",
          "name": "tokenId",
          "type": "uint256"
        }
      ],
      "name": "ERC721InsufficientApproval",
      "type": "error"
    },
    {
      "inputs": [
        {
          "internalType": "address",
          "name": "approver",
          "type": "address"
        }
      ],
      "name": "ERC721InvalidApprover",
      "type": "error"
    },
    {
      "inputs": [
        {
          "internalType": "address",
          "name": "operator",
          "type": "address"
        }
      ],
      "name": "ERC721InvalidOperator",
      "type": "error"
    },
    {
      "inputs": [
        {
          "internalType": "address",
          "name": "owner",
          "type": "address"
        }
      ],
      "name": "ERC721InvalidOwner",
      "type": "error"
    },
    {
      "inputs": [
        {
          "internalType": "address",
          "name": "receiver",
          "type": "address"
        }
      ],
      "name": "ERC721InvalidReceiver",
      "type": "error"
    },
    {
      "inputs": [
        {
          "internalType": "address",
          "name": "sender",
          "type": "address"
        }
      ],
      "name": "ERC721InvalidSender",
      "type": "error"
    },
    {
      "inputs": [
        {
          "internalType": "uint256",
          "name": "tokenId",
          "type": "uint256"
        }
      ],
      "name": "ERC721NonexistentToken",
      "type": "error"
    },
    {
      "inputs": [
        {
          "internalType": "address",
          "name": "owner",
          "type": "address"
        }
      ],
      "name": "OwnableInvalidOwner",
      "type": "error"
    },
    {
      "inputs": [
        {
          "internalType": "address",
          "name": "account",
          "type": "address"
        }
      ],
      "name": "OwnableUnauthorizedAccount",
      "type": "error"
    },
    {
      "anonymous": false,
      "inputs": [
        {
          "indexed": true,
          "internalType": "address",
          "name": "owner",
          "type": "address"
        },
        {
          "indexed": true,
          "internalType": "address",
          "name": "approved",
          "type": "address"
        },
        {
          "indexed": true,
          "internalType": "uint256",
          "name": "tokenId",
          "type": "uint256"
        }
      ],
      "name": "Approval",
      "type": "event"
    },
    {
      "anonymous": false,
      "inputs": [
        {
          "indexed": true,
          "internalType": "address",
          "name": "owner",
          "type": "address"
        },
        {
          "indexed": true,
          "internalType": "address",
          "name": "operator",
          "type": "address"
        },
        {
          "indexed": false,
          "internalType": "bool",
          "name": "approved",
          "type": "bool"
        }
      ],
      "name": "ApprovalForAll",
      "type": "event"
    },
    {
      "anonymous": false,
      "inputs": [
        {
          "indexed": true,
          "internalType": "address",
          "name": "previousOwner",
          "type": "address"
        },
        {
          "indexed": true,
          "internalType": "address",
          "name": "newOwner",
          "type": "address"
        }
      ],
      "name": "OwnershipTransferred",
      "type": "event"
    },
    {
      "anonymous": false,
      "inputs": [
        {
          "indexed": true,
          "internalType": "address",
          "name": "from",
          "type": "address"
        },
        {
          "indexed": true,
          "internalType": "address",
          "name": "to",
          "type": "address"
        },
        {
          "indexed": true,
          "internalType": "uint256",
          "name": "tokenId",
          "type": "uint256"
        }
      ],
      "name": "Transfer",
      "type": "event"
    },
    {
      "inputs": [
        {
          "internalType": "address",
          "name": "to",
          "type": "address"
        },
        {
          "internalType": "uint256",
          "name": "tokenId",
          "type": "uint256"
        }
      ],
      "name": "approve",
      "outputs": [],
      "stateMutability": "nonpayable",
      "type": "function"
    },
    {
      "inputs": [
        {
          "internalType": "address",
          "name": "owner",
          "type": "address"
        }
      ],
      "name": "balanceOf",
      "outputs": [
        {
          "internalType": "uint256",
          "name": "",
          "type": "uint256"
        }
      ],
      "stateMutability": "view",
      "type": "function"
    },
    {
      "inputs": [
        {
          "internalType": "uint256",
          "name": "tokenId",
          "type": "uint256"
        }
      ],
      "name": "getApproved",
      "outputs": [
        {
          "internalType": "address",
          "name": "",
          "type": "address"
        }
      ],
      "stateMutability": "view",
      "type": "function"
    },
    {
      "inputs": [
        {
          "internalType": "address",
          "name": "owner",
          "type": "address"
        },
        {
          "internalType": "address",
          "name": "operator",
          "type": "address"
        }
      ],
      "name": "isApprovedForAll",
      "outputs": [
        {
          "internalType": "bool",
          "name": "",
          "type": "bool"
        }
      ],
      "stateMutability": "view",
      "type": "function"
    },
    {
      "inputs": [],
      "name": "name",
      "outputs": [
        {
          "internalType": "string",
          "name": "",
          "type": "string"
        }
      ],
      "stateMutability": "view",
      "type": "function"
    },
    {
      "inputs": [],
      "name": "owner",
      "outputs": [
        {
          "internalType": "address",
          "name": "",
          "type": "address"
        }
      ],
      "stateMutability": "view",
      "type": "function"
    },
    {
      "inputs": [
        {
          "internalType": "uint256",
          "name": "tokenId",
          "type": "uint256"
        }
      ],
      "name": "ownerOf",
      "outputs": [
        {
          "internalType": "address",
          "name": "",
          "type": "address"
        }
      ],
      "stateMutability": "view",
      "type": "function"
    },
    {
      "inputs": [],
      "name": "renounceOwnership",
      "outputs": [],
      "stateMutability": "nonpayable",
      "type": "function"
    },
    {
      "inputs": [
        {
          "internalType": "address",
          "name": "to",
          "type": "address"
        }
      ],
      "name": "safeMint",
      "outputs": [],
      "stateMutability": "nonpayable",
      "type": "function"
    },
    {
      "inputs": [
        {
          "internalType": "address",
          "name": "from",
          "type": "address"
        },
        {
          "internalType": "address",
          "name": "to",
          "type": "address"
        },
        {
          "internalType": "uint256",
          "name": "tokenId",
          "type": "uint256"
        }
      ],
      "name": "safeTransferFrom",
      "outputs": [],
      "stateMutability": "nonpayable",
      "type": "function"
    },
    {
      "inputs": [
        {
          "internalType": "address",
          "name": "from",
          "type": "address"
        },
        {
          "internalType": "address",
          "name": "to",
          "type": "address"
        },
        {
          "internalType": "uint256",
          "name": "tokenId",
          "type": "uint256"
        },
        {
          "internalType": "bytes",
          "name": "data",
          "type": "bytes"
        }
      ],
      "name": "safeTransferFrom",
      "outputs": [],
      "stateMutability": "nonpayable",
      "type": "function"
    },
    {
      "inputs": [
        {
          "internalType": "address",
          "name": "operator",
          "type": "address"
        },
        {
          "internalType": "bool",
          "name": "approved",
          "type": "bool"
        }
      ],
      "name": "setApprovalForAll",
      "outputs": [],
      "stateMutability": "nonpayable",
      "type": "function"
    },
    {
      "inputs": [
        {
          "internalType": "address",
          "name": "saper",
          "type": "address"
        }
      ],
      "name": "setSaper",
      "outputs": [],
      "stateMutability": "nonpayable",
      "type": "function"
    },
    {
      "inputs": [
        {
          "internalType": "bytes4",
          "name": "interfaceId",
          "type": "bytes4"
        }
      ],
      "name": "supportsInterface",
      "outputs": [
        {
          "internalType": "bool",
          "name": "",
          "type": "bool"
        }
      ],
      "stateMutability": "view",
      "type": "function"
    },
    {
      "inputs": [],
      "name": "symbol",
      "outputs": [
        {
          "internalType": "string",
          "name": "",
          "type": "string"
        }
      ],
      "stateMutability": "view",
      "type": "function"
    },
    {
      "inputs": [
        {
          "internalType": "uint256",
          "name": "tokenId",
          "type": "uint256"
        }
      ],
      "name": "tokenURI",
      "outputs": [
        {
          "internalType": "string",
          "name": "",
          "type": "string"
        }
      ],
      "stateMutability": "view",
      "type": "function"
    },
    {
      "inputs": [
        {
          "internalType": "address",
          "name": "from",
          "type": "address"
        },
        {
          "internalType": "address",
          "name": "to",
          "type": "address"
        },
        {
          "internalType": "uint256",
          "name": "tokenId",
          "type": "uint256"
        }
      ],
      "name": "transferFrom",
      "outputs": [],
      "stateMutability": "nonpayable",
      "type": "function"
    },
    {
      "inputs": [
        {
          "internalType": "address",
          "name": "newOwner",
          "type": "address"
        }
      ],
      "name": "transferOwnership",
      "outputs": [],
      "stateMutability": "nonpayable",
      "type": "function"
    }
  ],
  "bytecode": "0x60806040523480156200001157600080fd5b50336040518060400160405280601181526020017f53617065722043657274696669636174650000000000000000000000000000008152506040518060400160405280600681526020017f5343424f4f4d00000000000000000000000000000000000000000000000000008152508160009081620000909190620004b3565b508060019081620000a29190620004b3565b505050600073ffffffffffffffffffffffffffffffffffffffff168173ffffffffffffffffffffffffffffffffffffffff16036200011a5760006040517f1e4fbdf7000000000000000000000000000000000000000000000000000000008152600401620001119190620005df565b60405180910390fd5b6200012b816200017360201b60201c565b5033600860006101000a81548173ffffffffffffffffffffffffffffffffffffffff021916908373ffffffffffffffffffffffffffffffffffffffff160217905550620005fc565b6000600660009054906101000a900473ffffffffffffffffffffffffffffffffffffffff16905081600660006101000a81548173ffffffffffffffffffffffffffffffffffffffff021916908373ffffffffffffffffffffffffffffffffffffffff1602179055508173ffffffffffffffffffffffffffffffffffffffff168173ffffffffffffffffffffffffffffffffffffffff167f8be0079c531659141344cd1fd0a4f28419497f9722a3daafe3b4186f6b6457e060405160405180910390a35050565b600081519050919050565b7f4e487b7100000000000000000000000000000000000000000000000000000000600052604160045260246000fd5b7f4e487b7100000000000000000000000000000000000000000000000000000000600052602260045260246000fd5b60006002820490506001821680620002bb57607f821691505b602082108103620002d157620002d062000273565b5b50919050565b60008190508160005260206000209050919050565b60006020601f8301049050919050565b600082821b905092915050565b6000600883026200033b7fffffffffffffffffffffffffffffffffffffffffffffffffffffffffffffffff82620002fc565b620003478683620002fc565b95508019841693508086168417925050509392505050565b6000819050919050565b6000819050919050565b6000620003946200038e62000388846200035f565b62000369565b6200035f565b9050919050565b6000819050919050565b620003b08362000373565b620003c8620003bf826200039b565b84845462000309565b825550505050565b600090565b620003df620003d0565b620003ec818484620003a5565b505050565b5b81811015620004145762000408600082620003d5565b600181019050620003f2565b5050565b601f82111562000463576200042d81620002d7565b6200043884620002ec565b8101602085101562000448578190505b620004606200045785620002ec565b830182620003f1565b50505b505050565b600082821c905092915050565b6000620004886000198460080262000468565b1980831691505092915050565b6000620004a3838362000475565b9150826002028217905092915050565b620004be8262000239565b67ffffffffffffffff811115620004da57620004d962000244565b5b620004e68254620002a2565b620004f382828562000418565b600060209050601f8311600181146200052b576000841562000516578287015190505b62000522858262000495565b86555062000592565b601f1984166200053b86620002d7565b60005b8281101562000565578489015182556001820191506020850194506020810190506200053e565b8683101562000585578489015162000581601f89168262000475565b8355505b6001600288020188555050505b505050505050565b600073ffffffffffffffffffffffffffffffffffffffff82169050919050565b6000620005c7826200059a565b9050919050565b620005d981620005ba565b82525050565b6000602082019050620005f66000830184620005ce565b92915050565b6122b7806200060c6000396000f3fe608060405234801561001057600080fd5b50600436106101165760003560e01c8063715018a6116100a2578063b638130f11610071578063b638130f146102cb578063b88d4fde146102e7578063c87b56dd14610303578063e985e9c514610333578063f2fde38b1461036357610116565b8063715018a6146102695780638da5cb5b1461027357806395d89b4114610291578063a22cb465146102af57610116565b806323b872dd116100e957806323b872dd146101b557806340d097c3146101d157806342842e0e146101ed5780636352211e1461020957806370a082311461023957610116565b806301ffc9a71461011b57806306fdde031461014b578063081812fc14610169578063095ea7b314610199575b600080fd5b610135600480360381019061013091906119d2565b61037f565b6040516101429190611a1a565b60405180910390f35b610153610461565b6040516101609190611ac5565b60405180910390f35b610183600480360381019061017e9190611b1d565b6104f3565b6040516101909190611b8b565b60405180910390f35b6101b360048036038101906101ae9190611bd2565b61050f565b005b6101cf60048036038101906101ca9190611c12565b610525565b005b6101eb60048036038101906101e69190611c65565b610627565b005b61020760048036038101906102029190611c12565b6106e0565b005b610223600480360381019061021e9190611b1d565b610700565b6040516102309190611b8b565b60405180910390f35b610253600480360381019061024e9190611c65565b610712565b6040516102609190611ca1565b60405180910390f35b6102716107cc565b005b61027b6107e0565b6040516102889190611b8b565b60405180910390f35b61029961080a565b6040516102a69190611ac5565b60405180910390f35b6102c960048036038101906102c49190611ce8565b61089c565b005b6102e560048036038101906102e09190611c65565b6108b2565b005b61030160048036038101906102fc9190611e5d565b6108fe565b005b61031d60048036038101906103189190611b1d565b61091b565b60405161032a9190611ac5565b60405180910390f35b61034d60048036038101906103489190611ee0565b610984565b60405161035a9190611a1a565b60405180910390f35b61037d60048036038101906103789190611c65565b610a18565b005b60007f80ac58cd000000000000000000000000000000000000000000000000000000007bffffffffffffffffffffffffffffffffffffffffffffffffffffffff1916827bffffffffffffffffffffffffffffffffffffffffffffffffffffffff1916148061044a57507f5b5e139f000000000000000000000000000000000000000000000000000000007bffffffffffffffffffffffffffffffffffffffffffffffffffffffff1916827bffffffffffffffffffffffffffffffffffffffffffffffffffffffff1916145b8061045a575061045982610a9e565b5b9050919050565b60606000805461047090611f4f565b80601f016020809104026020016040519081016040528092919081815260200182805461049c90611f4f565b80156104e95780601f106104be576101008083540402835291602001916104e9565b820191906000526020600020905b8154815290600101906020018083116104cc57829003601f168201915b5050505050905090565b60006104fe82610b08565b5061050882610b90565b9050919050565b610521828261051c610bcd565b610bd5565b5050565b600073ffffffffffffffffffffffffffffffffffffffff168273ffffffffffffffffffffffffffffffffffffffff16036105975760006040517f64a0ae9200000000000000000000000000000000000000000000000000000000815260040161058e9190611b8b565b60405180910390fd5b60006105ab83836105a6610bcd565b610be7565b90508373ffffffffffffffffffffffffffffffffffffffff168173ffffffffffffffffffffffffffffffffffffffff1614610621578382826040517f64283d7b00000000000000000000000000000000000000000000000000000000815260040161061893929190611f80565b60405180910390fd5b50505050565b600860009054906101000a900473ffffffffffffffffffffffffffffffffffffffff1673ffffffffffffffffffffffffffffffffffffffff163373ffffffffffffffffffffffffffffffffffffffff16146106b7576040517f08c379a00000000000000000000000000000000000000000000000000000000081526004016106ae9061204f565b60405180910390fd5b6000600760008154809291906106cc9061209e565b9190505590506106dc8282610e01565b5050565b6106fb838383604051806020016040528060008152506108fe565b505050565b600061070b82610b08565b9050919050565b60008073ffffffffffffffffffffffffffffffffffffffff168273ffffffffffffffffffffffffffffffffffffffff16036107855760006040517f89c62b6400000000000000000000000000000000000000000000000000000000815260040161077c9190611b8b565b60405180910390fd5b600360008373ffffffffffffffffffffffffffffffffffffffff1673ffffffffffffffffffffffffffffffffffffffff168152602001908152602001600020549050919050565b6107d4610e1f565b6107de6000610ea6565b565b6000600660009054906101000a900473ffffffffffffffffffffffffffffffffffffffff16905090565b60606001805461081990611f4f565b80601f016020809104026020016040519081016040528092919081815260200182805461084590611f4f565b80156108925780601f1061086757610100808354040283529160200191610892565b820191906000526020600020905b81548152906001019060200180831161087557829003601f168201915b5050505050905090565b6108ae6108a7610bcd565b8383610f6c565b5050565b6108ba610e1f565b80600860006101000a81548173ffffffffffffffffffffffffffffffffffffffff021916908373ffffffffffffffffffffffffffffffffffffffff16021790555050565b610909848484610525565b610915848484846110db565b50505050565b606061092682610b08565b506000610931611292565b90506000815111610951576040518060200160405280600081525061097c565b8061095b846112a9565b60405160200161096c929190612122565b6040516020818303038152906040525b915050919050565b6000600560008473ffffffffffffffffffffffffffffffffffffffff1673ffffffffffffffffffffffffffffffffffffffff16815260200190815260200160002060008373ffffffffffffffffffffffffffffffffffffffff1673ffffffffffffffffffffffffffffffffffffffff16815260200190815260200160002060009054906101000a900460ff16905092915050565b610a20610e1f565b600073ffffffffffffffffffffffffffffffffffffffff168173ffffffffffffffffffffffffffffffffffffffff1603610a925760006040517f1e4fbdf7000000000000000000000000000000000000000000000000000000008152600401610a899190611b8b565b60405180910390fd5b610a9b81610ea6565b50565b60007f01ffc9a7000000000000000000000000000000000000000000000000000000007bffffffffffffffffffffffffffffffffffffffffffffffffffffffff1916827bffffffffffffffffffffffffffffffffffffffffffffffffffffffff1916149050919050565b600080610b1483611377565b9050600073ffffffffffffffffffffffffffffffffffffffff168173ffffffffffffffffffffffffffffffffffffffff1603610b8757826040517f7e273289000000000000000000000000000000000000000000000000000000008152600401610b7e9190611ca1565b60405180910390fd5b80915050919050565b60006004600083815260200190815260200160002060009054906101000a900473ffffffffffffffffffffffffffffffffffffffff169050919050565b600033905090565b610be283838360016113b4565b505050565b600080610bf384611377565b9050600073ffffffffffffffffffffffffffffffffffffffff168373ffffffffffffffffffffffffffffffffffffffff1614610c3557610c34818486611579565b5b600073ffffffffffffffffffffffffffffffffffffffff168173ffffffffffffffffffffffffffffffffffffffff1614610cc657610c776000856000806113b4565b6001600360008373ffffffffffffffffffffffffffffffffffffffff1673ffffffffffffffffffffffffffffffffffffffff168152602001908152602001600020600082825403925050819055505b600073ffffffffffffffffffffffffffffffffffffffff168573ffffffffffffffffffffffffffffffffffffffff1614610d49576001600360008773ffffffffffffffffffffffffffffffffffffffff1673ffffffffffffffffffffffffffffffffffffffff168152602001908152602001600020600082825401925050819055505b846002600086815260200190815260200160002060006101000a81548173ffffffffffffffffffffffffffffffffffffffff021916908373ffffffffffffffffffffffffffffffffffffffff160217905550838573ffffffffffffffffffffffffffffffffffffffff168273ffffffffffffffffffffffffffffffffffffffff167fddf252ad1be2c89b69c2b068fc378daa952ba7f163c4a11628f55a4df523b3ef60405160405180910390a4809150509392505050565b610e1b82826040518060200160405280600081525061163d565b5050565b610e27610bcd565b73ffffffffffffffffffffffffffffffffffffffff16610e456107e0565b73ffffffffffffffffffffffffffffffffffffffff1614610ea457610e68610bcd565b6040517f118cdaa7000000000000000000000000000000000000000000000000000000008152600401610e9b9190611b8b565b60405180910390fd5b565b6000600660009054906101000a900473ffffffffffffffffffffffffffffffffffffffff16905081600660006101000a81548173ffffffffffffffffffffffffffffffffffffffff021916908373ffffffffffffffffffffffffffffffffffffffff1602179055508173ffffffffffffffffffffffffffffffffffffffff168173ffffffffffffffffffffffffffffffffffffffff167f8be0079c531659141344cd1fd0a4f28419497f9722a3daafe3b4186f6b6457e060405160405180910390a35050565b600073ffffffffffffffffffffffffffffffffffffffff168273ffffffffffffffffffffffffffffffffffffffff1603610fdd57816040517f5b08ba18000000000000000000000000000000000000000000000000000000008152600401610fd49190611b8b565b60405180910390fd5b80600560008573ffffffffffffffffffffffffffffffffffffffff1673ffffffffffffffffffffffffffffffffffffffff16815260200190815260200160002060008473ffffffffffffffffffffffffffffffffffffffff1673ffffffffffffffffffffffffffffffffffffffff16815260200190815260200160002060006101000a81548160ff0219169083151502179055508173ffffffffffffffffffffffffffffffffffffffff168373ffffffffffffffffffffffffffffffffffffffff167f17307eab39ab6107e8899845ad3d59bd9653f200f220920489ca2b5937696c31836040516110ce9190611a1a565b60405180910390a3505050565b60008373ffffffffffffffffffffffffffffffffffffffff163b111561128c578273ffffffffffffffffffffffffffffffffffffffff1663150b7a0261111f610bcd565b8685856040518563ffffffff1660e01b8152600401611141949392919061219b565b6020604051808303816000875af192505050801561117d57506040513d601f19601f8201168201806040525081019061117a91906121fc565b60015b611201573d80600081146111ad576040519150601f19603f3d011682016040523d82523d6000602084013e6111b2565b606091505b5060008151036111f957836040517f64a0ae920000000000000000000000000000000000000000000000000000000081526004016111f09190611b8b565b60405180910390fd5b805181602001fd5b63150b7a0260e01b7bffffffffffffffffffffffffffffffffffffffffffffffffffffffff1916817bffffffffffffffffffffffffffffffffffffffffffffffffffffffff19161461128a57836040517f64a0ae920000000000000000000000000000000000000000000000000000000081526004016112819190611b8b565b60405180910390fd5b505b50505050565b606060405180602001604052806000815250905090565b6060600060016112b884611659565b01905060008167ffffffffffffffff8111156112d7576112d6611d32565b5b6040519080825280601f01601f1916602001820160405280156113095781602001600182028036833780820191505090505b509050600082602001820190505b60011561136c578080600190039150507f3031323334353637383961626364656600000000000000000000000000000000600a86061a8153600a85816113605761135f612229565b5b04945060008503611317575b819350505050919050565b60006002600083815260200190815260200160002060009054906101000a900473ffffffffffffffffffffffffffffffffffffffff169050919050565b80806113ed5750600073ffffffffffffffffffffffffffffffffffffffff168273ffffffffffffffffffffffffffffffffffffffff1614155b156115215760006113fd84610b08565b9050600073ffffffffffffffffffffffffffffffffffffffff168373ffffffffffffffffffffffffffffffffffffffff161415801561146857508273ffffffffffffffffffffffffffffffffffffffff168173ffffffffffffffffffffffffffffffffffffffff1614155b801561147b57506114798184610984565b155b156114bd57826040517fa9fbf51f0000000000000000000000000000000000000000000000000000000081526004016114b49190611b8b565b60405180910390fd5b811561151f57838573ffffffffffffffffffffffffffffffffffffffff168273ffffffffffffffffffffffffffffffffffffffff167f8c5be1e5ebec7d5bd14f71427d1e84f3dd0314c0f7b2291e5b200ac8c7c3b92560405160405180910390a45b505b836004600085815260200190815260200160002060006101000a81548173ffffffffffffffffffffffffffffffffffffffff021916908373ffffffffffffffffffffffffffffffffffffffff16021790555050505050565b6115848383836117ac565b61163857600073ffffffffffffffffffffffffffffffffffffffff168373ffffffffffffffffffffffffffffffffffffffff16036115f957806040517f7e2732890000000000000000000000000000000000000000000000000000000081526004016115f09190611ca1565b60405180910390fd5b81816040517f177e802f00000000000000000000000000000000000000000000000000000000815260040161162f929190612258565b60405180910390fd5b505050565b611647838361186d565b61165460008484846110db565b505050565b600080600090507a184f03e93ff9f4daa797ed6e38ed64bf6a1f01000000000000000083106116b7577a184f03e93ff9f4daa797ed6e38ed64bf6a1f01000000000000000083816116ad576116ac612229565b5b0492506040810190505b6d04ee2d6d415b85acef810000000083106116f4576d04ee2d6d415b85acef810000000083816116ea576116e9612229565b5b0492506020810190505b662386f26fc10000831061172357662386f26fc10000838161171957611718612229565b5b0492506010810190505b6305f5e100831061174c576305f5e100838161174257611741612229565b5b0492506008810190505b612710831061177157612710838161176757611766612229565b5b0492506004810190505b60648310611794576064838161178a57611789612229565b5b0492506002810190505b600a83106117a3576001810190505b80915050919050565b60008073ffffffffffffffffffffffffffffffffffffffff168373ffffffffffffffffffffffffffffffffffffffff161415801561186457508273ffffffffffffffffffffffffffffffffffffffff168473ffffffffffffffffffffffffffffffffffffffff16148061182557506118248484610984565b5b8061186357508273ffffffffffffffffffffffffffffffffffffffff1661184b83610b90565b73ffffffffffffffffffffffffffffffffffffffff16145b5b90509392505050565b600073ffffffffffffffffffffffffffffffffffffffff168273ffffffffffffffffffffffffffffffffffffffff16036118df5760006040517f64a0ae920000000000000000000000000000000000000000000000000000000081526004016118d69190611b8b565b60405180910390fd5b60006118ed83836000610be7565b9050600073ffffffffffffffffffffffffffffffffffffffff168173ffffffffffffffffffffffffffffffffffffffff16146119615760006040517f73c6ac6e0000000000000000000000000000000000000000000000000000000081526004016119589190611b8b565b60405180910390fd5b505050565b6000604051905090565b600080fd5b600080fd5b60007fffffffff0000000000000000000000000000000000000000000000000000000082169050919050565b6119af8161197a565b81146119ba57600080fd5b50565b6000813590506119cc816119a6565b92915050565b6000602082840312156119e8576119e7611970565b5b60006119f6848285016119bd565b91505092915050565b60008115159050919050565b611a14816119ff565b82525050565b6000602082019050611a2f6000830184611a0b565b92915050565b600081519050919050565b600082825260208201905092915050565b60005b83811015611a6f578082015181840152602081019050611a54565b60008484015250505050565b6000601f19601f8301169050919050565b6000611a9782611a35565b611aa18185611a40565b9350611ab1818560208601611a51565b611aba81611a7b565b840191505092915050565b60006020820190508181036000830152611adf8184611a8c565b905092915050565b6000819050919050565b611afa81611ae7565b8114611b0557600080fd5b50565b600081359050611b1781611af1565b92915050565b600060208284031215611b3357611b32611970565b5b6000611b4184828501611b08565b91505092915050565b600073ffffffffffffffffffffffffffffffffffffffff82169050919050565b6000611b7582611b4a565b9050919050565b611b8581611b6a565b82525050565b6000602082019050611ba06000830184611b7c565b92915050565b611baf81611b6a565b8114611bba57600080fd5b50565b600081359050611bcc81611ba6565b92915050565b60008060408385031215611be957611be8611970565b5b6000611bf785828601611bbd565b9250506020611c0885828601611b08565b9150509250929050565b600080600060608486031215611c2b57611c2a611970565b5b6000611c3986828701611bbd565b9350506020611c4a86828701611bbd565b9250506040611c5b86828701611b08565b9150509250925092565b600060208284031215611c7b57611c7a611970565b5b6000611c8984828501611bbd565b91505092915050565b611c9b81611ae7565b82525050565b6000602082019050611cb66000830184611c92565b92915050565b611cc5816119ff565b8114611cd057600080fd5b50565b600081359050611ce281611cbc565b92915050565b60008060408385031215611cff57611cfe611970565b5b6000611d0d85828601611bbd565b9250506020611d1e85828601611cd3565b9150509250929050565b600080fd5b600080fd5b7f4e487b7100000000000000000000000000000000000000000000000000000000600052604160045260246000fd5b611d6a82611a7b565b810181811067ffffffffffffffff82111715611d8957611d88611d32565b5b80604052505050565b6000611d9c611966565b9050611da88282611d61565b919050565b600067ffffffffffffffff821115611dc857611dc7611d32565b5b611dd182611a7b565b9050602081019050919050565b82818337600083830152505050565b6000611e00611dfb84611dad565b611d92565b905082815260208101848484011115611e1c57611e1b611d2d565b5b611e27848285611dde565b509392505050565b600082601f830112611e4457611e43611d28565b5b8135611e54848260208601611ded565b91505092915050565b60008060008060808587031215611e7757611e76611970565b5b6000611e8587828801611bbd565b9450506020611e9687828801611bbd565b9350506040611ea787828801611b08565b925050606085013567ffffffffffffffff811115611ec857611ec7611975565b5b611ed487828801611e2f565b91505092959194509250565b60008060408385031215611ef757611ef6611970565b5b6000611f0585828601611bbd565b9250506020611f1685828601611bbd565b9150509250929050565b7f4e487b7100000000000000000000000000000000000000000000000000000000600052602260045260246000fd5b60006002820490506001821680611f6757607f821691505b602082108103611f7a57611f79611f20565b5b50919050565b6000606082019050611f956000830186611b7c565b611fa26020830185611c92565b611faf6040830184611b7c565b949350505050565b7f4f6e6c792074686520536170657220636f6e74726163742063616e206973737560008201527f652061206365727469666963617465206f66206d61737465727920696e20746860208201527f652067616d652100000000000000000000000000000000000000000000000000604082015250565b6000612039604783611a40565b915061204482611fb7565b606082019050919050565b600060208201905081810360008301526120688161202c565b9050919050565b7f4e487b7100000000000000000000000000000000000000000000000000000000600052601160045260246000fd5b60006120a982611ae7565b91507fffffffffffffffffffffffffffffffffffffffffffffffffffffffffffffffff82036120db576120da61206f565b5b600182019050919050565b600081905092915050565b60006120fc82611a35565b61210681856120e6565b9350612116818560208601611a51565b80840191505092915050565b600061212e82856120f1565b915061213a82846120f1565b91508190509392505050565b600081519050919050565b600082825260208201905092915050565b600061216d82612146565b6121778185612151565b9350612187818560208601611a51565b61219081611a7b565b840191505092915050565b60006080820190506121b06000830187611b7c565b6121bd6020830186611b7c565b6121ca6040830185611c92565b81810360608301526121dc8184612162565b905095945050505050565b6000815190506121f6816119a6565b92915050565b60006020828403121561221257612211611970565b5b6000612220848285016121e7565b91505092915050565b7f4e487b7100000000000000000000000000000000000000000000000000000000600052601260045260246000fd5b600060408201905061226d6000830185611b7c565b61227a6020830184611c92565b939250505056fea26469706673582212208d378e341278c449de486061b1245f15282165e49e2535db55ad6e92f3138ad464736f6c63430008140033",
  "linkReferences": {},
  "deployedLinkReferences": {}
}